:100000000C9474060C949C060C949C060C949C0610
:100010000C94D62A0C94D62A0C94D62A0C94D62A60
:100020000C949C060C94451B0C949C060C94B821D3
:100030000C949C060C94DC250C949C060C949C0659
:100040000C949C060C949C060C942C1F0C949C06FF
:100050000C948F1A0C94691A0C949C060C949C06B0
:100060000C949C060C949C060C948E230C949C0679
:100070000C949C060C949C060C949C06110C380C59
:10008000FF0B520C5C0C930C850C930C930C930C93
:10009000D30C210C00090F00FD0A01E803D820FF52
:1000A000FD0CFD0BFD00000009000C010B0B090409
:1000B00000808080808080800000808004030309AD
:1000C00003079090900608080901014848FC484839
:1000D000FC4848070B0B0901FF107C929050381424
:1000E00012927C10070A0A09010042A4A4481010C9
:1000F000244A4A84070A0A090100609090906062CD
:1001000094889462010303090407808080030C0C27
:100110000903FF2040408080808080804040200391
:100120000C0C0903FF80404020202020202040406C
:1001300080070707090103109254385492100707EB
:1001400007090101101010FE101010020505090426
:10015000FDC0C0404080070101090104FE02020207
:10016000090400C0C0070A0A0901000204040810BB
:100170001020404080070A0A090100384482828228
:100180008282824438070A0A090100103050901018
:1001900010101010FE070A0A0901007C8282040870
:1001A00010204080FE070A0A090100FE0204081C14
:1001B000020202827C070A0A090100040C1424448A
:1001C00084FE040404070A0A090100FE8080BCC200
:1001D000020202827C070A0A0901003C408080BCBE
:1001E000C28282827C070A0A090100FE0204040816
:1001F0000810102020070A0A0901003844824438F8
:100200004482824438070A0A0901007C828282867D
:100210007A02020478020707090400C0C000000047
:10022000C0C0020A0A0904FDC0C0000000C0C040EE
:100230004080050A0A090200081020408080402002
:100240001008070404090102FE0000FE050A0A095D
:10025000020080402010080810204080070A0A0988
:1002600001007C828202040810100010070A0A09AB
:1002700001007C82829EA2A69A80807C070A0A09DD
:100280000100102844828282FE828282070A0A09C3
:100290000100F8848284F884828284F8070A0A09BB
:1002A00001007C82808080808080827C070A0A092D
:1002B0000100F88482828282828284F8070A0A0915
:1002C0000100FE808080F880808080FE070A0A0995
:1002D0000100FE808080F88080808080070A0A0903
:1002E00001007C828080808E8282827C070A0A09DB
:1002F000010082828282FE8282828282050A0A094B
:100300000200F82020202020202020F8080A0A09D6
:1003100001001F040404040404048478070A0A0981
:10032000010082848890E0A090888482070A0A09EC
:100330000100808080808080808080FE070A0A091A
:1003400001008282C6AAAA9292828282070A0A09C0
:1003500001008282C2A2928A86828282070A0A09E8
:1003600001007C82828282828282827C070A0A0960
:100370000100FC828282FC8080808080070C0C0956
:1003800001FE7C828282828282A2927C0806070A17
:100390000A090100FC828282FC9088848282070A1A
:1003A0000A0901007C828280700C0282827C070A2A
:1003B0000A090100FE101010101010101010070A8A
:1003C0000A0901008282828282828282827C070AFA
:1003D0000A09010082828244444428282810070A1E
:1003E0000A0901008282828292929292AA44070AAA
:1003F0000A09010082824428101028448282070AD8
:100400000A09010082824428101010101010070AF7
:100410000A090100FE0204081020408080FE040C3E
:100420000C0903FFF080808080808080808080F0D5
:10043000070A0A0901008040402010100804040245
:10044000040C0C0902FFF010101010101010101006
:1004500010F007040409010610284482080101096C
:1004600000FFFF0303030903088040200707070973
:1004700001007C02027E82867A070A0A0901008056
:100480008080BCC2828282C2BC0707070901007C4F
:1004900082808080827C070A0A0901000202027AB7
:1004A00086828282867A0707070901007C8282FEA3
:1004B00080807C070A0A0901001C22222020F820E3
:1004C000202020070A0A0901FD7A84848478807C30
:1004D00082827C070A0A090100808080BCC2828275
:1004E000828282050A0A090200600000E0202020C2
:1004F0002020F8060D0D0901FD0C00001C04040469
:10050000040484848478070A0A09010080808082B8
:100510008CB0C0B08C82050A0A090200E0202020BD
:100520002020202020F8070707090100EC92929272
:10053000929282070707090100BCC28282828282EE
:100540000707070901007C82828282827C070A0AEF
:100550000901FDBCC2828282C2BC808080070A0A77
:100560000901FD7A86828282867A020202070707E3
:100570000901009C62424040404007070709010012
:100580007C82807C02827C0709090901002020FC12
:1005900020202020221C070707090100848484846E
:1005A00084847A07070709010082824444282810BE
:1005B0000707070901008282929292AA440707075F
:1005C00009010082442810284482060A0A0901FD14
:1005D00084848484848C7404847807070709010068
:1005E000FE0408102040FE050C0C0903FF384040B3
:1005F0004020C0C02040404038010C0C0904FF805E
:100600008080808080808080808080050C0C090143
:10061000FFE010101020181820101010E00703033E
:1006200009010762928CFFFFFFFFFFFFFFFFFFFF43
:10063000FFFFFFFFFFFFFFFFFFFFFFFFFFFFFFFFCA
:10064000FFFFFFFFFFFFFF00000009000C010B0B85
:1006500009040080800000808080808080800608FF
:100660000809010008789490A0A47840070A0A09B4
:1006700001001C222020F8202060A25C0706060949
:100680000103827C44447C82070A0A0901008282B9
:1006900044287C107C101010010B0B0904FF808093
:1006A000808080008080808080040B0B0902FF60C6
:1006B000908060909090601090600502020902099D
:1006C00088880809090900013C4299A5A1A5994219
:1006D0003C050707090103609070907800F807084F
:1006E00008090101122448909048241206040409C4
:1006F0000102FC040404050101090204F8080909C7
:100700000900013C42B9A5B9A9A5423C060101096D
:100710000109FC04040409030660909060070909BC
:10072000090101101010FE10101000FE0406060949
:1007300001046090106080F00406060901046090D6
:100740002010906003030309030820408007090973
:100750000901FE8282828282C6BA8080070A0A0963
:1007600001007E8A8A8A7A0A0A0A0A0A02020209B1
:100770000404C0C00403030902FD309060030606B0
:1007800009010440C0404040E0050606090104702C
:1007900088887000F807080809010190482412129F
:1007A000244890070A0A09010040C0404042E60A76
:1007B000121A06070A0A09010040C040404CF20222
:1007C0000C101E070A0A0901006090201092660AA8
:1007D000121A06070A0A09010010001010204080B2
:1007E00082827C070C0C09010040201000384482F2
:1007F00082FE828282070C0C090100040810003876
:10080000448282FE828282070C0C09010010284477
:100810000038448282FE828282070B0B090100624B
:100820009C0038448282FE828282070B0B09010001
:1008300044440038448282FE828282070B0B090105
:100840000038443828448282FE828282070A0A09DC
:1008500001006E90909090FC9090909E070D0D0975
:1008600001FD7C82808080808080827C18483007F7
:100870000C0C09010040201000FE40407840404030
:10088000FE070C0C09010004081000FE40407840EF
:100890004040FE070C0C09010010284400FE4040B7
:1008A00078404040FE070B0B090100444400FE4025
:1008B0004078404040FE050C0C09020080402000BA
:1008C000F8202020202020F8050C0C090200081038
:1008D0002000F8202020202020F8050C0C09020020
:1008E00020508800F8202020202020F8050B0B093C
:1008F0000200888800F8202020202020F8080A0A1A
:100900000900007C424141E1414141427C070B0B1F
:10091000090100629C0082C2A292928A8682070C20
:100920000C090100402010007C8282828282827C3D
:10093000070C0C090100040810007C82828282826C
:10094000827C070C0C090100102844007C82828202
:100950008282827C070B0B090100629C007C8282F0
:10096000828282827C070B0B0901004444007C8256
:1009700082828282827C0707070901018244281053
:10098000284482070C0C0901FF027C868A8A929215
:10099000A2A2C27C80070C0C09010040201000823A
:1009A0008282828282827C070C0C0901000408107A
:1009B00000828282828282827C070C0C09010010F4
:1009C000284400828282828282827C070B0B09018A
:1009D00000444400828282828282827C070C0C095D
:1009E0000100040810008282442810101010070A29
:1009F0000A0901008080FC828282FC808080060AD5
:100A00000A09010038444448D04844444458070B7C
:100A10000B090100201008007C02027E82867A0702
:100A20000B0B090100040810007C02027E82867A0A
:100A3000070B0B090100102844007C02027E82860D
:100A40007A070A0A090100324C007C02027E828683
:100A50007A070A0A0901004444007C02027E828669
:100A60007A070B0B090100182418007C02027E8211
:100A7000867A0707070901006C92127C90926E0734
:100A80000A0A0901FD7C82808080827C1848300738
:100A90000B0B090100402010007C8282FE80807CCC
:100AA000070B0B090100040810007C8282FE808085
:100AB0007C070B0B090100102844007C8282FE8019
:100AC000807C070A0A0901004444007C8282FE807F
:100AD000807C050B0B09020080402000E0202020D4
:100AE0002020F8050B0B09020010204000E0202018
:100AF000202020F8060B0B09010020508800701000
:100B0000101010107C050A0A090200909000E020E5
:100B100020202020F8070B0B090100483050087CEA
:100B200082828282827C070A0A090100629C00BCE0
:100B3000C28282828282070B0B09010040201000D2
:100B40007C82828282827C070B0B090100040810E0
:100B5000007C82828282827C070B0B0901001028B4
:100B600044007C82828282827C070A0A0901006238
:100B70009C007C82828282827C070A0A09010044EE
:100B800044007C82828282827C070909090100106C
:100B9000381000FE001038100709090901FF027C17
:100BA0008A8A92A2A27C80070B0B090100402010C8
:100BB000008484848484847A070B0B090100040870
:100BC00010008484848484847A070B0B090100104C
:100BD0002844008484848484847A070A0A090100F2
:100BE0004848008484848484847A060E0E0901FDBA
:100BF0000810200084848484848C74048478070C16
:100C00000C0901FD808080BCC28282C2BC808080D1
:100C1000060D0D0901FD48480084848484848C7489
:100C200004847800002100240027002A000000200E
:100C300000230026002900010204080102040840E4
:100C40002010204080804020100804020110808085
:100C50004020100804020100002200250028002B7B
:100C60000004040404020202020404020202020359
:100C70000303030303030304040101010101010150
:100C80000102FFE0FFD1AFFF32FFD1FFFEFFE0FF27
:100C9000D1AEFFD1FFFEFFE0FFD11000FFFEFFD07D
:100CA000FFE0FFC1FFD1AED580A83FD300408D1437
:100CB0002000A1C8DA1281CFD9F1DB402EA4A6AF63
:100CC000FFD0FFFE0000000000000001080302004A
:100CD000090A0000000000000000040700000000F6
:100CE00000000000D23AB83A11241FBECFEFD0E185
:100CF000DEBFCDBF12E0A0E0B1E0E4EFF1E802C05A
:100D000005900D92A43BB107D9F728E0A4EBB2E01F
:100D100001C01D92A53FB207E1F716E0C3E7D6E098
:100D200004C02197FE010E94663FC237D107C9F770
:100D30000E9421320C94ED400C940000089580E054
:100D400090E00895CF93883080F54091B70350919B
:100D5000B80321E030E0672B81F4B90102C0660FCF
:100D6000771F8A95E2F7CB01809590958423952390
:100D70009093B8038093B70318C0082E02C0220FC7
:100D8000331F0A94E2F7242B352B3093B8032093BA
:100D9000B7039091F008911108C0C82F0E94A41EBB
:100DA000BC018C2FCF910C94BC2BCF910895BF9296
:100DB000CF92DF92EF92FF920F931F93CF93DF9327
:100DC000843008F089C0D62E982F990F990F990F6B
:100DD00028E0B22EB90EC92FF92ED0E0CC24C3944E
:100DE000FB1410F58EEF8F0D8E31D8F40F2D10E01F
:100DF000F801EB56F94F9081923098F4EE24E39489
:100E00008C2D8D2109F4E12C000F111F913009F078
:100E100053C0DC29F801EB54F94F8E2D90E09183FB
:100E20008083CC0CF394DCCFD0FF05C06D2D6170B6
:100E30008C2F0E94EA1AD1FF06C06D2D627081E0EE
:100E40008C0F0E94EA1AD2FF06C06D2D647082E0FA
:100E50008C0F0E94EA1AD3FF06C06D2D687083E0E4
:100E60008C0F0E94EA1AD4FF06C06D2D607184E0D9
:100E70008C0F0E94EA1AD5FF06C06D2D607285E0C6
:100E80008C0F0E94EA1AD6FF06C06D2D607486E0B2
:100E90008C0F0E94EA1AD7FF1FC06D2D607887E083
:100EA0008C0FDF91CF911F910F91FF90EF90DF900A
:100EB000CF90BF900C94EA1AEE2009F4ABCFF80162
:100EC000EB54F94F80819181019709F4A3CF62E03F
:100ED0008F2D0E94A11B9ECFDF91CF911F910F916B
:100EE000FF90EF90DF90CF90BF9008959EEF980F06
:100EF0009E3180F4E82FF0E0DF01AB56B94F9C91B2
:100F0000913041F4EE0FFF1FEB54F94F6083718372
:100F10000C94EA1A08958F929F92AF92BF92CF924B
:100F2000DF92EF92FF920F931F93CF93DF937B019A
:100F3000803208F0BDC0C82FD0E0FE01EB56F94F5B
:100F40009081933009F4A4C0943009F0B1C082506C
:100F50008E3108F0A3C08E010C531D4FF801808123
:100F600090E09C01220F331F820F931F20E639E08F
:100F700040E252E0BE018B59984F0E945A25F80179
:100F8000008110E06801CC0CDD1CF0E2EF16F2E00D
:100F9000FF060CF043C0F7FC06C085EBE816F10431
:100FA00024F4D70104C0A0E001C0A4EBB0E0F60136
:100FB000E00FF11FEB59F84F818128E830E049013B
:100FC000881A910887FD9394880C991C880C991CA9
:100FD000092C000CAA08BB08828128E532E0281BF6
:100FE000310987FD3395220F331F220F331FA901CB
:100FF000330F660B770B9A01AB01281939094A099F
:101000005B090E94FD3C24EB30E040E050E00E9490
:10101000D33C820E931EA41EB51E01C047010C0DC9
:101020001D1DF801EB59F84F30813C30B8F5218196
:1010300088E890E0821B910927FD9395880F991FFE
:10104000880F991F8816990684F0828148E552E03E
:10105000481B510987FD5395440F551F440F551FD9
:10106000C401481559050CF4CA014FB7F894232F51
:1010700030E0F901EE0FFF1F2E0F3F1FF901EE5F69
:10108000F84F0297880F991F928381834FBF06C044
:10109000FE01EC53F34FE491E11107C0CC0FDD1FCB
:1010A000CB54D94FF982E88203C00E94451EF6CF87
:1010B000DF91CF911F910F91FF90EF90DF90CF9034
:1010C000BF90AF909F908F9008953F924F925F9204
:1010D0006F927F928F929F92AF92BF92CF92DF9248
:1010E000EF92FF920F931F93CF93DF93EC01062FA4
:1010F000DCACCBAC5C0184E0A80EB11CE98DFA8DB0
:10110000C5010995182FE884F984C7010E9497202A
:10111000982E888599850E949A20682EE1E09E127B
:1011200003C02FE0922E02C099249A948885998555
:101130000E948D20882E888599850E948920782E8E
:10114000888599850E949120013638F0009729F012
:10115000E80EF91E91E6892E10C0888599850E94B7
:101160009420013438F0009729F0E80EF91E81E44C
:10117000882E03C0F1E1EF0EF11C701630F41C8ACA
:101180001F8A188E1D8A1E8A9AC07814C0F3262DD5
:1011900030E0F70184918F3F21F4FFEFEF1AFF0A4F
:1011A00043C0801238C0888599850E949720970196
:1011B0002F5F3F4FF701882311F0823091F4849123
:1011C0008F8BF9012491288FF7013396E491EC8BF2
:1011D000F7013496E491ED8BF7013596E491EE8BAF
:1011E00016C08491982F9F7092509E8B82958F701D
:1011F0008D8BF9012491822F8F70888F22952F700B
:101200002F8BF7013296E491E295EF70EC8BE114AD
:10121000F10479F454C0F7013296E491E921C9014F
:101220008E0F911DE80EF91E871409F4A8CF839440
:10123000B0CF888599850E949A20882E4F88988CF7
:101240005D885C0CD9188E89D81A1D0D092D242DA6
:10125000412F652DC5010E94472A882371F1E80CB2
:10126000F11C87E0840D482E469446944694312E16
:10127000390C4E01F0E28F0E911C642C712C131569
:10128000E1F0052D67018C2D8E19841590F4F6017F
:1012900084916E817F8108A319A31BA28AA3940164
:1012A0004BE3C5010E941B20FFEFCF1ADF0A085F46
:1012B000EACFE60CF71C1F5FE2CF8C8901C080E00B
:1012C0002BAD082E000C990B820F911D8BAF81E086
:1012D00090E0DF91CF911F910F91FF90EF90DF9001
:1012E000CF90BF90AF909F908F907F906F905F90C6
:1012F0004F903F900895FF920F931F93CF93DF93EA
:1013000000D0CDB7DEB7082F10E0F801EB51FD4F4C
:101310009081F62EF9220551174F411104C0F801B2
:1013200090819F1511F12F2D30E03A832983A091F0
:101330005206B09153061097B1F0682FED91FC91D1
:1013400011976F7060690190F081E02DCD010995D2
:1013500022E030E0AE014F5F5F4F62E070E082E577
:1013600096E00E947022F801F0820F900F90DF91BA
:10137000CF911F910F91FF9008950F931F93CF93DB
:10138000DF93082F843008F073C090E0FC01E75130
:10139000FD4F6083672B09F46BC0FC01EB51FD4FDF
:1013A0001081D02FDD0FDD0FDD0F8EEF8D0F8E3111
:1013B00008F04EC010FF4CC08D2F0E94C11A892B1F
:1013C00009F446C0C1E08FEF8D0F8E3140F411FF5C
:1013D00006C081E08D0F0E94C11A892BD9F512FF3A
:1013E00006C082E08D0F0E94C11A892BA9F513FF58
:1013F00006C083E08D0F0E94C11A892B79F514FF76
:1014000006C084E08D0F0E94C11A892B49F515FF93
:1014100006C085E08D0F0E94C11A892B19F516FFB1
:1014200006C086E08D0F0E94C11A892BE9F417FFD0
:1014300006C087E08D0F0E94C11A892BB9F441E0E4
:101440006C2F802FDF91CF911F910F910C947B090E
:10145000C0E0B9CFC260C3CFC460C9CFC860CFCF2E
:10146000C061D5CFC062DBCFC064E1CFC068E7CF39
:10147000DF91CF911F910F910895CF92DF92EF925C
:10148000FF920F931F93CF93DF931F92CDB7DEB7D9
:10149000E82E6B01F42E6F3F8FEF780709F181E0A2
:1014A0008093BC08E092DE081092BD081092DF081D
:1014B00086EF96E029830E9482212981822F0E9453
:1014C0001A2DE0912904F0912A04E230F10550F040
:1014D000EE0FFF1FEE0FFF1F35973197F1F702C098
:1014E000C12CD12C8091BB088111FCCF2F2D80E223
:1014F0008F1508F420E281E08093BB088093BA083E
:101500009FEF9093B9081092B808920F9093B70884
:1015100080939608809196089E2D990F892B809331
:10152000960880919508813061F410929508809119
:1015300096088093BB008091BC0083FDF8CF85ECBA
:1015400001C085EE8093BC008091BB088130E1F33F
:101550008091B808821710F42091B808A7E9B8E084
:1015600045EC54E0FA018E2F841B821718F48D91FC
:101570008193F9CF1092E6042093E5040F2D10E03B
:1015800030E0021713071CF483EF91E005C0201729
:10159000310724F480E192E00E947414E092E903A0
:1015A000C092EA03C12CD12CC016D10634F490911C
:1015B000E5048091E604981312C0F394F3946F2D20
:1015C00070E049EE53E087E70F90DF91CF911F91D4
:1015D0000F91FF90EF90DF90CF900C94271486EF3F
:1015E00096E00E943621F601E751FC4F82838FEF8F
:1015F000C81AD80AD9CFA82FB0E0AC53BD4F9C91E0
:10160000292F30E0F901EE0FFF1F2E0F3F1FF901C8
:10161000EB59F84FE081F0E09F01220F331FE20FFA
:10162000F31FEE5FF84F80818F7B80838091E4020F
:10163000981306C0992379F091509093E4020BC05F
:10164000882349F0E091EA08EF5FE093EA08F0E0D0
:10165000E452FC4F90838FEF8C930895DB019091BF
:10166000E4029C30A8F53091EA08682F70E033233B
:1016700069F0E32FF0E0E452FC4F8081FB01EC5372
:10168000FD4F808331503093EA0807C0FB01EC53D3
:10169000FD4F90839F5F9093E402FB01EC53FD4F5D
:1016A000808190E09C01220F331F820F931F1A1636
:1016B0001B0634F4141615061CF49A01AD0104C07F
:1016C00020E639E040E252E08B59984F0C945A25BD
:1016D0008CE292E00C9474148F929F92AF92BF921E
:1016E000CF92DF92EF92FF920F931F93CF93DF93EE
:1016F0001F92CDB7DEB7C82ED12C96012E5E394F82
:101700004901F901ED57FF4F90819F3709F44BC113
:10171000963041F49091EF08992321F066307105DD
:1017200009F012C17B01182F0EEF080F0E31F8F4EB
:1017300064307105E1F0F601EC53FD4F80818C308F
:10174000B0F490E0FC01EE0FFF1F8E0F9F1FFC0115
:10175000EB59F84F808190E0FC01EE0FFF1F8E0FD8
:101760009F1FFC01EE5FF84F808186FDF3C098EE6D
:10177000910F983068F461E070E082E0E816F104BF
:1017800011F060E070E0892F99830E94A206998190
:101790000E3118F5A12FA695A695A695812F8770D5
:1017A000B0E0AB51BD4FE114F10421F02BE0E216A3
:1017B000F10449F421E030E001C0220F8A95EAF7F4
:1017C0008C91282B09C021E030E001C0220F8A95BE
:1017D000EAF720958C9128232C935601AA0CBB1C68
:1017E000F501EB54F94F118210823CE0E316F1044D
:1017F00008F099C0F701E25CFF4F0C94663F983007
:1018000008F0D1C00E3120F460E0812F0E94A11BAE
:10181000F401ED57FF4F80818F3709F4C4C082E097
:1018200080C00E3108F0BFC060E0812F0E94A11B74
:10183000F401ED57FF4F80818F3709F4B4C0108257
:10184000B2C00E3108F0AFC062E0812F0E94A11B30
:10185000F401ED57FF4F80818F3711F08BE08083CB
:10186000F501EB54F94F81E090E0918380839BC0B8
:101870000E3108F098C0F401ED57FF4F808183309E
:1018800021F460E0812F0E94EA1A61E0812F0E941A
:10189000A11BF401ED57FF4F80818F3709F483C0FE
:1018A00081E03FC0103208F07EC0F601EC53F34FE8
:1018B000E491E11153C077C00E3108F074C0F40117
:1018C000ED57FF4F80818F3711F084E08083F60160
:1018D000EC53FD4F80818F3F09F451C090E0FC0133
:1018E000EE0FFF1F8E0F9F1FFC01EB59F84F8081F9
:1018F00090E0FC01EE0FFF1F8E0F9F1FFC01EE5FBB
:10190000F84F808186FD4FC03AC01051123008F068
:101910004AC0F401ED57FF4F80818F3709F443C06F
:1019200086E0808340C080E492E00F90DF91CF9109
:101930001F910F91FF90EF90DF90CF90BF90AF90ED
:101940009F908F900C9474141092EF089FEF9093D7
:101950000001E8CE812F0E94FB0A09CF61E0812FB0
:101960000E94A11B60E070E0812F0E94451EF401DF
:10197000ED57FF4F80818F37B1F083E0D2CF4FEF2B
:101980005FEF6FEF7FEF812F0F90DF91CF911F916E
:101990000F91FF90EF90DF90CF90BF90AF909F900E
:1019A0008F900C942E0B0F90DF91CF911F910F9180
:1019B000FF90EF90DF90CF90BF90AF909F908F906F
:1019C00008956F927F928F929F92AF92BF92CF9223
:1019D000DF92EF92FF920F931F93CF93DF93CDB7D8
:1019E000DEB7A0970FB6F894DEBF0FBECDBF362F7F
:1019F0008A01893609F454C2B8F4853009F417C352
:101A000048F4833009F45EC208F0C8C2813009F49A
:101A10006AC331C68A3009F46FC58B3009F490C4AB
:101A2000873009F028C64CC3803709F441C1A8F4B7
:101A30008D3609F4F3C18F3609F490C18B3609F065
:101A40001AC680EF0E94BF178CE60E94BF1754ECA5
:101A5000E52E5CE0F52E1EEFD6C1883709F4F9C0FB
:101A60008A3709F465C1863709F005C6DA0111968F
:101A70009C9195FF03C081E592E06CC0FA018081E2
:101A8000833721F42091E908206205C0803429F4CD
:101A90002091E90820642093E90841E096FB222781
:101AA00020F924279871983081F168F49111E3C5E9
:101AB0004093BC088093DE081092BD081092DF08A6
:101AC00082E0F82E07C0903109F43EC0983109F445
:101AD00072C0D1C5F31690F4F801EF0DF11D8181AC
:101AE0006081F0E88F9F6019112486EF96E038A39B
:101AF0000E948221F394F39438A1ECCF0E94772DB9
:101B000083E191E00197F1F7B6C5D80112964C91A7
:101B1000129713966C91363071F4B0E86B9FB00158
:101B20001124640F711DF80195814481F0E89F9F95
:101B30004019112406C030E8639F401911246FEF4B
:101B40007FEF0E943D0A97C5E0910001E7302CF03D
:101B500081E792E00E9474148EC5D80112969C9180
:101B6000129713964C91363089F4B0E84B9FA00140
:101B70001124490F511DD80115963C9115971496C3
:101B80009C91B0E83B9F9019112406C0F0E84F9F4C
:101B9000901911244FEF5FEFEF5FE093000135E004
:101BA000E302F0011124E157FC4F8083528341830B
:101BB0009383248360C520910001121624F08FEFD7
:101BC0008093000158C590E0622F022E000C770B25
:101BD00035E0492F50E06417750774F0349FF00129
:101BE000359FF00D1124E157FC4F4081481302C08E
:101BF00085E026C09F5FEDCF90E0FACF9830F8F4F3
:101C0000FA0131968E9FD0018F9FB00D1124A157FC
:101C1000BC4F3C91849FF001859FF00D1124E1574A
:101C2000FC4F308311964D915C9112975283418302
:101C300013963C911397338314963C9134839F5FA2
:101C4000492F50E064177507CCF62150209300010E
:101C500012C5DA012C9111968C91B0E88B9FC001CE
:101C60001124820F911D009721F090932A048093F4
:101C700029048091EF088111FEC410E080EF810FEC
:101C8000823028F466E070E0812F0E946C0B1F5FA9
:101C90001032A1F781E08093EF081092E6041092D1
:101CA000E5041092BD081092DF080E94BC24E3C432
:101CB000653008F4E0C4FA01F080D180E280C3808E
:101CC00014818EEF8F0D8E3108F0D5C4EF2DF0E02A
:101CD000EC53FD4F20812C30B0F430E0F901EE0FD1
:101CE000FF1F2E0F3F1FF901EB59F84F208130E005
:101CF000F901EE0FFF1F2E0F3F1FF901EE5FF84FA6
:101D0000808186FD81C4F0E81F9FA00111244C0D45
:101D1000511D20E8E29EB00111246D0D711D8F2D23
:101D20000E942E0B64E070E08F2D0E946C0BA3C408
:101D3000623008F4A0C4DA012C9111968C91B0E8BD
:101D40008B9FC0011124820F911D009711F481E037
:101D500090E090930201809301018DC4623008F4F9
:101D60008AC4FA01618170E03230A1F08281F0E82A
:101D70008F9FC0011124682B792B333059F0DA0181
:101D800013968C9190E090E4899F902D88271124E0
:101D9000682B792BF80180810E948B076CC4F701B6
:101DA0008491811135C41E3130F484E00E94BF1744
:101DB0008EE00E94BF1782EF810F823030F486E000
:101DC0000E94BF1781E00E94BF178FE70E94BF17D4
:101DD0001F5FFFEFEF1AFF0A1E3109F4EEC11E313B
:101DE00090F480E00E94BF1781E00E94BF178BE053
:101DF0000E94BF1781E00E94BF1781E00E94BF17B9
:101E000081E00E94BF178AEE810F883040F682E0A1
:101E10000E94BF178AE00E94BF17C1CF662309F452
:101E20002AC4DA010C9180EF0E94BF178EE60E944F
:101E3000BF17802F0E94BF17003208F0BEC110E00C
:101E4000F801EB56F94F80810E94BF17000F111F58
:101E5000F801EB54F94F7F0180818F770E94BF1703
:101E6000D7018D919C919C012078232B39F0880F0C
:101E7000892F881F990B8F770E94BF17F801EB54A9
:101E8000F94F808191819C012227307C232B09F41A
:101E900094C1990F880B990F982F881F8F778BC14A
:101EA00080EF0E94BF178AE60E94BF1718EE183015
:101EB00010F4812F01C08FE70E94BF171F5F1830F9
:101EC000B1F77BC18091E90888608093E9086230AE
:101ED00071F5FA01F1808081682F70E01A8218860E
:101EE0001A8619861F86188A198A1A8A21E02E876F
:101EF0002B871C863D872983CE0101960E940C25E5
:101F00006F2DCE0101960E94DA2485E6888785E14F
:101F1000FE013196A9E8B7E001900D928A95E1F7AC
:101F2000CE0101960E9446250E949115A4C36730F8
:101F300009F0A1C3DA0112966C91129711963C91A7
:101F4000119714964C91149713965C9113971696CB
:101F50002C91169715967C9115978C9190E0E091B5
:101F60008B07F0918C078E179F0770F42795222717
:101F70002795272B479544274795452B6795662737
:101F80006795632B0E94D92C8091910790919207BD
:101F9000892B09F470C30E94202C6DC38091E9083D
:101FA00081608093E908633089F4FA01808180932D
:101FB000E8086281F0E86F9FB0011124DA01119600
:101FC0009C91692B20E030E0A9011BC06530E1F451
:101FD000FA0180818093E8082481F0E82F9F900126
:101FE0001124DA0113969C911397292B40E050E0BD
:101FF00012966C91B0E86B9FB0011124F8019181A9
:10200000692B0E94DD1B37C3613009F034C3DA014C
:102010008C910E941A1B80918E03882309F42BC394
:1020200080918C0390918D030E94502224C36230D2
:1020300019F5FA0180818823B1F0818161E088235C
:1020400041F08091EC070E94EA1A61E08091ED076F
:1020500007C08091F0070E94EA1A61E08091F107C1
:102060000E94EA1A08C360E070E080EF97E00E94E7
:10207000761F60E070E021C0643009F0FCC2DA0134
:1020800013968C91B0E88B9FC0011124FA016281F4
:10209000862B682F70E08181811103C07195619555
:1020A0007109D8018C91811105C080EF97E00E94E1
:1020B000761FE1C2813009F0DEC28CEE97E0F7CFE7
:1020C000FA018081823008F4D6C28093ED02CE01FD
:1020D000019690938D0380938C030E94502281E09F
:1020E00080938E03C8C28091E90880688093E908D4
:1020F000DA019C91992349F1993029F498A30E941F
:102100009D2698A14CC08091C404803108F047C03E
:10211000B5E08B9FF0011124EC58FB4F9083DA015E
:1021200011962C911197218312962C91129722834C
:1021300013962C9113972383933019F014962C91B6
:1021400024838F5F8093C4042AC0809173048330FA
:1021500030F5FA0121814EE0849FF0011124E75B04
:10216000FB4F2083D80112962C911297218313964E
:10217000EEE08E9FB001112440E050E04F5F5F4FD2
:1021800022E0240F231740F42D91FA01E60FF71FE8
:10219000E75BFB4F2183F2CF8F5F809373048091C5
:1021A000C404803170F080917304833050F080EF6C
:1021B0000E94BF1781E00E94BF1787EF0E94BF17E0
:1021C0005AC29930A1F30E94BC1880916407811112
:1021D00007C081E0809364078BE297E00E941F2094
:1021E00080912D0790912E070E94851485E0882EFE
:1021F0009EE0992E9E012F5F3F4F69018091C4049C
:10220000811105C08091730481116AC064C0A12C42
:102210008091C404A816B0F78A9CF0011124EC58F0
:10222000FB4F80818230B9F18330E1F1813009F0D8
:1022300050C084810381F2801181011718F4E12ECE
:10224000E01A02C0E02EE11A8F1578F4BF2CB81AFC
:10225000EB1408F003C29E2DEB2CB92E9F2DF02E0F
:10226000092F912F182F892F0EC0B82EBF18EB14ED
:1022700008F0D5C19E2DEB2CB92E902F082F892F59
:10228000912F1F2DF92E662463947E2C7694F816D8
:1022900008F4EDC1CDC124814381628181810E9416
:1022A000861817C0E380F280118191E09E0D292FDE
:1022B000220F4F2D491B612F691B022F8BE297E0E4
:1022C0000E94472A882329F04E2D6F2D812F0E94CE
:1022D0005718A3949DCF0E94CC1781118FCF67CF41
:1022E00010E0809173041817B0F7D601E92D1D9204
:1022F000EA95E9F722E0919EF0011124822F90E007
:10230000DF01A80FB91FA75BBB4F3C91332349F0F6
:10231000AFEFBFEFAC0FBD1FA80FB91F3C932F5FEE
:10232000EDCFE75BFB4F81819081909362078093B3
:102330006307B60187E297E00E94A72B1F5FD1CF0A
:10234000633009F098C1DA018C91813009F130F0E5
:102350008230C1F1833009F4C4C08DC1FA01F1802B
:1023600062818F2D0E94A9178091C107F81668F429
:102370009091C3078091C407E92FF82FEF0DF11D4D
:10238000EF0DF11D80818F7780830E949B1673C1B2
:10239000DA011196FC90119712966C918F2D0E9484
:1023A000A9178091C107F81680F79091C307809113
:1023B000C407E92FF82FEF0DF11DEF0DF11D8081FE
:1023C0008068E2CF8091E90882608093E908FA0191
:1023D000618141E0460F20E0CE0101960E94702A03
:1023E0008B819C819093CC078093CB078D819E81BC
:1023F000AF81B8858093CD079093CE07A093CF0788
:10240000B093D00789859A85AB85BC858093D10729
:102410009093D207A093D307B093D4078D85809370
:10242000D5078E858093D6078F8598899093D80796
:102430008093D70789898093D9078A899B8990934C
:10244000DB078093DA078C899D899093DD07809361
:10245000DC078E898093DE078F89988D9093E00743
:102460008093DF07898D9A8D9093E2078093E1072F
:102470008B8D9C8D9093E4078093E3078D8D9E8DCB
:102480009093E6078093E5079F8D8091E70790FB87
:1024900080F99695917090FB81F98093E70786E625
:1024A00091E09A838983CE0101960E94502B8091FE
:1024B000C7079091C807009719F00E94A1150AC09C
:1024C00040E855E260E070E08091C5079091C60752
:1024D0000E94D61464E670E080E090E00E94E61E60
:1024E000CAC0DA0111968C91882311F0815001C085
:1024F0008FEF0E946E17BFC0613019F410928B03EA
:10250000BAC0623009F0B7C08091E9088061809359
:10251000E908FA01608141E0460F20E0CE01019612
:102520000E94702A8B819C819093A5078093A407B9
:102530008D819E81AF81B8858093A6079093A70770
:10254000A093A807B093A90789859A85AB85BC8518
:102550008093AA079093AB07A093AC07B093AD0705
:102560008D858093AE078E858093AF078F85988980
:102570009093B1078093B00789898093B2078A89C5
:102580009B899093B4078093B3078C899D8990931E
:10259000B6078093B5078E898093B7078F89988D8A
:1025A0009093B9078093B807898D9A8D9093BB0754
:1025B0008093BA078B8D9C8D9093BD078093BC0749
:1025C0008D8D9E8D9093BF078093BE079F8D8091C8
:1025D000C00790FB80F99695917090FB81F98093EC
:1025E000C00786E691E09A838983CE0101960E9416
:1025F000502B0E946216D80111968C9180938A0309
:1026000081E080938B0337C08F2D0E94FB0A7BCB28
:1026100083E00E94BF1788E00E94BF17C4CB011758
:1026200040F57E2C7694902F012F192FF82E612CD7
:102630009FEF011708F44DCE611003C06F2D812F5D
:1026400002C0612F8F2D98A30E94061898A17B18B5
:1026500077FE02C0F90E7E0C1F5FEBCF011748F426
:102660007E2C7694902F012F192FF82E612C91E05B
:10267000E0CF612C0ACEA0960FB6F894DEBF0FBE55
:10268000CDBFDF91CF911F910F91FF90EF90DF9021
:10269000CF90BF90AF909F908F907F906F90089554
:1026A0009091C1078917F0F490E0880F991FE0918D
:1026B000C307F091C407E80FF91F20812078208319
:1026C000E091C307F091C407E80FF91F6F772081ED
:1026D000622B60832091C3073091C407F901E80F92
:1026E000F91F41830895EF92FF920F931F93CF93A9
:1026F000DF93D82F062FC42F142FF82EF40EEE24BC
:10270000EA948F2D811B1830A8F060912D077091ED
:102710002E07809347070093480710924A07E092DC
:10272000490727E437E04BE38BE297E00E941B2048
:102730001850E7CF8C2F887FD80F4C2F477019F196
:1027400097E0492760912D0770912E07D093470796
:102750000093480710924A074F5F47708FEF90E051
:1027600001C0880F4A95EAF78093490727E437E0CC
:102770004BE38BE297E0DF91CF911F910F91FF9098
:10278000EF900C941B20DF91CF911F910F91FF9040
:10279000EF900895DF92EF92FF920F931F93CF93E4
:1027A000DF93082FD62FC42F142FF62EF40EEE240D
:1027B000E394DD24DA948F2D811B1830A8F060910A
:1027C0002D0770912E070093470780934807E092EA
:1027D0004A07D092490727E437E04BE38BE297E0C2
:1027E0000E941B201850E7CF8C2F887FD80F4C2FCA
:1027F000477029F197E0492760912D0770912E07C6
:1028000000934707D093480781E080934A074F5FC2
:1028100047708FEF90E001C0880F4A95EAF78093E8
:10282000490727E437E04BE38BE297E0DF91CF9154
:102830001F910F91FF90EF90DF900C941B20DF9180
:10284000CF911F910F91FF90EF90DF900895EF923D
:10285000FF920F931F93CF93DF93C82F809152065F
:10286000909153060097C9F17A018B01DC01ED913B
:10287000FC910190F081E02D60EF09958091520666
:1028800090915306DC01ED91FC910190F081E02DD7
:102890006C2F0995E7010E0D1F1DC017D10759F0C8
:1028A00020E030E0AE0161E070E082E596E00E9459
:1028B00070222196F2CF8091520690915306DC014E
:1028C000ED91FC910190F081E02D67EFDF91CF91C8
:1028D0001F910F91FF90EF900994DF91CF911F917D
:1028E0000F91FF90EF900895FC0101900020E9F70F
:1028F0003197BF01681B790BAC0181E70C94271459
:10290000682F86EF96E00C9482210F931F93CF934C
:10291000DF938C01C7E2D7E0EDA9FEA982E009951B
:10292000EDA9FEA981E0099520E030E044E1B8017D
:102930008BE297E00E941B202EE537E047E1B801CB
:102940008BE297E00E941B20EDA9FEA980E0DF91B9
:10295000CF911F910F910994CF93DF93FC01A08138
:10296000B181109701F1EC01ED91FC91119701906B
:10297000F081E02D69EFCD01099588819981DC0115
:10298000ED91FC910190F081E02D62E00995888144
:102990009981DC01ED91FC910190F081E02D65E0E1
:1029A000DF91CF910994DF91CF910895CF92DF927B
:1029B000EF92FF920F931F93CF93DF93EC016A0185
:1029C0007B01E889F98982E080834115514E6105D8
:1029D0007105B1F060E079E08DE390E0A701960128
:1029E0000E94053D89019A0101501109210931090F
:1029F0003695279517950795980101151041A8F070
:102A0000E889F989108260E874E88EE190E0A70116
:102A100096010E94053DDA01C9010197A109B1099A
:102A2000B695A795979587959C01EC85FD85308394
:102A3000EE85FF852083188EEC89FD8986E08083F2
:102A4000EA89FB89808180618083EA89FB898081B2
:102A500088608083EA89FB89808180688083EA8935
:102A6000FB8980818F7D8083DF91CF911F910F91B2
:102A7000FF90EF90DF90CF900895EF92FF920F9329
:102A80001F93CF93DF93EC01E62EF42E62E872E001
:102A90000E94D3408C016FE270E0CE010E94C840DA
:102AA000009739F46CE570E0CE010E94C8400097B1
:102AB00011F0EC0121960115110549F4FE01019078
:102AC0000020E9F7EC1BEF5FE093920605C00C1BBA
:102AD0001D0B0E5F009392068091930690919406D1
:102AE0000E9415400091920610E0C80101960E94D4
:102AF000803F9093940680939306FC01E00FF11FB2
:102B00001082FC01E082F182A80142505109BE010D
:102B10000296DF91CF911F910F91FF90EF900C944F
:102B2000B94080918F0787FD08C061E00E94A11B1A
:102B300060E080918F070E94EA1A81E080938A0703
:102B40000895FC01138E128E118E108E178A168A2C
:102B50008DE991E0958F848F8485803208F0AFC035
:102B60002DEB30E0378B268B2BE931E0318F208F36
:102B70002CE231E0338F228F909168008430C8F0CE
:102B80002CEF280F243088F028EF280F223088F00F
:102B900026EF280F243048F022EF280F283038F095
:102BA0008651823030F081E005C082E003C084E0CD
:102BB00001C088E0892B809368009485943008F1E7
:102BC0008CEF890F8430B8F088EF890F8230C8F01D
:102BD00086EF890F843078F082EF890F883070F0AB
:102BE0008AEE890F823068F088EE890F883060F4B1
:102BF0002BE630E00BC02CE630E008C02DE630E0DC
:102C000005C023E730E002C020E030E0348B238BA6
:102C1000992309F440C0913009F44BC0923009F473
:102C200046C0933009F441C09430A9F1953009F4BD
:102C300040C09630E1F19730C1F1983081F1993080
:102C400081F19A3081F19B3061F19C3041F183EF49
:102C5000890F823010F19F3011F1903111F19131D3
:102C600011F1923111F1933111F1943111F195314A
:102C700091F09631C1F089EE890F823070F0993170
:102C800071F09A3171F09B3171F09C3171F09D318E
:102C900071F09E3171F091E00DC090E80BC090E4AE
:102CA00009C090E207C090E105C098E003C094E03D
:102CB00001C092E0958B848D958D0197F1F7CF013E
:102CC0000C94662B80919E0790919F07009751F17D
:102CD00040E855E260E070E00E94D61462E370E0E4
:102CE00080E090E00E94E61E67E872E080919E0717
:102CF00090919F070E94A72B62E370E080E090E034
:102D00000E94E61E40E051EE60E070E080919E0778
:102D100090919F070E94D61462E370E080E090E0FB
:102D20000C94E61E8091A0079091A107009711F0E6
:102D30000C94A11508951F93CF93DF9300D0CDB7C6
:102D4000DEB71091C1078091C5079091C607112386
:102D500009F486C05091C3074091C407252F342F32
:102D6000210F311D210F311DF90132972081298357
:102D700021812A83009769F16AE770E00E94692A3D
:102D80006BE770E08091C5079091C6070E94692AA1
:102D90008091C5079091C607DC01ED91FC910190EF
:102DA000F081E02D62E009958091C5079091C607FA
:102DB000DC01ED91FC910280F381E02D42E050E0D6
:102DC000BE016F5F7F4F0995A091C507B091C607FF
:102DD00038C08091C7079091C807DC01ED91FC9144
:102DE0000190F081E02D6AE709958091C7079091E5
:102DF000C807DC01ED91FC910190F081E02D6BE7BB
:102E000009958091C7079091C807DC01ED91FC916D
:102E10000190F081E02D62E009958091C7079091C3
:102E2000C807DC01ED91FC910280F381E02D42E0C6
:102E300050E0BE016F5F7F4F0995A091C707B09129
:102E4000C807ED91FC91119769819A81692792E0F9
:102E500069270190F081E02DCD010995115073CFC4
:102E6000009789F06AE770E00E94692A6CE770E0D9
:102E70008091C5079091C6070E94692A8091C50775
:102E80009091C6071CC08091C7079091C807DC01CC
:102E9000ED91FC910190F081E02D6AE70995809118
:102EA000C7079091C807DC01ED91FC910190F0817A
:102EB000E02D6CE709958091C7079091C807DC0168
:102EC000ED91FC910190F081E02D6091C107099591
:102ED0000F900F90DF91CF911F910895CF93DF93C3
:102EE0008F3FF1F4C0E0D0E09091C107292F30E08E
:102EF000C217D30754F58C2FC91760F4E091C307AC
:102F0000F091C4079E01220F331FE20FF31F90813F
:102F10009F77908342E360E00E9450132196E4CFB4
:102F20009091C107891768F42091C3079091C40755
:102F3000E22FF92FE80FF11DE80FF11D90819F7727
:102F4000908342E360E00E945013DF91CF910C9494
:102F50009B166B3098F49091C207911105C0E62F33
:102F6000F0E0EE5DFE4F06C0913041F4E62FF0E058
:102F7000E85EFE4F4FEF60810C9450130895A091CE
:102F80009006B0919106ED91FC9111970190F0811E
:102F9000E02D682FCD0109940F931F93CF93E091FB
:102FA0003907F0913A07309719F08BE297E00995CD
:102FB00000912D0710912E07E0915C07F0915D07BD
:102FC00082E00995E0915C07F0915D0781E0099549
:102FD00020E030E045E1B8018BE297E00E941B2041
:102FE000C82F882341F02EE537E047E1B8018BE296
:102FF00097E00E941B20E0915C07F0915D0780E064
:1030000009958C2FCF911F910F910895962FE7E28C
:10301000F7E06681778180A391A327E437E042E35C
:103020008BE297E00C941B20BF92CF92DF92EF923D
:10303000FF920F931F93CF93DF93D82F162FC42F98
:10304000022FB22EB61AD42ED80E6B2D8D2D0E94C3
:103050000618C02ECD1AE12EEC0E6C2D8E2D0E947E
:103060000618FC2EFD1A6B2D8F2D0E940618C11B11
:103070006C2D8C2F0E940618100F612F8D2D0E9431
:103080000618D00F6D2F8E2D0E940618612F8F2DE0
:103090000E9406186D2F8C2FDF91CF911F910F91F9
:1030A000FF90EF90DF90CF90BF900C940618EF92B6
:1030B000FF920F931F93CF93DF93F82EE62EC42F2A
:1030C000D1E0D41B042F0195000F262F482F6C2F21
:1030D00080E00E94141810E01C1788F4D7FD03C08C
:1030E000C1500E5FD00F1F5F912F990F9F5FD90FB7
:1030F0002E2D4F2D6C2F812F0E941418EDCFDF91B4
:10310000CF911F910F91FF90EF900895FF920F9331
:103110001F93CF93DF93182FC62FF42ED22F022F99
:10312000242F462F682F8BE297E00E94472A88239E
:10313000E9F04F2D6C2F812F0E9473134D2F6C2FB0
:10314000812F0E94CA138FEF8F0D4D2F6C2F810F8F
:103150000E94CA13D1506D2F6C0F4F2D812FDF911C
:10316000CF911F910F91FF900C947313DF91CF912A
:103170001F910F91FF90089580912F079091300734
:103180008459904009F445C084E990E09093300759
:1031900080932F0780914207811108C0E9E9F0E090
:1031A000E491E0934307E0EAF0E011C0813041F49C
:1031B000E3EAF0E0E491E0934307E4EAF0E007C0DB
:1031C000E1EAF0E0E491E0934307E2EAF0E0E49121
:1031D000E093440780914307082E000C990B20913F
:1031E0004407821B910927FD9395209145072034C0
:1031F00041F0829FC001112426E0969587952A957B
:10320000E1F78093460785E69AE190934107809322
:1032100040070895CF92DF92EF92FF920F931F9392
:10322000CF93DF936C017A018B01C0E0D0E0CE1523
:10323000DF0589F0D8016D918D01D601ED91FC91EA
:103240000190F081E02DC6010995892B11F47E01D2
:1032500002C02196ECCFC701DF91CF911F910F9152
:10326000FF90EF90DF90CF900895FC01538D448D37
:10327000252F30E0842F90E0821B930B541710F021
:10328000CF96089501970895FC01918D828D98172E
:1032900061F0828DDF01A80FB11D5D968C91928D3A
:1032A0009F5F9F73928F90E008958FEF9FEF089537
:1032B000FC01918D828D981731F0828DE80FF11D00
:1032C000858D90E008958FEF9FEF0895FC01918D1B
:1032D000228D892F90E0805C9F4F821B91098F7314
:1032E0009927089585E795E00E94661921E0892BCA
:1032F00009F420E0822F0895FC01848DDF01A80FDE
:10330000B11DA35ABF4F2C91848D90E001968F730D
:103310009927848FA689B7892C93A089B1898C912C
:1033200080648C93938D848D981306C00288F389F2
:10333000E02D80818F7D80830895EF92FF920F931F
:103340001F93CF93DF93EC0181E0888F9B8D8C8D51
:10335000981305C0E889F989808185FD24C0F62E7F
:103360000B8D10E00F5F1F4F0F731127E02E8C8D18
:10337000E8120CC00FB607FCFACFE889F989808102
:1033800085FFF5CFCE010E947C19F1CF8B8DFE0118
:10339000E80FF11DE35AFF4FF0820B8FEA89FB899A
:1033A0008081806207C0EE89FF896083E889F9899E
:1033B00080818064808381E090E0DF91CF911F91D4
:1033C0000F91FF90EF900895CF93DF93EC01888DDC
:1033D0008823C9F0EA89FB89808185FD05C0A88919
:1033E000B9898C9186FD0FC00FB607FCF5CF80819F
:1033F00085FFF2CFA889B9898C9185FFEDCFCE01E9
:103400000E947C19E7CFDF91CF91089580E090E092
:10341000892B21F00E94721981110DC080E090E08B
:10342000892B71F080E090E0892B51F00E94000020
:10343000811104C008950E940000F0CF0C94000098
:103440000895833081F028F4813099F08230A1F022
:1034500008958730A9F08830B9F08430D1F4809194
:1034600080008F7D03C0809180008F7780938000E3
:10347000089584B58F7702C084B58F7D84BD08958B
:103480008091B0008F7703C08091B0008F7D8093D2
:10349000B00008950895DC011696ED91FC91179700
:1034A00012968C91481B477081E090E001C0880F14
:1034B0004A95EAF7E60FF11D3081222311F0832BA4
:1034C00002C0809583238083089580E008950E9440
:1034D000AD401F920F920FB60F9211242F933F937E
:1034E0004F935F936F937F938F939F93AF93BF930C
:1034F000EF93FF9385E795E00E947C19FF91EF9190
:10350000BF91AF919F918F917F916F915F914F91FB
:103510003F912F910F900FBE0F901F9018951F9203
:103520000F920FB60F9211242F938F939F93EF93C7
:10353000FF93E0918505F09186058081E0918B05F0
:10354000F0918C0582FD12C0908180918E058F5F75
:103550008F7320918F05821751F0E0918E05F0E076
:10356000EB58FA4F958F80938E0501C08081FF91B3
:10357000EF919F918F912F910F900FBE0F901F9001
:103580001895CF93DF93282F30E0F901EC53F34FD8
:103590008491F901E95CF34FD491F901EF59F34FAC
:1035A000C491CC2391F081110E94211AEC2FF0E0FC
:1035B000EE0FFF1FE35DF34FA591B491EC91ED2366
:1035C00081E090E021F480E002C080E090E0DF91B3
:1035D000CF9108951F93CF93DF93282F30E0F90107
:1035E000EC53F34F8491F901E95CF34FD491F90165
:1035F000EF59F34FC491CC23C9F0162F81110E94CB
:10360000211AEC2FF0E0EE0FFF1FE95AF34FA591BE
:10361000B4918FB7F894111105C09C91ED2FE095EE
:10362000E92302C0EC91ED2BEC938FBFDF91CF919A
:103630001F91089590910301981324C0E1E8FCE0E4
:10364000E4919FEF90930301E130B9F098F0E230FC
:10365000C9F4909170009D7F9093700091E09093D9
:10366000B0009091B100987F94609093B100109257
:10367000B30008C010926E0005C090916F009D7F4E
:1036800090936F0060E00C94EA1A1F920F920FB6AD
:103690000F9211242F933F934F935F936F937F93D8
:1036A0008F939F93AF93BF93EF93FF9380914504C4
:1036B00090914604A0914704B0914804892B8A2B2D
:1036C0008B2B51F180914404E0914204F09143042A
:1036D0009081892780838091450490914604A09130
:1036E0004704B0914804181619061A061B06C4F4BC
:1036F0008091450490914604A0914704B0914804FC
:103700000197A109B1098093450490934604A093C1
:103710004704B093480404C0809103010E941A1B1F
:10372000FF91EF91BF91AF919F918F917F916F9199
:103730005F914F913F912F910F900FBE0F901F906F
:103740001895CF93DF9390E0FC01E95CF34F24914F
:10375000FC01EF59F34F8491882361F190E0880FC9
:10376000991FFC01ED5DF34FC591D491FC01E95A1D
:10377000F34FA591B491611109C09FB7F894888166
:10378000209582238883EC912E230BC0623061F454
:103790009FB7F8943881822F809583238883EC919A
:1037A0002E2B2C939FBF06C08FB7F894E8812E2B49
:1037B00028838FBFDF91CF9108953F924F925F9200
:1037C0006F927F928F929F92AF92BF92CF92DF9231
:1037D000EF92FF920F931F93CF93DF9300D000D00F
:1037E000CDB7DEB790910301981721F09F3F09F004
:1037F00036C204C0E1E8FCE0349081C0809303014C
:10380000E1E8FCE0E491EF3F09F429C2E13031F155
:10381000E23009F44BC0E11171C014BC15BC94B581
:10382000926094BD95B5916095BDA82FB0E0FD0163
:10383000EF59F34FE491F0E0EE0FFF1FE95AF34F19
:10384000059114911093390400933804FD01E95C4B
:10385000F34FE491E0933704312C53C01092800071
:1038600010928100909181009860909381009091D6
:103870008100916090938100A82FB0E0FD01EF5985
:10388000F34FE491F0E0EE0FFF1FE95AF34F05917B
:1038900014911093360400933504FD01E95CF34F55
:1038A000E491E0933404332433942BC01092B0009D
:1038B0001092B1009091B00092609093B0009091FE
:1038C000B10091609093B100A82FB0E0FD01EF59D5
:1038D000F34FE491F0E0EE0FFF1FE95AF34F05912B
:1038E00014911093430400934204FD01E95CF34FEB
:1038F000E491E093440402E0302E03C03E2E37FCF6
:10390000AEC129013A018B0161E00E94A11B48016F
:10391000A12CB12C832D8D7F09F0BBC060E072E13A
:103920008AE790E0A50194010E94D33C29833A8361
:103930004B835C8369017A0121E0C21AD108E10856
:10394000F1088FEFC816D104E104F10409F008F47E
:103950004CC060E472E48FE090E0A50194010E9405
:10396000D33C69017A01E1E0CE1AD108E108F108FF
:10397000F2E03F1220C02FEFC216D104E104F1049F
:1039800009F008F46AC160E970ED83E090E0A501F8
:1039900094010E94D33C69017A0181E0C81AD108E0
:1039A000E108F108EFEFCE16D104E104F10409F0CB
:1039B000D0F583E067C0FFEFCF16D104E104F10436
:1039C000B1F0A8F068E478EE81E090E0A501940100
:1039D0000E94D33C69017A0181E0C81AD108E1084C
:1039E000F108332009F4DFC02FC181E001C082E07B
:1039F0003320A1F047C089819A81AB81BC812AE044
:103A0000B595A795979587952A95D1F76C017D0176
:103A100021E0C21AD108E108F10885E095B5987F48
:103A2000892B85BD6FC068E478EE81E090E0A50148
:103A300094010E94D33C69017A01F1E0CF1AD108C8
:103A4000E108F1082FEFC216D104E104F10409F0F6
:103A500008F4A7C064E274EF80E090E0A50194014F
:103A60000E94D33C69017A01E1E0CE1AD108E10855
:103A7000F108FFEFCF16D104E104F10411F008F0D2
:103A8000B4C085E09091B100987F892B8093B100FC
:103A900039C060E072E18AE790E0A50194010E94DC
:103AA000D33C69017A0181E0C81AD108E108F10824
:103AB000C114D104E1E0EE06F10488F068E478EE88
:103AC00081E090E0A50194010E94D33C69017A0154
:103AD000F1E0CF1AD108E108F10893E001C091E0CC
:103AE00021E032120FC080918100887F892B809362
:103AF0008100411451046104710449F42FEF3FEF38
:103B0000A9012DC0411451046104710471F0D80160
:103B1000AA0FBB1FA30192010E94F23C28EE33E0E2
:103B200040E050E00E94053D03C02FEF3FEFA901A8
:103B300081E03816A1F0E2E03E1619F131108FC095
:103B4000C7BC20933E0430933F04409340045093FD
:103B5000410480916E00826080936E0080C0D0929C
:103B60008900C092880020933A0430933B0440932C
:103B70003C0450933D0480916F00826080936F00FD
:103B80006EC0C092B3002093450430934604409326
:103B900047045093480480917000826080937000C5
:103BA0005EC084E06FCFFFEFCF16D104E104F104D3
:103BB000D1F0C8F062E17AE780E090E0A5019401DD
:103BC0000E94D33C69017A0181E0C81AD108E1085A
:103BD000F108EFEFCE16D104E104F10411F008F082
:103BE0000ACF84E01BCF83E019CF62E17AE780E05F
:103BF00090E0A50194010E94D33C69017A0181E023
:103C0000C81AD108E108F108EFEFCE16D104E1049B
:103C1000F104C1F0B8F089819A81AB81BC814AE09E
:103C2000B595A795979587954A95D1F76C017D0134
:103C300021E0C21AD108E108F108332009F4EDCEE1
:103C400087E020CF86E0D4CEFFEFCF16D104E10489
:103C5000F10409F050F684E0CBCE82E013CF0F9050
:103C60000F900F900F90DF91CF911F910F91FF90C8
:103C7000EF90DF90CF90BF90AF909F908F907F900C
:103C80006F905F904F903F9008951F93CF93DF9375
:103C9000182FEB0161E00E94A11B209711F460E056
:103CA00004C0CF3FD10539F461E0812FDF91CF917E
:103CB0001F910C94EA1AE12FF0E0EC53F34FE491DA
:103CC000E330F9F048F4E130B9F0E230A1F584B521
:103CD000806284BDC8BD34C0E730E9F0E83019F136
:103CE000E43049F580918000806280938000D09319
:103CF0008B00C0938A0024C084B5806884BDC7BD92
:103D00001FC080918000806880938000D0938900DC
:103D1000C093880015C08091B00080688093B00087
:103D2000C093B3000DC08091B00080628093B0005A
:103D3000C093B40005C0C038D1050CF0B5CFAFCFEB
:103D4000DF91CF911F910895883010F497E003C060
:103D5000883118F09FE1981B892F877080648093C9
:103D60007C0080917A00806480937A0080917A0050
:103D700086FDFCCF809178002091790090E0922B15
:103D800008953FB7F8948091300490913104A09148
:103D90003204B091330426B5A89B05C02F3F19F01B
:103DA0000196A11DB11D3FBFBA2FA92F982F8827BB
:103DB000820F911DA11DB11DBC01CD0142E0660F16
:103DC000771F881F991F4A95D1F708958F929F9268
:103DD000AF92BF92CF92DF92EF92FF926B017C0184
:103DE0000E94C11E4B015C01C114D104E104F10425
:103DF000F1F00E94C11EDC01CB0188199909AA09C2
:103E0000BB09883E9340A105B10570F321E0C21AB9
:103E1000D108E108F10888EE880E83E0981EA11C05
:103E2000B11CC114D104E104F10419F7DDCFFF90F6
:103E3000EF90DF90CF90BF90AF909F908F900895BC
:103E40002FB7F89460912C0470912D0480912E046A
:103E500090912F042FBF08951F920F920FB60F92CB
:103E600011242F933F938F939F93AF93BF93809190
:103E70002C0490912D04A0912E04B0912F04309128
:103E80002B0423E0230F2D3720F40196A11DB11D33
:103E900005C026E8230F0296A11DB11D20932B0417
:103EA00080932C0490932D04A0932E04B0932F04A0
:103EB0008091300490913104A0913204B091330488
:103EC0000196A11DB11D8093300490933104A093FD
:103ED0003204B0933304BF91AF919F918F913F9182
:103EE0002F910F900FBE0F901F9018950F931F9357
:103EF000CF93DF938C0161308FEF780784F1EB0172
:103F00006F3F710519F014F0CFEFD0E0209731F436
:103F100060E0F80180810E94EA1A0BC01C161D06A1
:103F200004F5F8018281882369F0BE0180810E9436
:103F3000451E60E0F8018181DF91CF911F910F91C3
:103F40000C94EA1AF8018381882359F161E0808199
:103F50000E94EA1A6FEF70E06C1B7D0B1AC0C1E083
:103F6000DFEFF8018281882341F0BE0161507F4F6D
:103F700080810E94451E61E0DDCFF80183818823A6
:103F800081F060E080810E94EA1A662777276C1B27
:103F90007D0BF8018181DF91CF911F910F910C94DE
:103FA000451EDF91CF911F910F910895CF93DF931D
:103FB000EC0161E088810E94A11B61E089810E947F
:103FC000A11B60E070E0CE01DF91CF910C94761FD1
:103FD000FB014181DC0112962C911297421768F087
:103FE00013962C911397241740F0608115962C910D
:103FF000621718F424810C944B1A0895FC018081F7
:104000009281980F92832181921760F494819F5F2F
:1040100094839381890F821710F08FEF820F83832F
:1040200081E0089580E00895FC0112828081815032
:10403000838314820895DB01ED91FC910994EF9242
:10404000FF920F931F93CF93DF931F92CDB7DEB7ED
:104050008C01DC011296ED90FC901397D196ED91B6
:10406000FC91D29782E0099520E030E04AE0B70168
:10407000C8010E941B20F82ED801D196ED91FC9129
:10408000D29783E00995D801D196ED91FC91D29712
:1040900080E00995FF20A1F1F801628173819E0102
:1040A0002F5F3F4F46E4C8010E941B208981D80141
:1040B0008C9312966D917C9113979E012F5F3F4FC9
:1040C00047E4C8010E941B208981F8018183628135
:1040D000738120E030E048E4C8010E941B20D80131
:1040E0001B968C931B9798012D5C3F4F12966D91F8
:1040F0007C91139747E1C8010E941B2081E001C019
:1041000080E00F90DF91CF911F910F91FF90EF9082
:1041100008950B96FC01849108950A96FC01849100
:10412000089568E00C946E2966E00C946E29FC01F9
:10413000849108950E949720882321F0823011F005
:1041400083E0089586E00895E091C202F091C302F1
:10415000309709F009940895862F642FE091C002EA
:10416000F091C102309711F0A901099408950895C2
:10417000862FE091B802F091B902309711F0BA01A0
:1041800009940895862FE091BA02F091BB0230970E
:1041900011F0BA0109940895862FE091B402F091CC
:1041A000B502309711F0BA0109940895862FE09175
:1041B000B602F091B702309711F0BA010994089550
:1041C000862FE091BC02F091BD02309711F0BA0148
:1041D00009940895862FE091BE02F091BF023097B6
:1041E00011F0BA010994089585ED8093BC00809187
:1041F000BC0084FDFCCF1092BB08089540910A05D5
:10420000262F30E0240F311D21323105DCF42091BE
:10421000BB082430C9F4FC0180E090E0861758F414
:1042200030910A052191DC01A851BB4FA30FB11DAC
:104230002C930196F3CF80910A05680F60930A05CD
:1042400080E0089581E0089582E008950895E09166
:10425000E6048091E504E81730F4F0E0EB53FB4FFF
:10426000808190E008958FEF9FEF08959091E6048C
:104270008091E504981750F4E92FF0E0EB53FB4FE1
:10428000208130E09F5F9093E60402C02FEF3FEF64
:10429000C90108958091E50490E02091E604821B15
:1042A00091090895CF92DF92EF92FF920F931F939F
:1042B000CF93DF937C01262F972F8A018091BC0832
:1042C000882391F0C62FD72F6E01C40ED51ECC15B2
:1042D000DD0571F06991D701ED91FC910190F081BC
:1042E000E02DC7010995F3CF642F822F0E94FE2095
:1042F000C801DF91CF911F910F91FF90EF90DF9058
:10430000CF900895CF93DF931F92CDB7DEB7698327
:104310002091BC082223D1F02091DF08203240F008
:1043200021E030E0FC013383228380E090E015C07F
:104330008091BD08E82FF0E0E254F74F9981908317
:104340008F5F8093BD088093DF0805C061E0CE01D8
:1043500001960E94FE2081E090E00F90DF91CF91C6
:104360000895009721F0805C9F4F0C94AC14089541
:104370001F920F920FB60F9211242F933F934F93DA
:104380005F936F937F938F939F93AF93BF93EF93BD
:10439000FF9381EA8093B2008091ED020E94C11ADE
:1043A0002091EF023091F0022F5F3F4F3093F002E7
:1043B0002093EF02909189039C3418F095E090933C
:1043C000EE029091EE029330B9F018F4923039F089
:1043D00056C0943051F1953009F44BC050C0811152
:1043E0004EC08091EF029091F0028436910508F45E
:1043F00042C0109289031BC0813009F040C0E09197
:1044000089038E0F80938903F0E08091EF029091F1
:10441000F002EE0FFF1FEF50FD4F9183808310924B
:10442000F0021092EF0284E021C0811117C0E091E8
:10443000890381E08E0F80938903F0E08091EF0281
:104440009091F002EE0FFF1FEF50FD4F918380839C
:104450001092F0021092EF0283E008C08091EF0208
:104460009091F0028536910550F085E08093EE0240
:1044700006C0811104C01092F0021092EF02FF9169
:10448000EF91BF91AF919F918F917F916F915F91CC
:104490004F913F912F910F900FBE0F901F90189545
:1044A0001092B000E1EBF0E080818B7F808380810F
:1044B0008260808380818E7F8083E0E7F0E080816E
:1044C0008160808381EA8093B2007894EDEEF2E01F
:1044D00082E0818310928903808160E00C94A11BAB
:1044E0002F923F925F926F927F928F929F92AF92A4
:1044F000BF92CF92DF92EF92FF920F931F93CF93D1
:10450000DF937C013901DA015C90232B19F46624D6
:104510006A94762C8A011A01260E371EC0E0D0E07C
:10452000812C912C87E0C82ED12C0215130509F49B
:1045300044C08614970408F068C05801F7018081D0
:104540009181FC01A081B181F80121918F01E22FBD
:104550000C2E01C0EE0F0A94EAF7652D6E2B6F77D3
:10456000ED91FC9109958FEF881A980AD5016C910D
:1045700070E0C6018C1B9D0B02C0759567958A95EE
:10458000E2F7562E2196C730D10578F286149704AB
:1045900061F2F70180819181DC01ED91FC91652D43
:1045A0006F770190F081E02D0995BFEF8B1A9B0A80
:1045B000551C5524551C2797E6CF209731F18614BA
:1045C000970418F5F70180819181DC01ED91FC9150
:1045D00061E070E001C0660FCA95EAF7615065219D
:1045E0000190F081E02DDF91CF911F910F91FF900D
:1045F000EF90DF90CF90BF90AF909F908F907F9083
:104600006F905F903F902F900994DF91CF911F9111
:104610000F91FF90EF90DF90CF90BF90AF909F9061
:104620008F907F906F905F903F902F900895DF92D2
:10463000EF92FF920F931F93CF93DF93FC01E0580B
:10464000FF4FD080DD2009F45CC0319600811181DC
:10465000D8011196FC901197EC90EC01C05CDF4FF3
:1046600088819981009709F44CC0DC01ED91FC919F
:104670000190F081E02D60EF099588819981DC013E
:10468000ED91FC910190F081E02D69E70995888119
:104690009981DC01ED91FC910190F081E02D6E2D6E
:1046A000099588819981DC01ED91FC910190F0815F
:1046B000E02D6F2D09957801B2E0EB0EF11C0D0D88
:1046C000111DE016F10661F020E030E0A70161E085
:1046D00070E0CE010E947022EFEFEE1AFE0AF1CFD9
:1046E00088819981DC01ED91FC910190F081E02DB0
:1046F00067EFDF91CF911F910F91FF90EF90DF90C7
:104700000994DF91CF911F910F91FF90EF90DF906F
:104710000895009711F00C94172308951F920F929B
:104720000FB60F9211242F933F934F935F936F9384
:104730007F938F939F93AF93BF93EF93FF9380915A
:10474000B900887F803609F49CC068F5883209F486
:104750005BC090F4803109F454C038F4882309F424
:10476000F6C0883009F44DC0F6C0883109F44CC059
:10477000803209F45DC0EFC0803409F468C048F4A9
:10478000803309F455C0883309F0E5C08093B90837
:10479000D8C0803509F44FC0883509F45DC088342D
:1047A00009F0D9C0D6C0883909F4C7C0A8F4883741
:1047B00009F467C038F4883609F463C0803709F417
:1047C00060C0C9C0883809F4B8C0803909F45FC036
:1047D000803809F0C0C05BC0803B09F486C038F463
:1047E000803A09F466C0883A09F47FC0B4C0803CBE
:1047F00009F4A7C0883C09F4A4C0883B09F48AC026
:10480000AAC08091960810C09091B8088091B7080E
:10481000981770F5E091B80881E08E0F8093B80882
:10482000F0E0E956F74F80818093BB0085EC86C0AD
:104830008093B9088EC0E091B80881E08E0F809314
:10484000B8088091BB00F0E0E956F74F8083909163
:10485000B8088091B7086EC0E091B80881E08E0F6B
:104860008093B8088091BB00F0E0E956F74F808351
:104870008091BA0881116DC081E08093950884EA27
:1048800061C083E08093BB0810922E05CFCF80914A
:104890002E05803208F051C0E0912E0581E08E0F88
:1048A00080932E058091BB00F0E0E25FFA4F808399
:1048B000BDCF85EC8093BC001092BB0880912E0583
:1048C000803230F4E0912E05F0E0E25FFA4F108282
:1048D00060912E0570E0E0910C05F0910D058EE0E1
:1048E00095E0099510922E0536C084E08093BB08B0
:1048F00010920B0510920A05E0910805F091090548
:10490000099580910A05811105C081E080930A050F
:104910001092E804E0910B0581E08E0F80930B0567
:10492000F0E0E851FB4F80818093BB0090910B0534
:1049300080910A05981708F479CF85E88093BC0028
:104940000AC085EC8093BC001092BB0804C0109292
:10495000B9080E94F420FF91EF91BF91AF919F9110
:104960008F917F916F915F914F913F912F910F9018
:104970000FBE0F901F9018951092BB0881E0809396
:10498000BA081092950861E084E10E94EA1A61E099
:1049900085E10E94EA1AE9EBF0E080818E7F808356
:1049A00080818D7F808388E48093B80085E4809344
:1049B000BC0008951F93CF93DF93EC01162F8981DC
:1049C000882331F08E8187FD03C060E00E94A11B27
:1049D0001E838981882341F061E0812F0E94A11B01
:1049E00060E0812F0E94EA1A812F90E0FC01EF59CC
:1049F000F34FE491F0E0EE0FFF1FE95AF34F2591DA
:104A000034913B8B2A8BFC01E95CF34FE491EC8BF6
:104A1000DF91CF911F910895EF92FF920F931F9313
:104A2000CF93DF93EC017B0188859985009711F086
:104A30000E9415409D858A85981719F084E090E0C2
:104A400002C083E090E08E9D80018F9D100D9E9DA1
:104A5000100D11241D830C83C8010E94803F99878B
:104A60008887009741F0A80160E070E00E94B240A2
:104A7000FB82EA8204C01D821C821B821A82DF91A3
:104A8000CF911F910F91FF90EF900895CF93DF93F7
:104A9000EC0188859985009711F00E9415408E8160
:104AA00087FD05C060E0DF91CF910C94A11BDF91E1
:104AB000CF910895DF92EF92FF920F931F93CF93C0
:104AC000DF93EC01D62E7A01890188818C3008F0C1
:104AD0006AC061E08D2D0E94A11B8881E82FF0E063
:104AE0009F01220F331FE20FF31FEE5FF84F9D2D42
:104AF0009F732081207CD22ED92AD08260E272E07E
:104B0000AB014E195F0957FF02C04D5F5F4F5595CE
:104B1000479555954795498340E659E09A01201BF2
:104B2000310B37FF02C02D5F3F4F359527953595E7
:104B300027952A836CE00E94463F9CE0899FB00144
:104B4000112440E050E09A01260F371FF901EE0FC3
:104B5000FF1F2E0F3F1FF901EE5FF84F908196FD6A
:104B600016C04F5F5F4F4C30510569F781110FC080
:104B70001092800082E08093810010928500109254
:104B80008400B19A80916F00826080936F00E88109
:104B9000F0E0CF01880F991FE80FF91FEE5FF84F83
:104BA0008081806480838881DF91CF911F910F91F4
:104BB000FF90EF90DF9008951F920F920FB60F9223
:104BC00011242F933F934F935F936F937F938F9312
:104BD0009F93AF93BF93EF93FF938091E70487FF79
:104BE00005C010928500109284001BC02091E7043C
:104BF000022E000C330B8091260790E0281739070E
:104C000084F48091E704082E000C990BFC01EE0F50
:104C1000FF1F8E0F9F1FFC01EE5FF84F808186FD06
:104C200015C08091E7048F5F8093E7042091E7042B
:104C3000022E000C330B8091260790E028173907CD
:104C4000C4F48091E7048C3064F113C08091E704D0
:104C5000082E000C990BFC01EE0FFF1F8E0F9F1FFB
:104C6000FC01EE5FF84F808160E08F730E94EA1ACA
:104C7000D8CF8091840090918500049680349C491F
:104C800018F480E49CE905C080918400909185002F
:104C9000049690938900809388008FEF8093E704B7
:104CA0003BC020918400309185008091E704082E5C
:104CB000000C990BFC01EE0FFF1F8E0F9F1FFC01D4
:104CC000EE5FF84F81819281820F931F909389004C
:104CD000809388008091E704082E000C990BFC015A
:104CE000EE0FFF1F8E0F9F1FFC01EE5FF84F8081BC
:104CF00086FF12C08091E704082E000C990BFC017E
:104D0000EE0FFF1F8E0F9F1FFC01EE5FF84F80819B
:104D100061E08F730E94EA1AFF91EF91BF91AF910A
:104D20009F918F917F916F915F914F913F912F91C3
:104D30000F900FBE0F901F9018958091C404882388
:104D400081F080E090E0FC01EC58FB4F1082118272
:104D5000128213821482059680359105A1F7109274
:104D6000C404809173048823A1F049E454E023E053
:104D700080E090E0FA01E80FF91F108201968E3072
:104D80009105C1F72150425F5F4F2111F1CF109281
:104D900073040E94BC1880916407811107C081E0F0
:104DA000809364078BE297E00E941F2080912D077B
:104DB00090912E070E94851410926207109263074B
:104DC00063EB72E087E297E00E94A72B0E94CC176A
:104DD0008111F2CF08952EE93FE0009729F0F90103
:104DE0003197F1F70197F9CF089510927405109259
:104DF00073050895809374081092B90088E4809335
:104E0000B8000C94F526DB011496ED91FC911597F2
:104E100020E030E065E00994CF92DF92EF92FF92BC
:104E20000F931F93CF93DF938C017B016A0180E086
:104E3000F601C49181110BC0CF3F09F457C04C2F2C
:104E4000B701C8010E94032781114EC054C0CF3F53
:104E500011F44FEFF5CFCE3F09F44FC0C03F08F03B
:104E600043C0C03E58F04C2F4F70D7011496ED91BF
:104E7000FC91159720E030E062E00CC0C03D68F086
:104E80004C2F4F70D7011496ED91FC91159720E0AF
:104E900030E063E0C801099527C0C03CF8F0D701B5
:104EA0001496ED91FC91159720E030E040E064E02D
:104EB000C8010995C295C07FCE5FD0E0CE010E94A7
:104EC000EB26D7011496ED91FC91159720E030E088
:104ED00041E064E0C8010995CE0104C0C7FD04C0EB
:104EE0008C2F90E00E94EB2680E001C081E0BFEFB4
:104EF000CB1ADB0A9DCF80E001C081E0DF91CF912A
:104F00001F910F91FF90EF90DF90CF900895209127
:104F10007105309172052817390771F49091700569
:104F200080916F05981741F0E0917005F0E0E15D28
:104F3000FA4F808190E008958FEF9FEF08950895D4
:104F40001F93CF93DF93DC015C962D913C915D978D
:104F50002115310539F481E090E013969C938E93EE
:104F600012973DC05196ED91FC91529750969C91AD
:104F70005097892F80951FB75E964C915E9741FBA5
:104F8000772770F941FD6095F8944081772311F0FF
:104F9000492B01C048234083E9012197F1F748E0FC
:104FA000508160FF02C0592B01C058235083E90192
:104FB0002197F1F76695415099F7772321F0908179
:104FC0008923808303C08081982B90831FBF5C96C8
:104FD0008D919C915D970197F1F721E030E0C90137
:104FE000DF91CF911F910895209171053091720545
:104FF0002817390771F480916F052091700590E0B2
:10500000805C9F4F821B910960E470E00E94523FD8
:10501000089580E090E00895209171053091720527
:1050200028173907B9F49091700580916F0598178A
:1050300089F0E0917005F0E0E15DFA4F8081209108
:10504000700530E02F5F3F4F2F733327209370059B
:1050500090E008958FEF9FEF08958F929F92AF9207
:10506000BF92CF92DF92FF920F931F93CF93DF9364
:1050700000D0CDB7DEB76C018B01F42E490120E1E1
:10508000421709F456C02417A0F03AE043135BC05E
:10509000DB011496ED91FC91159720E030E042E0A1
:1050A00061E009954EE95CE0B801C6010E940C2759
:1050B0004AC081E1481709F43FC0A5E14A1343C043
:1050C000FB01A280B38046E95CE0C6010E940C2788
:1050D000D50114964C91406BB801C6010E9403277C
:1050E000D8011496ED91FC91159720E030E041E055
:1050F00062E0C6010995F50126813781D801149631
:10510000ED91FC911597D50115964C9166E0C6017D
:105110000995811102C080E0D3C0D8011496ED91A9
:10512000FC91159720E030E040E063E0C60109956E
:105130000AC04DE85CE002C042E85CE0B801C6018C
:105140000E940C27BCC0F80102811381F2E3FF1614
:1051500009F479C0FF15B8F025E1F21609F480C012
:1051600037E1F31609F492C084E1F812A8C0D8011F
:105170001696ED91FC91179715968C919F01280F2B
:10518000311DC90165C0A6E4FA1609F48FC0B7E461
:10519000FB1609F48FC0EBE3FE1291C0D401119607
:1051A0008C91119713969C91913029F0933031F4A2
:1051B000482F885004C048E0480F01C0482F21E024
:1051C000F8013381381708F420E031E0D801129655
:1051D0005C91451708F430E051E0481708F050E0C2
:1051E000822F852B382319F4252309F468C0F40194
:1051F000F280913051F030F0923049F0933051F418
:105200002FEF09C020E031E007C021E004C020E01A
:105210003FEF02C020E030E0F7FE08C0B401C80153
:105220002A8339830E94E81F39812A81D4018C9115
:10523000830F8C9311968C911197820F11968C93FA
:10524000FF0C51F73CC0B401C8010E94E81F37C0F1
:105250001192E817F907E1F7C8010E9414202FC046
:10526000C8010E94FE1F882309F455CFD801169665
:10527000ED91FC91179715968C919F01280F311D88
:10528000C9011192E817F907E1F719C0D4011C927E
:10529000F801828111968C93119785818150129625
:1052A0008C931297838113968C9309C0D80115961D
:1052B0008C9103C0D80111968C91F401808381E018
:1052C0000F900F90DF91CF911F910F91FF90DF9082
:1052D000CF90BF90AF909F908F900895FC01E60F04
:1052E000F11D849190E0982F88273196E4918E0FDC
:1052F000911D089590917405911104C080937405D7
:105300006093730508951F93CF93DF9300D0CDB7BB
:10531000DEB720ED37E03A8329839091BC009823D3
:1053200099F429813A81232B51F480917408182F24
:10533000127081FD09C081E00E947A2906C029818E
:105340003A8121503109E7CF11E0812F0F900F9062
:10535000DF91CF911F91089584E98093BC0064E0B0
:1053600080E10C948329CF938093BB0084E88093E1
:10537000BC0063E080E80E948329C82F882389F05D
:1053800080917408C82FC27081FD0AC08091B90055
:10539000887F883229F063E082E00E947A2901C088
:1053A000C1E08C2FCF910895CF93DF93FC0123A50B
:1053B000222379F0EC010E94BC30811102C080E010
:1053C00009C08EA1811180E40E94B3298823B9F31A
:1053D0001BA681E0DF91CF9108950F931F93CF9388
:1053E000C42F89016330C1F050F4613081F0623024
:1053F00009F048C0FC0146A321E023A743C0663062
:1054000011F1673079F1653009F03CC00EC0FC0144
:1054100086A50E94FA2636C0FC0116A221E023A729
:10542000411130C00E94AC292DC00E94D4298111A5
:1054300004C00E94AC2980E026C08C2F0E94B329B2
:10544000811120C0F6CF0E94D429882391F3CC2368
:10545000C9F0F80181918F010E94B329882349F393
:10546000C150F5CF0E94D429882319F3CC2351F0E1
:10547000F80184910E94B329882329F00F5F1F4F00
:10548000C150F4CF81E0CF911F910F9108950F93F8
:10549000FC010150040F84A996A9941718F008176D
:1054A00028F402C0081750F0041740F42150260FCA
:1054B00083A995A9961720F4281720F480E007C047
:1054C000281720F481E0261710F0F8CF81E00F9123
:1054D0000895DC01ED91FC910190F081E02D09949B
:1054E0000F931F93CF93DF93EC01162F042F1B8292
:1054F0001A8288EE93E0A0E0B0E08C839D83AE83B7
:10550000BF8386E691E0998388831F8A1E8A198E5D
:10551000188E1B8E1A8E1D8E1C8E6E8D6E7F20FB3C
:1055200061F96E8F6695617081E06827842F0E9413
:10553000EA1A61E0802F0E94A11B402F50E0FA017F
:10554000E95CF34FE491E88BFA01EF59F34FE491F2
:10555000F0E0EE0FFF1FE95AF34F859194919A8B7B
:10556000898B60E0812F0E94A11B8E8D81FD04C07C
:1055700061E0812F0E94EA1A1C87612F70E0FB0115
:10558000E95CF34FE491ED87FB01EF59F34FE491B0
:10559000F0E0EE0FFF1FE35DF34F859194919F873D
:1055A0008E87DF91CF911F910F9108951F920F92D7
:1055B0000FB60F9211242F933F934F935F936F93E6
:1055C0007F938F939F93AF93BF93EF93FF93E0915C
:1055D0007105F0917205309709F451C0968DA6853A
:1055E000B785858591FF04C09C91892329F447C024
:1055F0009C91892309F043C0A389B4899C91858932
:10560000809589238C93868997890197F1F7608D1E
:10561000718DA685B785558538E020E0CB010197CF
:10562000F1F7822F90E095958795282F4C9145238F
:1056300009F02068315091F7868D81FD2095809189
:105640006F0590E001968F73992730917005381798
:1056500049F0A0916F05B0E0A15DBA4F2C93809303
:105660006F0503C0868D8160868F828D938D019733
:10567000F1F7A389B4899C918589892B8C93FF913B
:10568000EF91BF91AF919F918F917F916F915F91BA
:105690004F913F912F910F900FBE0F901F90189533
:1056A000E0917105F0917205E817F90769F4A38993
:1056B000B4899C918589809589238C931092720579
:1056C0001092710581E0089580E00895CF93DF93F3
:1056D000EC018A8D9B8D892BF1F080917105909161
:1056E00072058C179D07B9F0009711F00E94502B9E
:1056F0008E8D8E7F8E8F10926F0510927005D093D5
:105700007205C0937105EB89FC8990818D89892B85
:10571000808381E001C080E0DF91CF910895CF9335
:10572000DF9300D0CDB7DEB7E62FF0E0EF57F74FAD
:1057300090819983E82FF0E0EF57F74F80818A83BB
:1057400089819A810F900F90DF91CF910895611513
:10575000710579F0FB0101900020E9F73197AF0165
:10576000461B570BDC01ED91FC910280F381E02D8B
:10577000099480E090E008951F93CF93DF9300D0C9
:10578000CDB7DEB7182F7A83698380915206909146
:105790005306009709F44EC0DC01ED91FC911031E5
:1057A000A8F46115704490F4612F606E0190F0814F
:1057B000E02D099522E030E0AE014F5F5F4F62E0DF
:1057C00070E082E596E00E94702234C00190F08182
:1057D000E02D60EF09958091520690915306DC010F
:1057E000ED91FC910190F081E02D6FE6099580919B
:1057F000520690915306DC01ED91FC910190F081ED
:10580000E02D612F099522E030E0AE014F5F5F4F40
:1058100062E070E082E596E00E947022809152067C
:1058200090915306DC01ED91FC910190F081E02D07
:1058300067EF09950F900F90DF91CF911F91089519
:105840000F931F93CF93DF93CDB7DEB729970FB692
:10585000F894DEBF0FBECDBF0E94C11E0091970716
:10586000109198072091990730919A07DC01CB019C
:10587000801B910BA20BB30B8C329140A105B1059B
:1058800058F3F89480918D0790918E079A838983BD
:10589000E0919107F0919207DF011196808189874D
:1058A00090918907E0919B07F0919C0780919D075B
:1058B000992309F42EC09081982B98879081809528
:1058C00089238F838F818C8388E08B8358856F81B8
:1058D00049853B812C8189819A81508347FD252F01
:1058E0003A952083262F39F0441F00C000006083C2
:1058F000000000C0F2CF38E04D91608300000197B6
:1059000061F7F0939C07E0939B0749873B832C83C7
:1059100038C09081982B98879081809589238F83B8
:105920008F818E8388E08D8358856F8149853D8185
:105930002E8189819A81508347FD252F00C000C0A8
:10594000208300C000C000C000C000C06083000011
:10595000262F3A9541F0441F000000C000C000C04F
:1059600000C000C0E8CF38E04D9100C0608300C0A7
:10597000019709F7F0939C07E0939B0749873D83C4
:105980002E839A83898378940E94C11E609397071F
:10599000709398078093990790939A0729960FB66A
:1059A000F894DEBF0FBECDBFDF91CF911F910F9155
:1059B0000895DC0190919007992361F0699FB001EF
:1059C0001124672F499FA0011124452F299F900181
:1059D0001124232F3091960780919307E09191072E
:1059E000F0919207381308C0CD01880F991F8A0FD4
:1059F0009B1F8E0F9F1F0BC0CD01880F991F880F13
:105A0000991F8E0F9F1FFC01E30FF11D1082309133
:105A10009307FC01E30FF11D608330919407FC01B3
:105A2000E30FF11D408330919507FC01E30FF11D59
:105A300020830895382F2091DF089091DE082132CD
:105A400008F049C08091BB088111FCCF42E040932F
:105A5000BB083093BA083FEF3093B9081092B808EA
:105A60002093B708AEEBB8E047E958E0FA013E2FC3
:105A7000341B321718F43D913193F9CF10929608E8
:105A800020919608990F922B9093960890919508E3
:105A9000913061F410929508909196089093BB0014
:105AA0009091BC0093FDF8CF95EC01C095EE9093DA
:105AB000BC009091BB089230E1F39091B9089F3FF0
:105AC00079F08091B908803241F08091B908803333
:105AD00031F084E005C081E003C082E001C083E0D2
