:100000000C9474060C949C060C949C060C949C0610
:100010000C94912E0C94912E0C94912E0C94912E64
:100020000C949C060C94AC230C949C060C94282FE6
:100030000C949C060C9402340C949C060C949C0624
:100040000C949C060C949C060C9493270C949C0690
:100050000C9402230C94DC220C949C060C949C06B9
:100060000C949C060C949C060C94FE300C949C06FC
:100070000C94B6220C9490220C949C0674169B1639
:100080006216B516BF16F616E816F616F616F6162A
:100090003617841600090F00FD0A01E803D820FF77
:1000A000FD0CFD0BFD00000009000C010B0B090409
:1000B00000808080808080800000808004030309AD
:1000C00003079090900608080901014848FC484839
:1000D000FC4848070B0B0901FF107C929050381424
:1000E00012927C10070A0A09010042A4A4481010C9
:1000F000244A4A84070A0A090100609090906062CD
:1001000094889462010303090407808080030C0C27
:100110000903FF2040408080808080804040200391
:100120000C0C0903FF80404020202020202040406C
:1001300080070707090103109254385492100707EB
:1001400007090101101010FE101010020505090426
:10015000FDC0C0404080070101090104FE02020207
:10016000090400C0C0070A0A0901000204040810BB
:100170001020404080070A0A090100384482828228
:100180008282824438070A0A090100103050901018
:1001900010101010FE070A0A0901007C8282040870
:1001A00010204080FE070A0A090100FE0204081C14
:1001B000020202827C070A0A090100040C1424448A
:1001C00084FE040404070A0A090100FE8080BCC200
:1001D000020202827C070A0A0901003C408080BCBE
:1001E000C28282827C070A0A090100FE0204040816
:1001F0000810102020070A0A0901003844824438F8
:100200004482824438070A0A0901007C828282867D
:100210007A02020478020707090400C0C000000047
:10022000C0C0020A0A0904FDC0C0000000C0C040EE
:100230004080050A0A090200081020408080402002
:100240001008070404090102FE0000FE050A0A095D
:10025000020080402010080810204080070A0A0988
:1002600001007C828202040810100010070A0A09AB
:1002700001007C82829EA2A69A80807C070A0A09DD
:100280000100102844828282FE828282070A0A09C3
:100290000100F8848284F884828284F8070A0A09BB
:1002A00001007C82808080808080827C070A0A092D
:1002B0000100F88482828282828284F8070A0A0915
:1002C0000100FE808080F880808080FE070A0A0995
:1002D0000100FE808080F88080808080070A0A0903
:1002E00001007C828080808E8282827C070A0A09DB
:1002F000010082828282FE8282828282050A0A094B
:100300000200F82020202020202020F8080A0A09D6
:1003100001001F040404040404048478070A0A0981
:10032000010082848890E0A090888482070A0A09EC
:100330000100808080808080808080FE070A0A091A
:1003400001008282C6AAAA9292828282070A0A09C0
:1003500001008282C2A2928A86828282070A0A09E8
:1003600001007C82828282828282827C070A0A0960
:100370000100FC828282FC8080808080070C0C0956
:1003800001FE7C828282828282A2927C0806070A17
:100390000A090100FC828282FC9088848282070A1A
:1003A0000A0901007C828280700C0282827C070A2A
:1003B0000A090100FE101010101010101010070A8A
:1003C0000A0901008282828282828282827C070AFA
:1003D0000A09010082828244444428282810070A1E
:1003E0000A0901008282828292929292AA44070AAA
:1003F0000A09010082824428101028448282070AD8
:100400000A09010082824428101010101010070AF7
:100410000A090100FE0204081020408080FE040C3E
:100420000C0903FFF080808080808080808080F0D5
:10043000070A0A0901008040402010100804040245
:10044000040C0C0902FFF010101010101010101006
:1004500010F007040409010610284482080101096C
:1004600000FFFF0303030903088040200707070973
:1004700001007C02027E82867A070A0A0901008056
:100480008080BCC2828282C2BC0707070901007C4F
:1004900082808080827C070A0A0901000202027AB7
:1004A00086828282867A0707070901007C8282FEA3
:1004B00080807C070A0A0901001C22222020F820E3
:1004C000202020070A0A0901FD7A84848478807C30
:1004D00082827C070A0A090100808080BCC2828275
:1004E000828282050A0A090200600000E0202020C2
:1004F0002020F8060D0D0901FD0C00001C04040469
:10050000040484848478070A0A09010080808082B8
:100510008CB0C0B08C82050A0A090200E0202020BD
:100520002020202020F8070707090100EC92929272
:10053000929282070707090100BCC28282828282EE
:100540000707070901007C82828282827C070A0AEF
:100550000901FDBCC2828282C2BC808080070A0A77
:100560000901FD7A86828282867A020202070707E3
:100570000901009C62424040404007070709010012
:100580007C82807C02827C0709090901002020FC12
:1005900020202020221C070707090100848484846E
:1005A00084847A07070709010082824444282810BE
:1005B0000707070901008282929292AA440707075F
:1005C00009010082442810284482060A0A0901FD14
:1005D00084848484848C7404847807070709010068
:1005E000FE0408102040FE050C0C0903FF384040B3
:1005F0004020C0C02040404038010C0C0904FF805E
:100600008080808080808080808080050C0C090143
:10061000FFE010101020181820101010E00703033E
:1006200009010762928CFFFFFFFFFFFFFFFFFFFF43
:10063000FFFFFFFFFFFFFFFFFFFFFFFFFFFFFFFFCA
:10064000FFFFFFFFFFFFFF00000009000C010B0B85
:1006500009040080800000808080808080800608FF
:100660000809010008789490A0A47840070A0A09B4
:1006700001001C222020F8202060A25C0706060949
:100680000103827C44447C82070A0A0901008282B9
:1006900044287C107C101010010B0B0904FF808093
:1006A000808080008080808080040B0B0902FF60C6
:1006B000908060909090601090600502020902099D
:1006C00088880809090900013C4299A5A1A5994219
:1006D0003C050707090103609070907800F807084F
:1006E00008090101122448909048241206040409C4
:1006F0000102FC040404050101090204F8080909C7
:100700000900013C42B9A5B9A9A5423C060101096D
:100710000109FC04040409030660909060070909BC
:10072000090101101010FE10101000FE0406060949
:1007300001046090106080F00406060901046090D6
:100740002010906003030309030820408007090973
:100750000901FE8282828282C6BA8080070A0A0963
:1007600001007E8A8A8A7A0A0A0A0A0A02020209B1
:100770000404C0C00403030902FD309060030606B0
:1007800009010440C0404040E0050606090104702C
:1007900088887000F807080809010190482412129F
:1007A000244890070A0A09010040C0404042E60A76
:1007B000121A06070A0A09010040C040404CF20222
:1007C0000C101E070A0A0901006090201092660AA8
:1007D000121A06070A0A09010010001010204080B2
:1007E00082827C070C0C09010040201000384482F2
:1007F00082FE828282070C0C090100040810003876
:10080000448282FE828282070C0C09010010284477
:100810000038448282FE828282070B0B090100624B
:100820009C0038448282FE828282070B0B09010001
:1008300044440038448282FE828282070B0B090105
:100840000038443828448282FE828282070A0A09DC
:1008500001006E90909090FC9090909E070D0D0975
:1008600001FD7C82808080808080827C18483007F7
:100870000C0C09010040201000FE40407840404030
:10088000FE070C0C09010004081000FE40407840EF
:100890004040FE070C0C09010010284400FE4040B7
:1008A00078404040FE070B0B090100444400FE4025
:1008B0004078404040FE050C0C09020080402000BA
:1008C000F8202020202020F8050C0C090200081038
:1008D0002000F8202020202020F8050C0C09020020
:1008E00020508800F8202020202020F8050B0B093C
:1008F0000200888800F8202020202020F8080A0A1A
:100900000900007C424141E1414141427C070B0B1F
:10091000090100629C0082C2A292928A8682070C20
:100920000C090100402010007C8282828282827C3D
:10093000070C0C090100040810007C82828282826C
:10094000827C070C0C090100102844007C82828202
:100950008282827C070B0B090100629C007C8282F0
:10096000828282827C070B0B0901004444007C8256
:1009700082828282827C0707070901018244281053
:10098000284482070C0C0901FF027C868A8A929215
:10099000A2A2C27C80070C0C09010040201000823A
:1009A0008282828282827C070C0C0901000408107A
:1009B00000828282828282827C070C0C09010010F4
:1009C000284400828282828282827C070B0B09018A
:1009D00000444400828282828282827C070C0C095D
:1009E0000100040810008282442810101010070A29
:1009F0000A0901008080FC828282FC808080060AD5
:100A00000A09010038444448D04844444458070B7C
:100A10000B090100201008007C02027E82867A0702
:100A20000B0B090100040810007C02027E82867A0A
:100A3000070B0B090100102844007C02027E82860D
:100A40007A070A0A090100324C007C02027E828683
:100A50007A070A0A0901004444007C02027E828669
:100A60007A070B0B090100182418007C02027E8211
:100A7000867A0707070901006C92127C90926E0734
:100A80000A0A0901FD7C82808080827C1848300738
:100A90000B0B090100402010007C8282FE80807CCC
:100AA000070B0B090100040810007C8282FE808085
:100AB0007C070B0B090100102844007C8282FE8019
:100AC000807C070A0A0901004444007C8282FE807F
:100AD000807C050B0B09020080402000E0202020D4
:100AE0002020F8050B0B09020010204000E0202018
:100AF000202020F8060B0B09010020508800701000
:100B0000101010107C050A0A090200909000E020E5
:100B100020202020F8070B0B090100483050087CEA
:100B200082828282827C070A0A090100629C00BCE0
:100B3000C28282828282070B0B09010040201000D2
:100B40007C82828282827C070B0B090100040810E0
:100B5000007C82828282827C070B0B0901001028B4
:100B600044007C82828282827C070A0A0901006238
:100B70009C007C82828282827C070A0A09010044EE
:100B800044007C82828282827C070909090100106C
:100B9000381000FE001038100709090901FF027C17
:100BA0008A8A92A2A27C80070B0B090100402010C8
:100BB000008484848484847A070B0B090100040870
:100BC00010008484848484847A070B0B090100104C
:100BD0002844008484848484847A070A0A090100F2
:100BE0004848008484848484847A060E0E0901FDBA
:100BF0000810200084848484848C74048478070C16
:100C00000C0901FD808080BCC28282C2BC808080D1
:100C1000060D0D0901FD48480084848484848C7489
:100C200004847800002100240027002A000000200E
:100C30000023002600290000000000000000010839
:100C4000030200090A000000000000000004070081
:100C50000000000000000001020408010204084036
:100C60002010204080804020100804020110808065
:100C70004020100804020100002200250028002B5B
:100C80000004040404020202020404020202020339
:100C90000303030303030304040101010101010130
:100CA0000102FFE0FFD1AFFF32FFD1FFFEFFE0FF07
:100CB000D1AEFFD1FFFEFFE0FFD11000FFFEFFD05D
:100CC000FFE0FFC1FFD1AED580A83FD300408D1417
:100CD0002000A1C8DA1281CFD9F1DB402EA4A6AF43
:100CE000FFD0FFFE7842724411241FBECFEFD0E147
:100CF000DEBFCDBF12E0A0E0B1E0EAEAF1E902C058
:100D000005900D92A43BB107D9F729E0A4EBB2E01E
:100D100001C01D92A53AB207E1F716E0C3E7D6E09D
:100D200004C02197FE010E944147C237D107C9F78D
:100D30000E9426380C94C8480C9400006F927F9251
:100D40008F929F92AF92BF92CF92DF92EF92FF92DB
:100D50000F931F93CF93DF93CDB7DEB7A0970FB656
:100D6000F894DEBF0FBECDBF162F5A018C3009F4A8
:100D7000ABC5C0F4853009F41DC350F4833009F4C9
:100D800078C208F0CEC2813009F494C30C94EC1000
:100D9000873009F47CC308F456C38B3009F4B8C417
:100DA0000C94EC108F3609F4A8C190F48B3609F43A
:100DB000C7C18D3609F40FC2893611F00C94EC10BE
:100DC00080EF0E949A198AE60E949A1918EE4DC285
:100DD000863771F028F4803709F432C10C94EC1096
:100DE000883709F4FCC08A3709F46FC10C94EC1001
:100DF000DA0111969C9195FF03C088EA91E06CC0DE
:100E0000FA018081833721F42091C408206205C053
:100E1000803429F42091C40820642093C40831E070
:100E200096FB222720F923279871983079F168F4EE
:100E300091110C94EC1030937D0980939F091092CE
:100E40007E091092A00902E008C0903109F43EC06A
:100E5000983109F474C00C94EC10011778F4F50182
:100E6000E00FF11D81816081F0E88F9F60191124EE
:100E70008CE995E00E94BE320E5FEFCF0E9498365B
:100E800083E191E00197F1F70C94EC10D5011296F3
:100E90004C91129713966C91163071F4B0E86B9FD9
:100EA000B0011124640F711DF50195814481F0E8B2
:100EB0009F9F4019112406C030E8639F40191124F8
:100EC0006FEF7FEF0E94A0140C94EC10E0910001F2
:100ED000E73034F088EC91E00E949D1E0C94EC10F9
:100EE000D50112969C91129713964C91163089F465
:100EF000B0E84B9FA0011124490F511DD501159653
:100F00003C91159714969C91B0E83B9F9019112441
:100F100006C0F0E84F9F901911244FEF5FEFEF5F8D
:100F2000E093000135E0E302F0011124ED56FC4F9F
:100F3000808352834183938324830C94EC1020910B
:100F4000000112162CF08FEF809300010C94EC102E
:100F500090E0622F022E000C770B35E0492F50E015
:100F60006417750774F0349FF001359FF00D11245C
:100F7000ED56FC4F4081481302C085E026C09F5FBC
:100F8000EDCF90E0FACF9830F8F4FA0131968E9FC9
:100F9000D0018F9FB00D1124AD56BC4F3C91849F62
:100FA000F001859FF00D1124ED56FC4F3083119612
:100FB0004D915C9112975283418313963C91139704
:100FC000338314963C9134839F5F492F50E064171C
:100FD0007507CCF62150209300010C94EC10DA0137
:100FE0002C9111968C91B0E88B9FC0011124820F37
:100FF000911D009721F09093B5028093B4028091E7
:10100000CA0881110C94EC1010E080EF810F82303F
:1010100028F466E070E0812F0E94CF151F5F103228
:10102000A1F781E08093CA0810927B0810927A0899
:1010300010927E091092A0090E9454320C94EC1078
:10104000653010F40C94EC10FA011081F1800281EB
:10105000D380E4808EEF810F8E3110F00C94EC1071
:10106000E12FF0E0EA53FD4F20812C30C0F430E056
:10107000F901EE0FFF1F2E0F3F1FF901E55FF94F3A
:10108000208130E0F901EE0FFF1F2E0F3F1FF90105
:10109000E855FA4F808186FF02C00C949B10F0E85F
:1010A000EF9EA00111244D0D511D20E8029FB001BB
:1010B00011246F0D711D812F0E94911564E070E065
:1010C000812F0E94CF150C94EC10623010F40C9418
:1010D000EC10DA012C9111968C91B0E88B9FC00135
:1010E0001124820F911D009711F481E090E09093FC
:1010F0000201809301010C94EC10623010F40C9406
:10110000EC10FA01618170E01230A1F08281F0E808
:101110008F9FC0011124682B792B133059F0DA010D
:1011200013968C9190E090E4899F902D882711244C
:10113000682B792BF50180810E94EE110C94EC1044
:1011400080EF0E949A198CE60E949A1957E3E52EC7
:101150005CE0F52E1EEF8AEE810F883030F482E0DD
:101160000E949A198AE00E949A19F70184918111CC
:101170000C94A0101E3130F484E00E949A198EE085
:101180000E949A1982EF810F823030F486E00E942B
:101190009A1981E00E949A198FE70E949A191F5F9D
:1011A000FFEFEF1AFF0A1E3109F47EC71E3198F6D1
:1011B00080E00E949A1981E00E949A198BE00E94B7
:1011C0009A1981E00E949A1981E00E949A1981E09F
:1011D0000E949A19C0CF662311F40C94EC10DA0126
:1011E0000C9180EF0E949A198EE60E949A19802F26
:1011F0000E949A19003208F057C710E0F801E55C28
:10120000FA4F80810E949A19000F111FF801E55AC8
:10121000FA4F7F0180818F770E949A19D7018D91B3
:101220009C919C012078232B39F0880F892F881FEF
:10123000990B8F770E949A19F801E55AFA4F80812D
:1012400091819C012227307C232B09F42DC7990F13
:10125000880B990F982F881F8F7724C78FE70E94DC
:101260009A191F5F183009F41FC71830B8F7812F7B
:10127000F6CF8091C40888608093C4086230D1F4AE
:10128000FA01608170E022E530E04181CE010196F3
:101290000E94013385E1FE013196AFE2B6E0019094
:1012A0000D928A95E1F7CE0101960E94ED320E94DF
:1012B0008A1992C7673009F08FC7DA0112966C91CC
:1012C000129711963C91119714964C91149713967E
:1012D0005C91139716962C91169715967C911597FD
:1012E0008C9190E0E0913106F09132068E179F07C5
:1012F00070F4279522272795272B47954427479554
:10130000452B679566276795632B0E944B1D80913F
:10131000370690913806892B09F45EC70E94921C0B
:101320005BC78091C40881608093C408633089F4EE
:10133000FA0180818093C3086281F0E86F9FB00159
:101340001124DA0111969C91692B20E030E0A9016B
:101350001BC06530E1F4FA0180818093C3082481C9
:10136000F0E82F9F90011124DA0113969C911397B6
:10137000292B40E050E012966C91B0E86B9FB001D1
:101380001124F5019181692B0E94442425C7613005
:1013900009F022C7DA018C910E9481238091920387
:1013A000882309F419C780919003909191030E94BA
:1013B000C02F12C7623019F5FA0180818823B1F07D
:1013C000818161E0882341F080916E070E94512362
:1013D00061E080916F0707C0809172070E945123DE
:1013E00061E0809173070E945123F6C660E070E0CF
:1013F00082E797E00E94DD2760E070E021C0643062
:1014000009F0EAC6DA0113968C91B0E88B9FC0010F
:101410001124FA016281862B682F70E0818181118D
:1014200003C0719561957109D5018C91811105C039
:1014300082E797E00E94DD27CFC6813009F0CCC655
:101440008EE697E0F7CF643009F0C6C6FA018381D3
:10145000F0E88F9FC0011124DA0112966C91129767
:10146000862B682F70E011968C91811103C07195C5
:1014700061957109F5018081811103C08AE697E0C9
:10148000D9CF813009F0A8C686E697E0D3CFDA013C
:101490008C91823008F4A0C68093EF02CE010196B1
:1014A00090939103809390030E94C02F81E08093DA
:1014B000920392C68091C40880688093C408FA01A0
:1014C0000081002339F1093019F40E94C3344CC063
:1014D00080914709803108F047C025E0829FF001E4
:1014E0001124E950F74F0083DA0111969C9111976E
:1014F000918312969C911297928313969C911397C5
:101500009383033019F014969C9194838F5F80939A
:1015100047092AC08091F608833030F5FA0191819D
:101520002EE0829FF0011124E453F74F9083DA01FB
:1015300012969C91129791831396EEE08E9FA001D4
:10154000112420E030E02F5F3F4F92E0920F91177F
:1015500040F49D91F901E40FF51FE453F74F918397
:10156000F2CF8F5F8093F60880914709803148F071
:101570008091F608833028F080EF0E949A1981E06C
:1015800091C50930C9F30E94441C80910A0681115B
:1015900007C081E080930A0681ED95E00E94A728AC
:1015A0008091D3059091D4050E94AE1E85E0882ECF
:1015B0009EE0992E9E012F5F3F4F79018091470950
:1015C000811105C08091F60881116AC064C0C12CE8
:1015D00080914709C816B0F78C9CF0011124E9509E
:1015E000F74F80818230B9F18330E1F1813009F029
:1015F00050C08481B380A2801181B11618F4012FEC
:101600000B1902C00B2D011B8A1578F4DA2CD81A9D
:101610000D1508F0B5C5902F0D2DD92E9A2DAB2C98
:10162000B92E912F182F892F0EC0D82EDA180D152C
:1016300008F0C5C5902F0D2DD92E9B2DB82E892FC2
:10164000912F1A2DA92E66246394702E7694A816D5
:1016500008F49FC5BDC524814381628181810E94B8
:101660000E1C17C0B380D280118191E09B0D292FF1
:10167000220F4D2D491B612F691B022F81ED95E033
:101680000E94882C882329F04B2D6D2D812F0E94DC
:10169000DF1BC3949DCF0E94541B81118FCF6CCF51
:1016A00010E08091F6081817B0F7D701E92D1D92C8
:1016B000EA95E9F722E0919EF0011124822F90E053
:1016C000DF01A80FB91FA453B74F3C91332349F052
:1016D000AFEFBFEFAC0FBD1FA80FB91F3C932F5F3B
:1016E000EDCFE453F74F818190819093080680936A
:1016F0000906F70101900020E9F73197AF014E1973
:101700005F09B7018DEC95E00E9412211F5FC9CFE0
:10171000633009F061C5DA018C91813009F130F054
:101720008230C1F1833009F4C4C056C5FA01118179
:101730006281812F0E943E1B80914406181768F435
:101740009091460680914706E92FF82FE10FF11D91
:10175000E10FF11D80818F7780830E94301A3CC594
:10176000DA0111961C91119712966C91812F0E94AB
:101770003E1B80914406181780F790914606809191
:101780004706E92FF82FE10FF11DE10FF11D8081D0
:101790008068E2CF8091C40882608093C408FA0117
:1017A000618141E0460F20E0CE0101960E94BA2DF2
:1017B0008B819C8190934F0680934E068D819E81F4
:1017C000AF81B8858093500690935106A09352063E
:1017D000B093530689859A85AB85BC858093540662
:1017E00090935506A0935606B09357068D85809327
:1017F00058068E85809359068F85988990935B064D
:1018000080935A06898980935C068A899B89909384
:101810005E0680935D068C899D8990936006809317
:101820005F068E89809361068F89988D90936306F9
:1018300080936206898D9A8D9093650680936406E5
:101840008B8D9C8D90936706809366068D8D9E8D03
:1018500090936906809368069F8D80916A0690FB3D
:1018600080F99695917090FB81F980936A0686E6DF
:1018700091E09A838983CE0101960E940B2F80917B
:101880004A0690914B0640E855E260E070E0009710
:1018900019F00E94AA2C06C0809148069091490632
:1018A0000E94A51864E670E080E090E00E944D2759
:1018B00093C4DA0111968C91882311F0815001C0F4
:1018C0008FEF0E94031B88C4FA018081823009F4E3
:1018D000B3C030F4882369F0813009F445C07CC47A
:1018E000843009F41DC108F4DFC0853009F4E0C379
:1018F00073C4683009F070C4638167956627679583
:101900008281682B45814795442747958481482BE0
:1019100027812795222727958681282B8181813051
:1019200069F4609322074093230720932407C09013
:101930002707E09026070091250712C0823009F0A2
:101940004BC4609325074093260720932707C22E98
:10195000E42E062F2091240740912307609122074F
:1019600085E00E94CD1F38C46530E1F5FA01818120
:101970008130D1F48481F0E88F9FC0011124DA0115
:1019800013962C911397822B12962C91211103C040
:1019900091958195910990932D0780932C076091E3
:1019A0002E0770912F07C4C3823009F015C4FA01C5
:1019B0006481F0E86F9FB0011124DA0113968C91D5
:1019C0001397682B12968C91811103C071956195C4
:1019D000710970932F0760932E0780912C079091C7
:1019E0002D07A6C3683009F0F7C3FA01818183305F
:1019F00009F0F2C38581F0E88F9FC0011124DA015C
:101A000014962C911497822B17966C91B0E86B9FCB
:101A1000B0011124FA012681622B2281211103C019
:101A2000919581959109D50113962C91211180C32F
:101A30007195619571097CC36430C1F4FA018181AB
:101A40008111CAC38381F0E88F9FC0011124DA019C
:101A500012962C91822B8431910528F460E070E07D
:101A600080E090E01EC06FEF7FEF1BC0663009F092
:101A7000B3C3FA018181813009F0AEC36581F0E81A
:101A80006F9FB0011124DA0114968C911497682B82
:101A900013968C91B0E88B9FC0011124FA0122812A
:101AA000822B0E941B1898C3633009F095C3818173
:101AB0008130B1F46281609348074091490786E420
:101AC00097E00E94BE191091460780EF0E949A1974
:101AD0008CE00E949A1983E00E949A1981E019C053
:101AE000823009F079C3FA0142814093490760913D
:101AF000480786E497E00E94BE191091470780EFDF
:101B00000E949A198CE00E949A1983E00E949A1907
:101B100082E00E949A19812F90E00E94A719C4C206
:101B2000623009F059C38181813009F05BC18FEFC8
:101B300080933A0780933B0780933C07C0903F0710
:101B4000E0903E0700913D072FEF4FEF6FEF80E4ED
:101B500097E00E94314210914007112309F437C1E8
:101B600060914107662309F431C140914207442343
:101B700009F42CC12EE437E0812F0E940E41C09061
:101B80005207D0905307E0905407F090550720E09B
:101B900030E040E85EE3C701B6010E9450451816E8
:101BA000A4F023E333E343E35FE3609156077091CE
:101BB000570780915807909159070E94AF46181611
:101BC00014F487E0FEC088E0FCC02AE939E949E95D
:101BD0005EE3C701B6010E94AF4618168CF58090EF
:101BE0004E0790904F07A0905007B090510720E00B
:101BF00030E04AEA53E4C501B4010E94AF4618162A
:101C000054F420E030E044EB53E4C501B4010E94F9
:101C1000504518169CF420E030E0A901C501B4013C
:101C20000E94AF4687FD17C020E030E040E851E455
:101C3000C501B4010E94504587FF0DC081E0C1C0BD
:101C400029E23CE54FE85EE3C701B6010E94AF46DA
:101C500018160CF13EC020E030E044EB52E4C50120
:101C6000B4010E94AF46181664F420E030E046E16B
:101C700053E4C501B4010E94504587FF02C082E0D1
:101C8000A0C029E23CE54FE85EE3C701B6010E942F
:101C9000AF46181644F580904E0790904F07A090DD
:101CA0005007B090510720E030E042E553E4C50111
:101CB000B4010E94AF46181664F420E030E047E813
:101CC00053E4C501B4010E94504587FF02C083E080
:101CD00078C02AE939E949E95EE3C701B6010E9403
:101CE000AF461816FCF480904E0790904F07A090D6
:101CF0005007B090510720E030E040E851E4C501C2
:101D0000B4010E94AF4618160CF022C220E030E069
:101D100044EB52E4C501B4010E94504587FF18C24C
:101D200084E04FC028EB3EE145E85EE3C701B60121
:101D30000E94AF461816F4F480904E0790904F071B
:101D4000A0905007B090510720E030E047E853E4FE
:101D5000C501B4010E94AF46181664F420E030E0DB
:101D60004AEA53E4C501B4010E94504587FF02C00E
:101D700085E027C02AE939E949E95EE3C701B601F0
:101D80000E94AF461816FCF4C0904E07D0904F0743
:101D9000E0905007F090510720E030E046E153E436
:101DA000C701B6010E94AF4618166CF420E030E07F
:101DB00042E553E4C701B6010E94504587FF03C0C6
:101DC00086E080934A0710914A0701C010E080EF37
:101DD0000E949A198CE00E949A1984E00E949A1934
:101DE00081E05DC1823009F0F7C18FEF80933D073C
:101DF00080933E0780933F07CC24CA94EE24EA9454
:101E00000FEF20913C0740913B0760913A0780E437
:101E100097E00E94314280914307882341F060910E
:101E20004407662321F040914507411104C01092F8
:101E30004B0710E02AC12AE537E00E940E41C0900E
:101E40005E07D0905F07E0906007F090610720E0A8
:101E500030E040E85EE3C701B6010E945045181625
:101E6000A4F023E333E343E35FE3609162077091FF
:101E7000630780916407909165070E94AF4618162A
:101E800014F487E0FEC088E0FCC02AE939E949E99A
:101E90005EE3C701B6010E94AF4618168CF580902C
:101EA0005A0790905B07A0905C07B0905D0720E018
:101EB00030E04AEA53E4C501B4010E94AF46181667
:101EC00054F420E030E044EB53E4C501B4010E9437
:101ED000504518169CF420E030E0A901C501B4017A
:101EE0000E94AF4687FD17C020E030E040E851E493
:101EF000C501B4010E94504587FF0DC081E0C1C0FB
:101F000029E23CE54FE85EE3C701B6010E94AF4617
:101F100018160CF13EC020E030E044EB52E4C5015D
:101F2000B4010E94AF46181664F420E030E046E1A8
:101F300053E4C501B4010E94504587FF02C082E00E
:101F4000A0C029E23CE54FE85EE3C701B6010E946C
:101F5000AF46181644F580905A0790905B07A09002
:101F60005C07B0905D0720E030E042E553E4C50136
:101F7000B4010E94AF46181664F420E030E047E850
:101F800053E4C501B4010E94504587FF02C083E0BD
:101F900078C02AE939E949E95EE3C701B6010E9440
:101FA000AF461816FCF480905A0790905B07A090FB
:101FB0005C07B0905D0720E030E040E851E4C501E7
:101FC000B4010E94AF4618160CF0CEC020E030E0FD
:101FD00044EB52E4C501B4010E94504587FFC4C0E0
:101FE00084E04FC028EB3EE145E85EE3C701B6015F
:101FF0000E94AF461816F4F480905A0790905B0741
:10200000A0905C07B0905D0720E030E047E853E423
:10201000C501B4010E94AF46181664F420E030E018
:102020004AEA53E4C501B4010E94504587FF02C04B
:1020300085E027C02AE939E949E95EE3C701B6012D
:102040000E94AF461816FCF4C0905A07D0905B0768
:10205000E0905C07F0905D0720E030E046E153E45B
:10206000C701B6010E94AF4618166CF420E030E0BC
:1020700042E553E4C701B6010E94504587FF03C003
:1020800086E080934B0710914B0780EF0E949A19CE
:102090008CE00E949A1984E00E949A1982E00E94C2
:1020A0009A19812F0E949A1987EF0E949A1994C059
:1020B000653009F091C0FA01218120938F0382815C
:1020C00080938E038481F0E88F9FC0011124DA0190
:1020D00013963C91832B90938D0380938C03211155
:1020E0007BC0109222071092230710922407C09001
:1020F0002707E09026070091250740E060E085E093
:102100000E94CD1F109225071092260710922707D4
:10211000C12CE12C00E0209124074091230760911D
:10212000220785E00E94CD1F60E070E080E090E033
:102130000E941B2051C0812F0E945E150C944F08F5
:1021400083E00E949A1988E00E949A190C94BA08B8
:1021500028EB3EE145E85EE3C701B6010E94AF46C9
:1021600018160CF4E9CD10CE28EB3EE145E85EE30D
:10217000C701B6010E94AF4618160CF43DCF64CFDC
:10218000B11640F5702E76949B2DB12E192FA82EE6
:10219000612C91E0B11608F47CCA611003C06A2D6D
:1021A000812F02C0612F8A2D98A30E948E1B98A1B7
:1021B0007D1877FE02C0A90E700E1F5FEBCFB1161F
:1021C00048F4702E76949B2DB12E192FA82E612CD9
:1021D0009FEFE0CF612C39CAA0960FB6F894DEBF0E
:1021E0000FBECDBFDF91CF911F910F91FF90EF9068
:1021F000DF90CF90BF90AF909F908F907F906F9027
:102200000895089580E090E00895CF93883080F598
:102210004091BB035091BC0321E030E0672B81F477
:10222000B90102C0660F771F8A95E2F7CB0180954E
:102230009095842395239093BC038093BB0318C08F
:10224000082E02C0220F331F0A94E2F7242B352BED
:102250003093BC032093BB039091CB08911108C02D
:10226000C82F0E940B27BC018C2FCF910C94EC1D22
:10227000CF910895BF92CF92DF92EF92FF920F938A
:102280001F93CF93DF93843008F089C0D62E982F08
:10229000990F990F990F28E0B22EB90EC92FF92E78
:1022A000D0E0CC24C394FB1410F58EEF8F0D8E314B
:1022B000D8F40F2D10E0F801E55CFA4F90819230D0
:1022C00098F4EE24E3948C2D8D2109F4E12C000F79
:1022D000111F913009F053C0DC29F801E55AFA4F7B
:1022E0008E2D90E091838083CC0CF394DCCFD0FFD3
:1022F00005C06D2D61708C2F0E945123D1FF06C047
:102300006D2D627081E08C0F0E945123D2FF06C0B8
:102310006D2D647082E08C0F0E945123D3FF06C0A4
:102320006D2D687083E08C0F0E945123D4FF06C08E
:102330006D2D607184E08C0F0E945123D5FF06C083
:102340006D2D607285E08C0F0E945123D6FF06C070
:102350006D2D607486E08C0F0E945123D7FF1FC043
:102360006D2D607887E08C0FDF91CF911F910F91D9
:10237000FF90EF90DF90CF90BF900C945123EE2010
:1023800009F4ABCFF801E55AFA4F808191810197AA
:1023900009F4A3CF62E08F2D0E9408249ECFDF9125
:1023A000CF911F910F91FF90EF90DF90CF90BF9052
:1023B00008959EEF980F9E3180F4E82FF0E0DF0142
:1023C000A55CBA4F9C91913041F4EE0FFF1FE55A86
:1023D000FA4F608371830C94512308958F929F92DA
:1023E000AF92BF92CF92DF92EF92FF920F931F9323
:1023F000CF93DF937B01803208F0BDC0C82FD0E0BF
:10240000FE01E55CFA4F9081933009F4A4C094304A
:1024100009F0B1C082508E3108F0A3C08E010A537A
:102420001D4FF801808190E09C01220F331F820F25
:10243000931F20E639E040E252E0BE01855F994FEC
:102440000E948033F801008110E06801CC0CDD1C93
:10245000F0E2EF16F2E0FF060CF043C0F7FC06C016
:1024600085EBE816F10424F4D70104C0A0E001C014
:10247000A4EBB0E0F601E00FF11FE55FF94F8181B9
:1024800028E830E04901881A910887FD9394880C68
:10249000991C880C991C092C000CAA08BB08828185
:1024A00028E532E0281B310987FD3395220F331FC1
:1024B000220F331FA901330F660B770B9A01AB0173
:1024C000281939094A095B090E94AA4424EB30E023
:1024D00040E050E00E948044820E931EA41EB51E70
:1024E00001C047010C0D1D1DF801E55FF94F30815A
:1024F0003C30B8F5218188E890E0821B910927FDE6
:102500009395880F991F880F991F8816990684F054
:10251000828148E552E0481B510987FD5395440FDD
:10252000551F440F551FC401481559050CF4CA0125
:102530004FB7F894232F30E0F901EE0FFF1F2E0F55
:102540003F1FF901E855FA4F0297880F991F9283B0
:1025500081834FBF06C0FE01E95CF34FE491E111B6
:1025600007C0CC0FDD1FC55ADA4FF982E88203C0DD
:102570000E94AC26F6CFDF91CF911F910F91FF9073
:10258000EF90DF90CF90BF90AF909F908F90089585
:102590003F924F925F926F927F928F929F92AF92F3
:1025A000BF92CF92DF92EF92FF920F931F93CF9340
:1025B000DF93EC01062FDCACCBAC5C0184E0A80E11
:1025C000B11CE98DFA8DC5010995182FE884F984AD
:1025D000C7010E94A22B982E888599850E94A52B61
:1025E000682EE1E09E1203C02FE0922E02C09924D3
:1025F0009A94888599850E941529882E88859985C1
:102600000E941129782E888599850E941929013602
:1026100038F0009729F0E80EF91E91E6892E10C0D7
:10262000888599850E941C29013438F0009729F08B
:10263000E80EF91E81E4882E03C0F1E1EF0EF11CD3
:10264000701630F41C8A1F8A188E1D8A1E8A9AC042
:102650007814C0F3262D30E0F70184918F3F21F4E8
:10266000FFEFEF1AFF0A43C0801238C088859985B2
:102670000E94A22B97012F5F3F4FF701882311F093
:10268000823091F484918F8BF9012491288FF70186
:102690003396E491EC8BF7013496E491ED8BF701DE
:1026A0003596E491EE8B16C08491982F9F709250CE
:1026B0009E8B82958F708D8BF9012491822F8F7064
:1026C000888F22952F702F8BF7013296E491E29537
:1026D000EF70EC8BE114F10479F454C0F7013296F9
:1026E000E491E921C9018E0F911DE80EF91E8714AE
:1026F00009F4A8CF8394B0CF888599850E94A52B33
:10270000882E4F88988C5D885C0CD9188E89D81AD1
:102710001D0D092D242D412F652DC5010E94882CEA
:10272000882371F1E80CF11C87E0840D482E469453
:1027300046944694312E390C4E01F0E28F0E911CD6
:10274000642C712C1315E1F0052D67018C2D8E1969
:10275000841590F4F60184916E817F8108A319A3FA
:102760001BA28AA394014BE3C5010E94A328FFEF9B
:10277000CF1ADF0A085FEACFE60CF71C1F5FE2CF33
:102780008C8901C080E02BAD082E000C990B820FC4
:10279000911D8BAF81E090E0DF91CF911F910F9160
:1027A000FF90EF90DF90CF90BF90AF909F908F9071
:1027B0007F906F905F904F903F900895FF920F939E
:1027C0001F93CF93DF9300D0CDB7DEB7082F10E073
:1027D000F801E951FD4F9081F62EF9220A53174F67
:1027E000411104C0F80190819F1511F12F2D30E0A7
:1027F0003A832983A091F804B091F9041097B1F0BD
:10280000682FED91FC9111976F7060690190F081D4
:10281000E02DCD01099522E030E0AE014F5F5F4F22
:1028200062E070E088EF94E00E94E02FF801F0820F
:102830000F900F90DF91CF911F910F91FF9008950E
:102840000F931F93CF93DF93082F843008F073C04A
:1028500090E0FC01E551FD4F6083672B09F46BC0EC
:10286000FC01E951FD4F1081D02FDD0FDD0FDD0F91
:102870008EEF8D0F8E3108F04EC010FF4CC08D2FA3
:102880000E942823892B09F446C0C1E08FEF8D0FE9
:102890008E3140F411FF06C081E08D0F0E94282385
:1028A000892BD9F512FF06C082E08D0F0E942823E4
:1028B000892BA9F513FF06C083E08D0F0E94282302
:1028C000892B79F514FF06C084E08D0F0E94282320
:1028D000892B49F515FF06C085E08D0F0E9428233E
:1028E000892B19F516FF06C086E08D0F0E9428235C
:1028F000892BE9F417FF06C087E08D0F0E9428237B
:10290000892BB9F441E06C2F802FDF91CF911F917B
:102910000F910C94DE13C0E0B9CFC260C3CFC46086
:10292000C9CFC860CFCFC061D5CFC062DBCFC06494
:10293000E1CFC068E7CFDF91CF911F910F9108954C
:10294000CF92DF92EF92FF920F931F93CF93DF937B
:102950001F92CDB7DEB7E82E6B01F42E6F3F8FEFDD
:10296000780709F181E080937D09E0929F09109238
:102970007E091092A0098CE995E029830E94BE325D
:102980002981822F0E943B36E091B402F091B5027A
:10299000E230F10550F0EE0FFF1FEE0FFF1F3597ED
:1029A0003197F1F702C0C12CD12C80917C098111A3
:1029B000FCCF2F2D80E28F1508F420E281E0809378
:1029C0007C0980937B099FEF90937A091092790993
:1029D000920F9093780980935709809157099E2D03
:1029E000990F892B8093570980915609813061F4A2
:1029F00010925609809157098093BB008091BC00CA
:102A000083FDF8CF85EC01C085EE8093BC008091FA
:102A10007C098130E1F380917909821710F42091CB
:102A20007909A8E5B9E04AE558E0FA018E2F841B40
:102A3000821718F48D918193F9CF10927B0820931F
:102A40007A080F2D10E030E0021713071CF480E520
:102A500092E005C02017310724F48DE692E00E9431
:102A60009D1EE092DB03C092DC03C12CD12CC0166A
:102A7000D10634F490917A0880917B08981312C0A3
:102A8000F394F3946F2D70E04BED53E087E70F90D4
:102A9000DF91CF911F910F91FF90EF90DF90CF903A
:102AA0000C94501E8CE995E00E947232F601E552BA
:102AB000FC4F82838FEFC81AD80AD9CFA82FB0E075
:102AC000AA53BD4F9C91292F30E0F901EE0FFF1F53
:102AD0002E0F3F1FF901E55FF94FE081F0E09F0104
:102AE000220F331FE20FF31FE855FA4F80818F7BCF
:102AF00080838091E602981306C0992379F0915063
:102B00009093E6020BC0882349F0E091C508EF5F7F
:102B1000E093C508F0E0E253FC4F90838FEF8C9375
:102B20000895DB019091E6029C30A8F53091C5082C
:102B3000682F70E0332369F0E32FF0E0E253FC4F9D
:102B40008081FB01EA53FD4F808331503093C508EB
:102B500007C0FB01EA53FD4F90839F5F9093E6020D
:102B6000FB01EA53FD4F808190E09C01220F331F4F
:102B7000820F931F1A161B0634F4141615061CF444
:102B80009A01AD0104C020E639E040E252E0855FE1
:102B9000994F0C94803389E892E00C949D1E8F929B
:102BA0009F92AF92BF92CF92DF92EF92FF920F93DC
:102BB0001F93CF93DF931F92CDB7DEB7C82ED12CD2
:102BC000960128543B4F4901F901ED57FF4F908181
:102BD0009F3709F44BC1963041F49091CA0899236C
:102BE00021F06630710509F012C17B01182F0EEF3C
:102BF000080F0E31F8F464307105E1F0F601EA5384
:102C0000FD4F80818C30B0F490E0FC01EE0FFF1F8F
:102C10008E0F9F1FFC01E55FF94F808190E0FC0162
:102C2000EE0FFF1F8E0F9F1FFC01E855FA4F8081AA
:102C300086FDF3C098EE910F983068F461E070E083
:102C400082E0E816F10411F060E070E0892F9983CA
:102C50000E94051199810E3118F5A12FA695A69510
:102C6000A695812F8770B0E0A951BD4FE114F10402
:102C700021F02BE0E216F10449F421E030E001C03C
:102C8000220F8A95EAF78C91282B09C021E030E0C9
:102C900001C0220F8A95EAF720958C9128232C9366
:102CA0005601AA0CBB1CF501E55AFA4F118210829D
:102CB0003CE0E316F10408F099C0F701E25CFF4F35
:102CC0000C944147983008F0D1C00E3120F460E0F8
:102CD000812F0E940824F401ED57FF4F80818F3728
:102CE00009F4C4C082E080C00E3108F0BFC060E0CB
:102CF000812F0E940824F401ED57FF4F80818F3708
:102D000009F4B4C01082B2C00E3108F0AFC062E066
:102D1000812F0E940824F401ED57FF4F80818F37E7
:102D200011F08BE08083F501E55AFA4F81E090E0E5
:102D3000918380839BC00E3108F098C0F401ED5759
:102D4000FF4F8081833021F460E0812F0E94512366
:102D500061E0812F0E940824F401ED57FF4F80812C
:102D60008F3709F483C081E03FC0103208F07EC085
:102D7000F601E95CF34FE491E11153C077C00E31E5
:102D800008F074C0F401ED57FF4F80818F3711F0C8
:102D900084E08083F601EA53FD4F80818F3F09F480
:102DA00051C090E0FC01EE0FFF1F8E0F9F1FFC0132
:102DB000E55FF94F808190E0FC01EE0FFF1F8E0F61
:102DC0009F1FFC01E855FA4F808186FD4FC03AC035
:102DD0001051123008F04AC0F401ED57FF4F8081C6
:102DE0008F3709F443C086E0808340C08DE992E0CC
:102DF0000F90DF91CF911F910F91FF90EF90DF9097
:102E0000CF90BF90AF909F908F900C949D1E10928A
:102E1000CA089FEF90930001E8CE812F0E945E15B3
:102E200009CF61E0812F0E94082460E070E0812FCB
:102E30000E94AC26F401ED57FF4F80818F37B1F02F
:102E400083E0D2CF4FEF5FEF6FEF7FEF812F0F90D7
:102E5000DF91CF911F910F91FF90EF90DF90CF9076
:102E6000BF90AF909F908F900C9491150F90DF9131
:102E7000CF911F910F91FF90EF90DF90CF90BF9077
:102E8000AF909F908F900895909144068917F0F429
:102E900090E0880F991FE0914606F0914706E80FF1
:102EA000F91F208120782083E0914606F0914706A3
:102EB000E80FF91F6F772081622B6083209146060F
:102EC00030914706F901E80FF91F41830895EF9209
:102ED000FF920F931F93CF93DF93D82F062FC42F0A
:102EE000142FF82EF40EEE24EA948F2D811B183047
:102EF000A8F06091D3057091D4058093ED050093FF
:102F0000EE051092F005E092EF052DEE35E04BE373
:102F100081ED95E00E94A3281850E7CF8C2F887F81
:102F2000D80F4C2F477019F197E049276091D305CE
:102F30007091D405D093ED050093EE051092F00545
:102F40004F5F47708FEF90E001C0880F4A95EAF716
:102F50008093EF052DEE35E04BE381ED95E0DF91B9
:102F6000CF911F910F91FF90EF900C94A328DF91C8
:102F7000CF911F910F91FF90EF900895DF92EF9204
:102F8000FF920F931F93CF93DF93082FD62FC42F59
:102F9000142FF62EF40EEE24E394DD24DA948F2D14
:102FA000811B1830A8F06091D3057091D40500936F
:102FB000ED058093EE05E092F005D092EF052DEE41
:102FC00035E04BE381ED95E00E94A3281850E7CF50
:102FD0008C2F887FD80F4C2F477029F197E0492715
:102FE0006091D3057091D4050093ED05D093EE0563
:102FF00081E08093F0054F5F47708FEF90E001C054
:10300000880F4A95EAF78093EF052DEE35E04BE304
:1030100081ED95E0DF91CF911F910F91FF90EF909F
:10302000DF900C94A328DF91CF911F910F91FF9017
:10303000EF90DF9008950F931F939C012451310965
:10304000253F314510F080E090E080933007909369
:10305000310760933207709333070E94872760938C
:1030600018077093190780931A0790931B0744E081
:1030700060E377E082E00E94131F0E94D51E811159
:1030800023C0109216070E948727009118071091FD
:10309000190720911A0730911B07DC01CB01801B17
:1030A000910BA20BB30B4F97A105B10530F382E052
:1030B000809316070E94872760931807709319075B
:1030C00080931A0790931B071F910F910895CF9338
:1030D000C82F8091080790910907009789F06AE747
:1030E00070E00E94212F6CE770E0809108079091BA
:1030F00009070E94212F80910807909109071CC0A1
:1031000080910A0790910B07DC01ED91FC910190F1
:10311000F081E02D6AE7099580910A0790910B07ED
:10312000DC01ED91FC910190F081E02D6CE70995B7
:1031300080910A0790910B07DC01ED91FC910190C1
:10314000F081E02D6C2FCF910994CF92DF92EF9216
:10315000FF920F931F93CF93DF93EC016A017B01E2
:10316000E889F98982E080834115514E6105710536
:10317000B1F060E079E08DE390E0A70196010E9454
:10318000B24489019A01015011092109310936958A
:10319000279517950795980101151041A8F0E88922
:1031A000F989108260E874E88EE190E0A701960149
:1031B0000E94B244DA01C9010197A109B109B6958B
:1031C000A795979587959C01EC85FD853083EE85C5
:1031D000FF852083188EEC89FD8986E08083EA894B
:1031E000FB89808180618083EA89FB898081886096
:1031F0008083EA89FB89808180688083EA89FB89F2
:1032000080818F7D8083DF91CF911F910F91FF90FF
:10321000EF90DF90CF900895CF93DF93FC01A081D2
:10322000B181109701F1EC01ED91FC9111970190A2
:10323000F081E02D69EFCD01099588819981DC014C
:10324000ED91FC910190F081E02D62E0099588817B
:103250009981DC01ED91FC910190F081E02D65E018
:10326000DF91CF910994DF91CF910895EF92FF9272
:103270000F931F93CF93DF93EC01E62EF42E6EEAAB
:1032800072E00E94AE488C016FE270E0CE010E94B5
:10329000A348009739F46CE570E0CE010E94A34882
:1032A000009711F0EC0121960115110549F4FE017A
:1032B00001900020E9F7EC1BEF5FE093380505C0B3
:1032C0000C1B1D0B0E5F0093380580913905909102
:1032D0003A050E94F0470091380510E0C8010196B8
:1032E0000E945B4790933A0580933905FC01E00FFB
:1032F000F11F1082FC01E082F182A80142505109C5
:10330000BE010296DF91CF911F910F91FF90EF9038
:103310000C9494488091350687FD08C061E00E94B6
:10332000082460E0809135060E94512381E080935B
:1033300030060895A0913605B0913705ED91FC91C6
:1033400011970190F081E02D682FCD010994CF9362
:10335000DF9300D0CDB7DEB79A83898322E030E0D7
:10336000AE014F5F5F4F62E070E088EF94E00E9433
:10337000E02F0F900F90DF91CF910895CF92EF92B1
:103380000F931F93CF93DF93EC0186E0E4E3F7E024
:10339000DF011D928A95E9F7662331F0E62FF0E010
:1033A000E85FF84F8FEF83A7442331F0E42FF0E07C
:1033B000E85FF84F8FEF86A7C0903907E090380795
:1033C0000091370720913607409135076091340707
:1033D00083E00E94CD1F0E94872760931807709397
:1033E000190780931A0790931B0783ED0E946718B3
:1033F0000E94D51E811123C0109216070E948727B4
:10340000009118071091190720911A0730911B0796
:10341000DC01CB01801B910BA20BB30B4F97A105D5
:10342000B10530F383ED809316070E9487276093E0
:1034300018077093190780931A0790931B078091C0
:103440001607811106C0809110079091110799838A
:103450008883DF91CF911F910F91EF90CF900895C6
:103460001F93CF93DF9300D0CDB7DEB71091440602
:103470008091480690914906112309F486C0509125
:10348000460640914706252F342F210F311D210F6D
:10349000311DF90132972081298321812A830097E8
:1034A00069F16AE770E00E94212F6BE770E080917C
:1034B0004806909149060E94212F809148069091DC
:1034C0004906DC01ED91FC910190F081E02D62E074
:1034D00009958091480690914906DC01ED91FC9197
:1034E0000280F381E02D42E050E0BE016F5F7F4F2C
:1034F0000995A0914806B091490638C080914A06C6
:1035000090914B06DC01ED91FC910190F081E02D52
:103510006AE7099580914A0690914B06DC01ED918E
:10352000FC910190F081E02D6BE7099580914A06AE
:1035300090914B06DC01ED91FC910190F081E02D22
:1035400062E0099580914A0690914B06DC01ED916D
:10355000FC910280F381E02D42E050E0BE016F5FFC
:103560007F4F0995A0914A06B0914B06ED91FC91D1
:10357000119769819A81692792E069270190F0810A
:10358000E02DCD010995115073CF009789F06AE7BE
:1035900070E00E94212F6CE770E0809148069091C6
:1035A00049060E94212F80914806909149061CC02F
:1035B00080914A0690914B06DC01ED91FC910190BF
:1035C000F081E02D6AE7099580914A0690914B06BB
:1035D000DC01ED91FC910190F081E02D6CE7099503
:1035E00080914A0690914B06DC01ED91FC9101908F
:1035F000F081E02D6091440609950F900F90DF91C6
:10360000CF911F910895CF93DF938F3FF1F4C0E0E6
:10361000D0E090914406292F30E0C217D30754F52B
:103620008C2FC91760F4E0914606F09147069E0181
:10363000220F331FE20FF31F90819F77908342E3A5
:1036400060E00E9444172196E4CF909144068917C8
:1036500068F42091460690914706E22FF92FE80F73
:10366000F11DE80FF11D90819F77908342E360E0A8
:103670000E944417DF91CF910C94301A6B3098F46C
:1036800090914506911105C0E62FF0E0EE5DFE4FEA
:1036900006C0913041F4E62FF0E0E85EFE4F4FEFB8
:1036A00060810C94441708950F931F93CF93E0917A
:1036B000DF05F091E005309719F081ED95E009956F
:1036C0000091D3051091D405E0910206F091030614
:1036D00082E00995E0910206F091030681E00995E8
:1036E00020E030E045E1B80181ED95E00E94A3289B
:1036F000C82F882341F024E036E047E1B80181ED8E
:1037000095E00E94A328E0910206F091030680E074
:1037100009958C2FCF911F910F910895962FEDEC65
:10372000F5E06681778180A391A32DEE35E042E339
:1037300081ED95E00C94A328BF92CF92DF92EF9297
:10374000FF920F931F93CF93DF93D82F162FC42F81
:10375000022FB22EB61AD42ED80E6B2D8D2D0E94AC
:103760008E1BC02ECD1AE12EEC0E6C2D8E2D0E94DC
:103770008E1BFC2EFD1A6B2D8F2D0E948E1BC11BE4
:103780006C2D8C2F0E948E1B100F612F8D2D0E948F
:103790008E1BD00F6D2F8E2D0E948E1B612F8F2DB3
:1037A0000E948E1B6D2F8C2FDF91CF911F910F9157
:1037B000FF90EF90DF90CF90BF900C948E1BEF9214
:1037C000FF920F931F93CF93DF93F82EE62EC42F13
:1037D000D1E0D41B042F0195000F262F482F6C2F0A
:1037E00080E00E949C1B10E01C1788F4D7FD03C0EA
:1037F000C1500E5FD00F1F5F912F990F9F5FD90FA0
:103800002E2D4F2D6C2F812F0E949C1BEDCFDF9111
:10381000CF911F910F91FF90EF900895FF920F931A
:103820001F93CF93DF93182FC62FF42ED22F022F82
:10383000242F462F682F81ED95E00E94882C882345
:10384000E9F04F2D6C2F812F0E9467174D2F6C2FA1
:10385000812F0E94BE178FEF8F0D4D2F6C2F810F80
:103860000E94BE17D1506D2F6C0F4F2D812FDF910D
:10387000CF911F910F91FF900C946717DF91CF911B
:103880001F910F91FF9008958091D5059091D605D5
:103890008459904009F445C084E990E09093D6059E
:1038A0008093D5058091E805811108C0E9E9F0E031
:1038B000E491E093E905E0EAF0E011C0813041F4E1
:1038C000E3EAF0E0E491E093E905E4EAF0E007C020
:1038D000E1EAF0E0E491E093E905E2EAF0E0E49166
:1038E000E093EA058091E905082E000C990B2091E0
:1038F000EA05821B910927FD93952091EB05203461
:1039000041F0829FC001112426E0969587952A9563
:10391000E1F78093EC058CE892E29093E7058093C1
:10392000E60508950F931F93CF93DF93CDB7DEB7CE
:1039300029970FB6F894DEBF0FBECDBF0E9428278F
:1039400000913D0610913E0620913F0630914006C1
:10395000DC01CB01801B910BA20BB30B8C3291408D
:10396000A105B10558F3F89480913306909134067F
:103970009A838983E0913706F0913806DF0111962A
:103980008081898790912F06E0914106F09142064F
:1039900080914306992309F42EC09081982B988733
:1039A0009081809589238F838F818C8388E08B839E
:1039B00058856F8149853B812C8189819A8150830B
:1039C00047FD252F3A952083262F39F0441F00C04C
:1039D00000006083000000C0F2CF38E04D916083AA
:1039E0000000019761F7F0934206E0934106498792
:1039F0003B832C8338C09081982B98879081809549
:103A000089238F838F818E8388E08D8358856F8192
:103A100049853D812E8189819A81508347FD252FDB
:103A200000C000C0208300C000C000C000C000C0B3
:103A300060830000262F3A9541F0441F000000C02B
:103A400000C000C000C000C0E8CF38E04D9100C009
:103A5000608300C0019709F7F0934206E0934106A6
:103A600049873D832E839A83898378940E942827EF
:103A700060933D0670933E0680933F069093400608
:103A800029960FB6F894DEBF0FBECDBFDF91CF9160
:103A90001F910F910895DC0190913606992361F0F2
:103AA000699FB0011124672F499FA0011124452F60
:103AB000299F90011124232F30913C0680913906D3
:103AC000E0913706F0913806381308C0CD01880F11
:103AD000991F8A0F9B1F8E0F9F1F0BC0CD01880F50
:103AE000991F880F991F8E0F9F1FFC01E30FF11D77
:103AF000108230913906FC01E30FF11D6083309193
:103B00003A06FC01E30FF11D408330913B06FC01B6
:103B1000E30FF11D2083089590910C07913029F453
:103B20008A3709F056C082E04AC0923051F48B3790
:103B300011F487E044C08C3711F483E040C081E089
:103B40003EC0933021F480930E0784E038C0943057
:103B500031F480930F0710920D0785E030C0953047
:103B600081F4E0910D0791E09E0F90930D07F0E036
:103B7000E85FF84F808780910F07981750F186E033
:103B80001EC09630B1F491E090930C0790910F070E
:103B900020910E07292740E157E0FA013E2F341B00
:103BA000391718F431912327F9CF91E0281311C068
:103BB00011C0973039F48150863008F688E0809340
:103BC0000C0707C0983029F491E090930C078111FD
:103BD00001C090E0892F08951F93CF93DF9300D009
:103BE000CDB7DEB7182F7A8369838091F80490915E
:103BF000F904009709F44EC0DC01ED91FC911031FD
:103C0000A8F46115704490F4612F606E0190F0810A
:103C1000E02D099522E030E0AE014F5F5F4F62E09A
:103C200070E088EF94E00E94E02F34C00190F081B2
:103C3000E02D60EF09958091F8049091F904DC0182
:103C4000ED91FC910190F081E02D6FE60995809156
:103C5000F8049091F904DC01ED91FC910190F08160
:103C6000E02D612F099522E030E0AE014F5F5F4FFC
:103C700062E070E088EF94E00E94E02F8091F80409
:103C80009091F904DC01ED91FC910190F081E02D1F
:103C900067EF09950F900F90DF91CF911F910895D5
:103CA000EF92FF920F931F93CF93DF93C82F8091D2
:103CB000F8049091F9040097C9F17A018B01DC01B5
:103CC000ED91FC910190F081E02D60EF09958091DC
:103CD000F8049091F904DC01ED91FC910190F081E0
:103CE000E02D6C2F0995E7010E0D1F1DC017D107A0
:103CF00059F020E030E0AE0161E070E088EF94E040
:103D00000E94E02F2196F2CF8091F8049091F9045F
:103D1000DC01ED91FC910190F081E02D67EFDF91E6
:103D2000CF911F910F91FF90EF900994DF91CF9168
:103D30001F910F91FF90EF900895FC0101900020DA
:103D4000E9F73197BF01681B790BAC0181E70C944F
:103D5000501E682F8CE995E00C94BE320F931F9390
:103D6000CF93DF938C01CDECD5E0EDA9FEA982E0E5
:103D70000995EDA9FEA981E0099520E030E044E134
:103D8000B80181ED95E00E94A32824E036E047E1E8
:103D9000B80181ED95E00E94A328EDA9FEA980E07D
:103DA000DF91CF911F910F91099480910807909115
:103DB00009070097D1F0DC01ED91FC910084F185B9
:103DC000E02D0995181619065CF580910807909169
:103DD0000907DC01ED91FC910284F385E02D099542
:103DE0000E948C1D81111EC01BC080910A079091FA
:103DF0000B07DC01ED91FC910084F185E02D099524
:103E00001816190674F480910A0790910B07DC01CB
:103E1000ED91FC910284F385E02D09950C948C1DA5
:103E2000089580E00895CF92DF92FF920F931F9341
:103E3000CF93DF93C82F062FF72E142F80910807FA
:103E400090910907C42ED12CDC2FD427009709F4B8
:103E500048C06AE770E00E94212F6BE770E0809114
:103E60000807909109070E94212F809108079091DF
:103E70000907DC01ED91FC910190F081E02D6C2FA0
:103E800009958091080790910907DC01ED91FC915B
:103E90000190F081E02D612F0995809108079091A4
:103EA0000907DC01ED91FC910280F381E02DA60170
:103EB000602F7F2D09952091080730910907D901BE
:103EC000ED91FC910190F081E02D6D2F402FA02FFE
:103ED000BF2D8A2F841B811708F056C08D9168274B
:103EE000F8CF80910A0790910B07DC01ED91FC91CE
:103EF0000190F081E02D6AE7099580910A07909181
:103F00000B07DC01ED91FC910190F081E02D6BE756
:103F1000099580910A0790910B07DC01ED91FC91C6
:103F20000190F081E02D6C2F099580910A07909106
:103F30000B07DC01ED91FC910190F081E02D612FE8
:103F4000099580910A0790910B07DC01ED91FC9196
:103F50000280F381E02DA601602F7F2D099520912D
:103F60000A0730910B07D901ED91FC910190F08186
:103F7000E02D6D2F402FA02FBF2D8A2F841B81177E
:103F800018F48D916827F9CFC901DF91CF911F9166
:103F90000F91FF90DF90CF900994CF92EF920F9303
:103FA0001F93CF93C82F60931C0740931D07209346
:103FB0001E0700931F07E0922007C09221070E946E
:103FC0008727609318077093190780931A079093B7
:103FD0001B0746E06CE177E08C2F0E94131F0E94C4
:103FE000D51E811122C0109216070E9487270091CA
:103FF00018071091190720911A0730911B07DC014F
:10400000CB01801B910BA20BB30B4F97A105B10500
:1040100030F3C09316070E948727609318077093A8
:10402000190780931A0790931B07CF911F910F9147
:10403000EF90CF9008950F931F93CF93DF939C0140
:10404000EB012C308EEF380709F456C021308FEF8A
:10405000380744F12F3F310509F024F412161306F6
:10406000ECF402C02FEF30E0C901330FAA0BBB0BF9
:104070009C01AD012150310941095109A2EDB0E087
:104080000E949F442EEF30E040E050E00E948044C8
:10409000DA01C9018D96A11DB11D1FC02115310581
:1040A000E9F002C021E03FEFC901330FAA0BBB0BBF
:1040B0009C01AD012F5F3F4F4F4F5F4FAEE2BFEF0F
:1040C0000E94AD4422E03FEF4FEF5FEF0E9480443B
:1040D000DA01C9018D97A109B1099C0130932D071F
:1040E00020932C07822F819580932A073195219563
:1040F000310930932B0706C08CE080932A078EEF9E
:1041000080932B07CC308EEFD80709F44BC0C13019
:104110008FEFD8073CF1CF3FD10509F024F41C16EE
:104120001D06ECF402C0CFEFD0E0CE01DD0FAA0BEC
:10413000BB0B9C01AD012150310941095109A2ED90
:10414000B0E00E949F442EEF30E040E050E00E943B
:104150008044DA01C9018D96A11DB11D1EC02097B2
:10416000E9F002C0C1E0DFEFCE01DD0FAA0BBB0B0F
:104170009C01AD012F5F3F4F4F4F5F4FAEE2BFEF4E
:104180000E94AD4422E03FEF4FEF5FEF0E9480447A
:10419000DA01C9018D97A109B109EC01D0932F076C
:1041A000C0932E07C0932807D09329070E94872722
:1041B000609318077093190780931A0790931B0751
:1041C00044E068E277E081E00E94131F0E94D51E60
:1041D000811123C0109216070E94872700911807AB
:1041E0001091190720911A0730911B07DC01CB01B0
:1041F000801B910BA20BB30B4F97A105B10530F3B8
:1042000081E0809316070E948727609318077093B8
:10421000190780931A0790931B07DF91CF911F9185
:104220000F910895CF92DF92EF92FF920F931F9319
:10423000CF93DF936C017A018B01C0E0D0E0CE1503
:10424000DF0589F0D8016D918D01D601ED91FC91CA
:104250000190F081E02DC6010995892B11F47E01B2
:1042600002C02196ECCFC701DF91CF911F910F9132
:10427000FF90EF90DF90CF900895FC01A089B18965
:104280008C91A689B78982FD0FC09C91818D8F5F2B
:104290008F73228D821749F0218DDF01A20FB11D8E
:1042A0005D969C93818F08958C910895FC01538DA8
:1042B000448D252F30E0842F90E0821B930B541700
:1042C00010F0CF96089501970895FC01918D828D8D
:1042D000981761F0828DDF01A80FB11D5D968C915A
:1042E000928D9F5F9F73928F90E008958FEF9FEF65
:1042F0000895FC01918D828D981731F0828DE80F21
:10430000F11D858D90E008958FEF9FEF0895FC01DA
:10431000918D228D892F90E0805C9F4F821B9109A7
:104320008F73992708958BE696E00E94872121E0FC
:10433000892B09F420E0822F08958BE194E00E94FC
:10434000872121E0892B09F420E0822F0895FC01C8
:10435000848DDF01A80FB11DA35ABF4F2C91848D0E
:1043600090E001968F739927848FA689B7892C9343
:10437000A089B1898C9180648C93938D848D9813DE
:1043800006C00288F389E02D80818F7D80830895A7
:10439000EF92FF920F931F93CF93DF93EC0181E095
:1043A000888F9B8D8C8D981305C0E889F989808151
:1043B00085FD24C0F62E0B8D10E00F5F1F4F0F738D
:1043C0001127E02E8C8DE8120CC00FB607FCFACF37
:1043D000E889F989808185FFF5CFCE010E94A72168
:1043E000F1CF8B8DFE01E80FF11DE35AFF4FF082F4
:1043F0000B8FEA89FB898081806207C0EE89FF8983
:104400006083E889F98980818064808381E090E01D
:10441000DF91CF911F910F91FF90EF900895CF936F
:10442000DF93EC01888D8823C9F0EA89FB898081BC
:1044300085FD05C0A889B9898C9186FD0FC00FB68E
:1044400007FCF5CF808185FFF2CFA889B9898C91CF
:1044500085FFEDCFCE010E94A721E7CFDF91CF915D
:10446000089580E090E0892B21F00E949D21811128
:1044700009C080E090E0892B51F00E9493218111C6
:1044800004C008950E940000F4CF0C940000089529
:10449000833081F028F4813099F08230A1F00895C2
:1044A0008730A9F08830B9F08430D1F48091800051
:1044B0008F7D03C0809180008F7780938000089566
:1044C00084B58F7702C084B58F7D84BD08958091B7
:1044D000B0008F7703C08091B0008F7D8093B000D3
:1044E00008950895DC011696ED91FC9117971296A8
:1044F0008C91481B477081E090E001C0880F4A957D
:10450000EAF7E60FF11D3081222311F0832B02C060
:10451000809583238083089580E008950E948848D1
:104520001F920F920FB60F9211242F933F934F9328
:104530005F936F937F938F939F93AF93BF93EF930B
:10454000FF938BE696E00E94A721FF91EF91BF9128
:10455000AF919F918F917F916F915F914F913F911B
:104560002F910F900FBE0F901F9018951F920F92D2
:104570000FB60F9211242F933F934F935F936F9336
:104580007F938F939F93AF93BF93EF93FF938BE6AC
:1045900096E00E943D21FF91EF91BF91AF919F91D5
:1045A0008F917F916F915F914F913F912F910F90DC
:1045B0000FBE0F901F9018951F920F920FB60F927B
:1045C00011242F933F934F935F936F937F938F9318
:1045D0009F93AF93BF93EF93FF938BE194E00E947F
:1045E000A721FF91EF91BF91AF919F918F917F9103
:1045F0006F915F914F913F912F910F900FBE0F9050
:104600001F9018951F920F920FB60F9211242F939F
:104610003F934F935F936F937F938F939F93AF934A
:10462000BF93EF93FF938BE194E00E943D21FF91B4
:10463000EF91BF91AF919F918F917F916F915F911A
:104640004F913F912F910F900FBE0F901F90189593
:10465000CF93DF93282F30E0F901E95CF34F849189
:10466000F901E95AF34FD491F901EF57F34FC4918F
:10467000CC2391F081110E944822EC2FF0E0EE0F44
:10468000FF1FE35DF34FA591B491EC91ED2381E021
:1046900090E021F480E002C080E090E0DF91CF91D3
:1046A00008951F93CF93DF93282F30E0F901E95C41
:1046B000F34F8491F901E95AF34FD491F901EF577F
:1046C000F34FC491CC23C9F0162F81110E944822C8
:1046D000EC2FF0E0EE0FFF1FE958F34FA591B491D6
:1046E0008FB7F894111105C09C91ED2FE095E92347
:1046F00002C0EC91ED2BEC938FBFDF91CF911F9116
:10470000089590911101981324C0E1EAFCE0E4912E
:104710009FEF90931101E130B9F098F0E230C9F4C5
:10472000909170009D7F9093700091E09093B00005
:104730009091B100987F94609093B1001092B30073
:1047400008C010926E0005C090916F009D7F9093FD
:104750006F0060E00C9451231F920F920FB60F92DE
:1047600011242F933F934F935F936F937F938F9376
:104770009F93AF93BF93EF93FF9380911008909115
:104780001108A0911208B0911308892B8A2B8B2B4A
:1047900051F180910F08E0910D08F0910E08908181
:1047A000892780838091100890911108A0911208A8
:1047B000B0911308181619061A061B06C4F4809146
:1047C000100890911108A0911208B0911308019758
:1047D000A109B1098093100890931108A0931208C1
:1047E000B093130804C0809111010E948123FF91AE
:1047F000EF91BF91AF919F918F917F916F915F9159
:104800004F913F912F910F900FBE0F901F901895D1
:10481000CF93DF9390E0FC01E95AF34F2491FC0120
:10482000EF57F34F8491882361F190E0880F991F2F
:10483000FC01ED5DF34FC591D491FC01E958F34FB4
:10484000A591B491611109C09FB7F8948881209512
:1048500082238883EC912E230BC0623061F49FB7D2
:10486000F8943881822F809583238883EC912E2BB6
:104870002C939FBF06C08FB7F894E8812E2B288316
:104880008FBFDF91CF9108953F924F925F926F92C9
:104890007F928F929F92AF92BF92CF92DF92EF92D0
:1048A000FF920F931F93CF93DF9300D000D0CDB72B
:1048B000DEB790911101981721F09F3F09F036C2A1
:1048C00004C0E1EAFCE0349081C080931101E1EA88
:1048D000FCE0E491EF3F09F429C2E13031F1E2302C
:1048E00009F44BC0E11171C014BC15BC94B59260C1
:1048F00094BD95B5916095BDA82FB0E0FD01EF572F
:10490000F34FE491F0E0EE0FFF1FE958F34F0591EC
:1049100014911093040800930308FD01E95AF34F22
:10492000E491E0930208312C53C010928000109261
:104930008100909181009860909381009091810016
:10494000916090938100A82FB0E0FD01EF57F34FE5
:10495000E491F0E0EE0FFF1FE958F34F0591149139
:104960001093010800930008FD01E95AF34FE49108
:10497000E093FF07332433942BC01092B0001092C1
:10498000B1009091B00092609093B0009091B1000E
:1049900091609093B100A82FB0E0FD01EF57F34F65
:1049A000E491F0E0EE0FFF1FE958F34F05911491E9
:1049B00010930E0800930D08FD01E95AF34FE4919E
:1049C000E0930F0802E0302E03C03E2E37FCAEC14C
:1049D00029013A018B0161E00E9408244801A12CC1
:1049E000B12C832D8D7F09F0BBC060E072E18AE7B6
:1049F00090E0A50194010E94804429833A834B836F
:104A00005C8369017A0121E0C21AD108E108F1084A
:104A10008FEFC816D104E104F10409F008F44CC08A
:104A200060E472E48FE090E0A50194010E9480446C
:104A300069017A01E1E0CE1AD108E108F108F2E05B
:104A40003F1220C02FEFC216D104E104F10409F097
:104A500008F46AC160E970ED83E090E0A50194017B
:104A60000E94804469017A0181E0C81AD108E108F6
:104A7000F108EFEFCE16D104E104F10409F0D0F50E
:104A800083E067C0FFEFCF16D104E104F104B1F079
:104A9000A8F068E478EE81E090E0A50194010E941E
:104AA000804469017A0181E0C81AD108E108F1085F
:104AB000332009F4DFC02FC181E001C082E0332040
:104AC000A1F047C089819A81AB81BC812AE0B5956C
:104AD000A795979587952A95D1F76C017D0121E0DF
:104AE000C21AD108E108F10885E095B5987F892BB5
:104AF00085BD6FC068E478EE81E090E0A501940187
:104B00000E94804469017A01F1E0CF1AD108E108DE
:104B1000F1082FEFC216D104E104F10409F008F402
:104B2000A7C064E274EF80E090E0A50194010E94C8
:104B3000804469017A01E1E0CE1AD108E108F10868
:104B4000FFEFCF16D104E104F10411F008F0B4C076
:104B500085E09091B100987F892B8093B10039C096
:104B600060E072E18AE790E0A50194010E94804430
:104B700069017A0181E0C81AD108E108F108C1147D
:104B8000D104E1E0EE06F10488F068E478EE81E01B
:104B900090E0A50194010E94804469017A01F1E04E
:104BA000CF1AD108E108F10893E001C091E021E0BB
:104BB00032120FC080918100887F892B8093810001
:104BC000411451046104710449F42FEF3FEFA9012E
:104BD0002DC0411451046104710471F0D801AA0F71
:104BE000BB1FA30192010E949F4428EE33E040E0E6
:104BF00050E00E94B24403C02FEF3FEFA90181E0D3
:104C00003816A1F0E2E03E1619F131108FC0C7BC92
:104C10002093090830930A0840930B0850930C081E
:104C200080916E00826080936E0080C0D092890077
:104C3000C092880020930508309306084093070827
:104C40005093080880916F00826080936F006EC05F
:104C5000C092B300209310083093110840931208BB
:104C600050931308809170008260809370005EC042
:104C700084E06FCFFFEFCF16D104E104F104D1F04F
:104C8000C8F062E17AE780E090E0A50194010E941B
:104C9000804469017A0181E0C81AD108E108F1086D
:104CA000EFEFCE16D104E104F10411F008F00ACFC1
:104CB00084E01BCF83E019CF62E17AE780E090E0E7
:104CC000A50194010E94804469017A0181E0C81A1B
:104CD000D108E108F108EFEFCE16D104E104F104A8
:104CE000C1F0B8F089819A81AB81BC814AE0B59569
:104CF000A795979587954A95D1F76C017D0121E09D
:104D0000C21AD108E108F108332009F4EDCE87E09A
:104D100020CF86E0D4CEFFEFCF16D104E104F1041A
:104D200009F050F684E0CBCE82E013CF0F900F90C5
:104D30000F900F90DF91CF911F910F91FF90EF9007
:104D4000DF90CF90BF90AF909F908F907F906F90AB
:104D50005F904F903F9008951F93CF93DF93182F4C
:104D6000EB0161E00E940824209711F460E004C088
:104D7000CF3FD10539F461E0812FDF91CF911F91B1
:104D80000C945123E12FF0E0E95CF34FE491E33020
:104D9000F9F048F4E130B9F0E230A1F584B5806271
:104DA00084BDC8BD34C0E730E9F0E83019F1E43023
:104DB00049F580918000806280938000D0938B00C1
:104DC000C0938A0024C084B5806884BDC7BD1FC05D
:104DD00080918000806880938000D0938900C09388
:104DE000880015C08091B00080688093B000C093A7
:104DF000B3000DC08091B00080628093B000C0937A
:104E0000B40005C0C038D1050CF0B5CFAFCFDF91ED
:104E1000CF911F910895883010F497E003C0883136
:104E200018F09FE1981B892F8770806480937C0025
:104E300080917A00806480937A0080917A0086FD68
:104E4000FCCF809178002091790090E0922B08951A
:104E50003FB7F8948091FB079091FC07A091FD0764
:104E6000B091FE0726B5A89B05C02F3F19F001960B
:104E7000A11DB11D3FBFBA2FA92F982F8827820FE0
:104E8000911DA11DB11DBC01CD0142E0660F771F30
:104E9000881F991F4A95D1F708958F929F92AF92DC
:104EA000BF92CF92DF92EF92FF926B017C010E9442
:104EB00028274B015C01C114D104E104F104F1F095
:104EC0000E942827DC01CB0188199909AA09BB098E
:104ED000883E9340A105B10570F321E0C21AD108C4
:104EE000E108F10888EE880E83E0981EA11CB11C31
:104EF000C114D104E104F10419F7DDCFFF90EF9064
:104F0000DF90CF90BF90AF909F908F9008952FB774
:104F1000F8946091F7077091F8078091F9079091E4
:104F2000FA072FBF08951F920F920FB60F92112408
:104F30002F933F938F939F93AF93BF938091F707E6
:104F40009091F807A091F907B091FA073091F60710
:104F500023E0230F2D3720F40196A11DB11D05C0BC
:104F600026E8230F0296A11DB11D2093F60780931A
:104F7000F7079093F807A093F907B093FA07809189
:104F8000FB079091FC07A091FD07B091FE070196E9
:104F9000A11DB11D8093FB079093FC07A093FD0713
:104FA000B093FE07BF91AF919F918F913F912F9149
:104FB0000F900FBE0F901F9018950F931F93CF93D4
:104FC000DF938C0161308FEF780784F1EB016F3F45
:104FD000710519F014F0CFEFD0E0209731F460E0C4
:104FE000F80180810E9451230BC01C161D0604F598
:104FF000F8018281882369F0BE0180810E94AC267D
:1050000060E0F8018181DF91CF911F910F910C94A5
:105010005123F8018381882359F161E080810E9446
:1050200051236FEF70E06C1B7D0B1AC0C1E0DFEF06
:10503000F8018281882341F0BE0161507F4F808159
:105040000E94AC2661E0DDCFF8018381882381F0E6
:1050500060E080810E945123662777276C1B7D0BBF
:10506000F8018181DF91CF911F910F910C94AC26B3
:10507000DF91CF911F910F910895CF93DF93EC01B2
:1050800061E088810E94082461E089810E940824EF
:1050900060E070E0CE01DF91CF910C94DD27DC0160
:1050A0006C9311964C931197603240F4E62FF0E028
:1050B000E95CF34FE49181E0E11101C080E01296D8
:1050C0008C931297403240F4E42FF0E0E95CF34F08
:1050D000E49181E0E11101C080E013968C93089582
:1050E000FB014181DC0112962C911297421768F066
:1050F00013962C911397241740F0608115962C91EC
:10510000621718F424810C9472220895FC018081A6
:105110009281980F92832181921760F494819F5F0E
:1051200094839381890F821710F08FEF820F83830E
:1051300081E0089580E00895FC0112828081815011
:10514000838314820895DB01ED91FC910994EF9221
:10515000FF920F931F93CF93DF931F92CDB7DEB7CC
:105160008C01DC011296ED90FC901397D196ED9195
:10517000FC91D29782E0099520E030E04AE0B70147
:10518000C8010E94A328F82ED801D196ED91FC9178
:10519000D29783E00995D801D196ED91FC91D297F1
:1051A00080E00995FF20A1F1F801628173819E01E1
:1051B0002F5F3F4F46E4C8010E94A3288981D80190
:1051C0008C9312966D917C9113979E012F5F3F4FA8
:1051D00047E4C8010E94A3288981F8018183628184
:1051E000738120E030E048E4C8010E94A328D80180
:1051F0001B968C931B9798012D5C3F4F12966D91D7
:105200007C91139747E1C8010E94A32881E001C067
:1052100080E00F90DF91CF911F910F91FF90EF9061
:1052200008950B96FC01849108950A96FC018491DF
:10523000089568E00C94AF2B66E00C94AF2B2EE938
:105240003FE0009729F0F9013197F1F70197F9CF85
:1052500008951092590810925808089580934909AA
:105260001092B90088E48093B8000C942929DB01DE
:105270001496ED91FC91159720E030E065E00994DB
:10528000CF92DF92EF92FF920F931F93CF93DF9312
:105290008C017B016A0180E0F601C49181110BC091
:1052A000CF3F09F457C04C2FB701C8010E943729DE
:1052B00081114EC054C0CF3F11F44FEFF5CFCE3F18
:1052C00009F44FC0C03F08F043C0C03E58F04C2F17
:1052D0004F70D7011496ED91FC91159720E030E0C6
:1052E00062E00CC0C03D68F04C2F4F70D70114969F
:1052F000ED91FC91159720E030E063E0C80109953D
:1053000027C0C03CF8F0D7011496ED91FC91159799
:1053100020E030E040E064E0C8010995C295C07F1C
:10532000CE5FD0E0CE010E941F29D7011496ED91E7
:10533000FC91159720E030E041E064E0C801099558
:10534000CE0104C0C7FD04C08C2F90E00E941F292D
:1053500080E001C081E0BFEFCB1ADB0A9DCF80E087
:1053600001C081E0DF91CF911F910F91FF90EF90ED
:10537000DF90CF9008952091560830915708281754
:10538000390771F49091550880915408981741F0AD
:10539000E0915508F0E0EC5EF74F808190E00895D1
:1053A0008FEF9FEF089508951F93CF93DF93DC0154
:1053B0005C962D913C915D972115310539F481E082
:1053C00090E013969C938E9312973DC05196ED9169
:1053D000FC91529750969C915097892F80951FB7BA
:1053E0005E964C915E9741FB772770F941FD609581
:1053F000F8944081772311F0492B01C04823408362
:10540000E9012197F1F748E0508160FF02C0592B74
:1054100001C058235083E9012197F1F76695415067
:1054200099F7772321F090818923808303C08081BD
:10543000982B90831FBF5C968D919C915D970197EF
:10544000F1F721E030E0C901DF91CF911F9108957C
:1054500020915608309157082817390771F4809128
:1054600054082091550890E0805C9F4F821B910961
:1054700060E470E00E942D47089580E090E0089578
:10548000209156083091570828173907B9F49091A0
:10549000550880915408981789F0E0915508F0E07C
:1054A000EC5EF74F80812091550830E02F5F3F4F31
:1054B0002F7333272093550890E008958FEF9FEFC7
:1054C00008958F929F92AF92BF92CF92DF92FF92F8
:1054D0000F931F93CF93DF9300D0CDB7DEB76C014E
:1054E0008B01F42E490120E1421709F456C024171C
:1054F000A0F03AE043135BC0DB011496ED91FC9100
:10550000159720E030E042E061E009954EEB5CE069
:10551000B801C6010E9440294AC081E1481709F438
:105520003FC0A5E14A1343C0FB01A280B38046EB14
:105530005CE0C6010E944029D50114964C91406B55
:10554000B801C6010E943729D8011496ED91FC914B
:10555000159720E030E041E062E0C6010995F501D1
:1055600026813781D8011496ED91FC911597D501CC
:1055700015964C9166E0C6010995811102C080E044
:10558000D3C0D8011496ED91FC91159720E030E03E
:1055900040E063E0C60109950AC04DEA5CE002C044
:1055A00042EA5CE0B801C6010E944029BCC0F80193
:1055B00002811381F2E3FF1609F479C0FF15B8F0F8
:1055C00025E1F21609F480C037E1F31609F492C020
:1055D00084E1F812A8C0D8011696ED91FC911797B6
:1055E00015968C919F01280F311DC90165C0A6E455
:1055F000FA1609F48FC0B7E4FB1609F48FC0EBE389
:10560000FE1291C0D40111968C91119713969C9122
:10561000913029F0933031F4482F885004C048E08D
:10562000480F01C0482F21E0F8013381381708F4F2
:1056300020E031E0D80112965C91451708F430E083
:1056400051E0481708F050E0822F852B382319F4D9
:10565000252309F468C0F401F280913051F030F054
:10566000923049F0933051F42FEF09C020E031E03F
:1056700007C021E004C020E03FEF02C020E030E09E
:10568000F7FE08C0B401C8012A8339830E9470283C
:1056900039812A81D4018C91830F8C9311968C913E
:1056A0001197820F11968C93FF0C51F73CC0B401F7
:1056B000C8010E94702837C01192E817F907E1F776
:1056C000C8010E949C282FC0C8010E9486288823F8
:1056D00009F455CFD8011696ED91FC9117971596C0
:1056E0008C919F01280F311DC9011192E817F9070C
:1056F000E1F719C0D4011C92F801828111968C93B4
:1057000011978581815012968C93129783811396FD
:105710008C9309C0D80115968C9103C0D8011196BD
:105720008C91F401808381E00F900F90DF91CF91F5
:105730001F910F91FF90DF90CF90BF90AF909F90FF
:105740008F900895FC01849108950E94A22B8823D4
:1057500021F0823011F083E0089586E00895FC0185
:10576000E60FF11D849190E0982F88273196E491FF
:105770008E0F911D089590915908911104C0809346
:1057800059086093580808951F93CF93DF9300D072
:10579000CDB7DEB720ED37E03A8329839091BC0086
:1057A000982399F429813A81232B51F48091490956
:1057B000182F127081FD09C081E00E94BB2B06C02A
:1057C00029813A8121503109E7CF11E0812F0F90D3
:1057D0000F90DF91CF911F91089584E98093BC00D1
:1057E00064E080E10C94C42BCF938093BB0084E8E9
:1057F0008093BC0063E080E80E94C42BC82F8823FC
:1058000089F080914909C82FC27081FD0AC080913A
:10581000B900887F883229F063E082E00E94BB2BC8
:1058200001C0C1E08C2FCF910895CF93DF93FC018D
:1058300023A5222379F0EC010E94EF37811102C0E9
:1058400080E009C08EA1811180E40E94F42B88239E
:10585000B9F31BA681E0DF91CF9108950F931F93B9
:10586000CF93C42F89016330C1F050F4613081F0CF
:10587000623009F048C0FC0146A321E023A743C0E1
:10588000663011F1673079F1653009F03CC00EC027
:10589000FC0186A50E942E2936C0FC0116A221E03B
:1058A00023A7411130C00E94ED2B2DC00E94152C62
:1058B000811104C00E94ED2B80E026C08C2F0E9435
:1058C000F42B811120C0F6CF0E94152C882391F370
:1058D000CC23C9F0F80181918F010E94F42B882319
:1058E00049F3C150F5CF0E94152C882319F3CC231E
:1058F00051F0F80184910E94F42B882329F00F5F66
:105900001F4FC150F4CF81E0CF911F910F910895A7
:105910000F93FC010150040F84A996A9941718F065
:10592000081728F402C0081750F0041740F421505B
:10593000260F83A995A9961720F4281720F480E054
:1059400007C0281720F481E0261710F0F8CF81E077
:105950000F910895CF93DF93EC019A01AB011B8E59
:105960001A8E198E188E1F8A1E8A60E079E08DE3E8
:1059700090E00E948044F9012430310518F0C901FB
:10598000039702C081E090E09D8F8C8F8C858032E0
:1059900008F0CDC0B901769567956431710518F0AE
:1059A0006351710902C061E070E07F8B6E8B3697A6
:1059B00020F0B9016550710902C061E070E0798F93
:1059C000688FB901660F771F260F371F3695279509
:1059D000369527952D30310518F02C50310902C02D
:1059E00021E030E03B8F2A8F909168008430C8F02E
:1059F0002CEF280F243088F028EF280F223088F071
:105A000026EF280F243048F022EF280F283038F0F6
:105A10008651823030F081E005C082E003C084E02E
:105A200001C088E0892B809368009C85943008F140
:105A30008CEF890F8430B8F088EF890F8230C8F07E
:105A400086EF890F843078F082EF890F883070F00C
:105A50008AEE890F823068F088EE890F883060F412
:105A60002BE630E00BC02CE630E008C02DE630E03D
:105A700005C023E730E002C020E030E03C8B2B8BF8
:105A8000992309F440C0913009F44BC0923009F4D5
:105A900046C0933009F441C09430A9F1953009F41F
:105AA00040C09630E1F19730C1F1983081F19930E2
:105AB00081F19A3081F19B3061F19C3041F183EFAB
:105AC000890F823010F19F3011F1903111F1913135
:105AD00011F1923111F1933111F1943111F19531AC
