:100000000C9473000C949B000C949B000C94581A55
:100010000C94581A0C94581A0C949B000C943D2480
:100020000C949B000C949B000C949B000C949B00E4
:100030000C949B000C948A1D0C949B000C949B00C8
:100040000C949B000C949B000C94C9200C94FB20F6
:100050000C949B000C949B000C949B000C949B00B4
:100060000C949C0E0C949B00490274023D02870282
:10007000A202A2029C02A202A202A202B0025B029F
:100080000000000800020100000304070000000057
:100090000000000001020408102040800102040852
:1000A00010200102040810200404040404040404C1
:1000B0000202020202020303030303030000000022
:1000C00023002600290000000000250028002B0046
:1000D00000000000240027002A000200C103A40D34
:1000E00081122B21F00311241FBECFEFD8E0DEBF19
:1000F000CDBF12E0A0E0B1E0EEE5F0E502C0059072
:100100000D92AC36B107D9F726E0ACE6B2E001C0FB
:100110001D92A930B207E1F710E0C2E7D0E004C0B9
:100120002197FE010E949A26CE36D107C9F70E9478
:10013000DB240C9422280C9400000F931F93CF9380
:10014000DF931F92CDB7DEB79EEF980F9231D0F4B8
:10015000062F182F682F84E294E079830E94D5112E
:100160005981813079F4402F612F84E294E00E941C
:10017000F011602F812F0F90DF91CF911F910F9180
:100180000C946E1F0F90DF91CF911F910F910895E6
:100190000F931F93CF93863100F58B01C82F682FE3
:1001A00084E294E00E94D5118330B9F4C33041F069
:1001B0008BEF8C0F823020F087EF8C0F833020F490
:1001C000B8018C2F0E94AA1EA8016C2F84E294E033
:1001D000CF911F910F910C94F011CF911F910F911E
:1001E0000895DF92EF92FF920F931F93CF93DF93C7
:1001F000833008F08FC0982F990F990F990F28E03E
:10020000E22EE90E96E19E1510F496E1E92E162FE6
:10021000082FD82FDD0FDD0FDD0FC0E0DD24D394D4
:10022000DE1558F58EEF8D0F823120F56D2F84E2AB
:1002300094E00E94D511813039F06D2F84E294E072
:100240000E94D511811116C0FF24F3948D2D8123B6
:1002500009F4F12C6D2F84E294E00E94D5118130D5
:1002600009F041C0CD294F2D50E06D2F84E294E07C
:100270000E94F011DD0CDF5FD3CF01110AC0CC7FEB
:10028000F8948BB16C2F60956823C123C62BCBB932
:1002900028C00130C9F41C23F89495B18C2F8F73BA
:1002A00080958923912F9F73892B85B988B11295E9
:1002B000169516951370C295C695C695C370C095D0
:1002C000C8231C2B18B90DC0CF70F89488B16C2FBF
:1002D000660F660F60956823C123CC0FCC0FC62B29
:1002E000C8B9789417C06D2F84E294E00E94D511AC
:1002F0008111B9CFFF2009F4B6CF6D2F84E294E0CD
:100300000E94E611019709F4AECF62E08D2F0E94A2
:10031000321FA9CFDF91CF911F910F91FF90EF90E6
:10032000DF900895CF93DF931F92CDB7DEB788306B
:10033000A8F54091EA025091EB0221E030E0672BF2
:1003400081F4B90102C0660F771F8A95E2F7CB01ED
:1003500080959095842395239093EB028093EA02F5
:100360001DC0082E02C0220F331F0A94E2F7242B6F
:10037000352B3093EB022093EA0290916D0291119C
:100380000DC0682F69830E948D1EAC01698184E2D3
:1003900094E00F90DF91CF910C9480110F90DF913A
:1003A000CF910895109270028FEF80930601089507
:1003B000FF920F931F93CF93DF93C82F8B01682F6A
:1003C00084E294E00E94D5118F3709F4C9C06C2FE4
:1003D00084E294E00E94D511863041F4809170024D
:1003E000882321F00630110509F0B7C082EFF82EFE
:1003F000FC0E87E08F1550F061E070E002301105CF
:1004000011F060E070E08F2D0E949201DEEFDC0FB2
:10041000D23118F5AC2FA695A695A6954C2F47700E
:10042000B0E0AF51BD4F0115110519F00B301105AA
:1004300051F481E090E001C0880F4A95EAF79C9161
:10044000892B8C930AC021E030E001C0220F4A952D
:10045000EAF720958C9128232C9340E050E06C2FF4
:1004600084E294E00E94F0110C30110508F06AC09B
:10047000F801EC5CFF4F0C949A2687E08F1508F486
:100480006FC0D23120F460E08C2F0E94321F42E016
:1004900008C0D23108F064C060E08C2F0E94321F87
:1004A00040E06C2F84E294E0DF91CF911F910F9197
:1004B000FF900C94DC11D23108F052C062E08C2F16
:1004C0000E94321F4BE06C2F84E294E00E94DC110A
:1004D00041E050E06C2F84E294E0DF91CF911F91D6
:1004E0000F91FF900C94F011D231D0F56C2F84E273
:1004F00094E00E94D511833021F460E08C2F0E949B
:100500006E1F61E08C2F0E94321F41E0CACFC330C2
:1005100041F08BEF8C0F823020F087EF8C0F83300F
:10052000F8F461E08C2F0E94321F60E070E08C2FA5
:100530000E94AA1E43E0B5CF8EEE8C0F823080F46D
:1005400046E0AFCF6BE171E084E294E0DF91CF91C0
:100550001F910F91FF900C948D110E94D20146CFF4
:10056000DF91CF911F910F91FF900895CF93C0E03D
:100570008EEE8C0F823028F466E070E08C2F0E94A3
:10058000D801CF5FC631A1F781E08093700282E588
:1005900093E0CF910C94130D1F93CF93DF93C82F4B
:1005A000D0E0FE01EF51FD4F9081162F1923CC5161
:1005B000DD4F411103C09881911741F0682F412F01
:1005C00050E084E294E00E9484111883DF91CF917F
:1005D0001F910895833020F5282F30E0F901E9516B
:1005E000FD4F6083672BE1F0F901EF51FD4F9081E2
:1005F000811103C069B16C7F0FC0813049F463B1D0
:1006000036B140E4349F900111246F73622B04C013
:1006100066B16C7366956695692341E00C94CC02D3
:1006200008958091E702882349F069B18091E10241
:1006300068236C7F40E080E00E94CC028091E80259
:10064000882379F063B196B120E4929FC001112410
:100650006F73862B6091E202682340E081E00E9484
:10066000CC028091E902882359F066B16C736695DB
:1006700066958091E302682340E082E00C94CC020E
:10068000089583EF92E00E947B0A25E042E06CE24D
:1006900071E084E294E00E94F31048EC50E060EED8
:1006A00084E294E00E949D1141EF50E060E984E211
:1006B00094E00E949D1142E951E060EC84E294E0F4
:1006C0000E949D114AEE52E060ED84E294E00E94A7
:1006D0009D1148ED51E064EF84E294E00E949D1189
:1006E0004DE950E065EF84E294E00E949D114AE7F5
:1006F00054E060EF84E294E00E94D01148EE58E0AC
:100700006FEF84E294E00E94C91184E294E00E94B9
:10071000B91021E041E06FE571E084E294E00E94CD
:10072000F31040E051EE60E070E084E294E00C945D
:100730006F12833721F48091EC02806205C0813111
:1007400029F48091EC0280648093EC0208958B3050
:1007500021F48091EC02826011C08A3021F48091F2
:10076000EC0280610BC0843021F48091EC02816046
:1007700005C0833029F48091EC0288608093EC02FC
:10078000089520E049E06FEF83E393E00E942B1B84
:1007900043E353E063E08BE293E00E94EB1B20E035
:1007A00049E068E08CE093E00E942B1B6CE073E072
:1007B00088E093E00E94501722E530E045E063E0D6
:1007C00070E083EF92E00E94FB0B0E94D41D6093C7
:1007D000ED027093EE028093EF029093F002089581
:1007E00083EF92E00E94670A8CE093E00E94D21AA5
:1007F00083E393E00C94D21A682F82E593E00C9483
:10080000D40C82E593E00E94800C0895CF92DF9291
:10081000EF92FF920F931F93CF93DF931F92CDB769
:10082000DEB7D82E8B01C42E6F3F7F4FC1F06D2DE8
:1008300082E593E029830E941D0D802F0E94FC0316
:100840002981622F82E593E00E94270D80916E023C
:1008500090916F02009729F00E94441E02C000E0B0
:1008600010E04C2D6D2D82E593E00E949E0DEC2C46
:10087000F12C82E593E00E94780CE816F9061CF44E
:1008800068E671E009C082E593E00E94780C8E155D
:100890009F0534F465E871E084E294E00E948D11D4
:1008A000D09271020093720200E010E00E151F0555
:1008B00094F042E04C0D21E732E067E784E294E0F7
:1008C0000F90DF91CF911F910F91FF90EF90DF90EC
:1008D000CF900C94881182E593E00E94780C892BCC
:1008E00041F30E940104F801EF58FD4F82830F5F2E
:1008F0001F4FDCCFAF92BF92CF92DF92EF92FF9269
:100900000F931F93CF93DF93CDB7DEB76F970FB6DB
:10091000F894DEBF0FBECDBF162F7A01893609F4D9
:1009200032C290F4893009F4D2C238F4833009F429
:1009300042C2843009F48FC2B1C38A3009F42EC395
:100940008B3009F4EDC2AAC38F3609F424C138F400
:100950008B3609F443C18D3609F4B3C19FC3883780
:1009600009F4EDC08A3709F401C1863709F096C34E
:10097000DA0111960C9105FF03C061EA71E060C0D5
:10098000FA01D0808D2D0E949903D70111962C91E8
:1009900026FB222720F981E02827902F9871983094
:1009A00049F148F491117AC36D2D82E593E00E94DC
:1009B0001D0D02E007C0903109F43CC0983109F4E4
:1009C00072C06CC3011768F4F701E00FF11D91814B
:1009D0008081B0E89B9F801911240E94FC030E5F68
:1009E000F1CF82E593E00E94A10D86E490E00E94A1
:1009F000441E54C3F70142816381163089F4F0E844
:100A00006F9FB0011124640F711DD70115968C9151
:100A1000159714964C91B0E88B9F4019112406C08D
:100A2000E0E86E9F401911246FEF7FEF8D2D0E943B
:100A3000060434C3E0910601E7303CF061EC71E05C
:100A400084E294E00E948D1129C3D70112969C91F3
:100A5000129713964C91163089F4B0E84B9FA00181
:100A60001124490F511DD70115968C911597149695
:100A70009C91B0E88B9F9019112406C0F0E84F9F1D
:100A8000901911244FEF5FEFEF5FE093060135E01F
:100A9000E302F0011124EF54FD4FD08252834183D1
:100AA00093832483FBC280910601181614F08FEF04
:100AB00043C090E0482F082E000C550B65E0292F0D
:100AC00030E04217530774F0629FF001639FF00D0E
:100AD0001124EF54FD4F20812D1102C065E026C086
:100AE0009F5FEDCF90E0FACF9830F8F4F90131969E
:100AF0006E9FD0016F9FB00D1124AF54BD4F7C91FC
:100B0000629FF001639FF00D1124EF54FD4F70833D
:100B100011962D913C9112973283218313962C913B
:100B20001397238314962C9124839F5F292F30E001
:100B300042175307CCF6815080930601AFC2DA0109
:100B40002C9111968C91B0E88B9FC0011124820FDB
:100B5000911D009721F090936F0280936E02809117
:100B6000700281119BC20E94B60298C2623008F4E2
:100B700095C2FA0120818181F0E88F9FC001112484
:100B8000820F911D009711F481E090E0909308018D
:100B90008093070183C2623008F480C2DA011196A3
:100BA0006C91119770E01230A1F012968C91B0E820
:100BB0008B9FC0011124682B792B133051F0FA015F
:100BC000838190E090E4899F902D88271124682BE1
:100BD000792BD7018C910E94C80060C260EF84E23B
:100BE00094E00E9491116CE684E294E00E949111DD
:100BF0001EEF84EF810F883058F462E084E294E0C5
:100C00000E9491116AE084E294E00E9491110DC06B
:100C1000113059F463E084E294E00E94911168E09D
:100C200084E294E00E94911108C08DEF810F823020
:100C300088F389EF810F833068F3123150F464E058
:100C400084E294E00E9491116EE084E294E00E94BC
:100C5000911180EF810F823050F466E084E294E0DD
:100C60000E94911161E084E294E00E9491116FE78B
:100C700084E294E00E9491111F5F1431C1F112319E
:100C800008F0B7CF60E084E294E00E94911161E047
:100C900084E294E00E9491116BE084E294E00E946F
:100CA000911161E084E294E00E94911161E084E29C
:100CB00094E00E94911161E084E294E00E9491111D
:100CC00098CF662309F4EAC1FA01108160EF84E24B
:100CD00094E00E9491116EE684E294E00E949111EA
:100CE000612F84E294E00E949111163130F067EF99
:100CF00084E294E00E949111D1C1612F84E294E0DA
:100D00000E94D511682F84E294E00E949111612F16
:100D100084E294E00E94E611682F6F7784E294E009
:100D20000E949111612F84E294E00E94E611807884
:100D3000892B79F0612F84E294E00E94E611880FFC
:100D4000892F881F990B682F6F7784E294E00E94A7
:100D50009111612F84E294E00E94E6118827907C33
:100D6000892B29F2612F84E294E00E94E611990F09
:100D7000880B990F982F881F682F6F7784E294E073
:100D80000E949111B4CF60EF84E294E00E9491112F
:100D90006AE684E294E00E94911112EF183010F498
:100DA000612F01C06FE784E294E00E9491111F5F00
:100DB0001830A1F79CCF8091EC0288608093EC0200
:100DC0006230E9F4DA016C9170E022E530E01196CE
:100DD0004C91CE0101960E94FB0B85E1FE013196FC
:100DE000A3EFB2E001900D928A95E1F7CE01019652
:100DF0000E94670A83EF92E00E947B0A4FC167302E
:100E000009F04CC1FA010681F0E80F9F800111241E
:100E1000DA0115968C911597082B14962C91B0E851
:100E20002B9F90011124FA018381282B4281F0E845
:100E30004F9FA0011124D70111968C911197482B37
:100E40006C9170E083EF92E00E94270C83EF92E0B8
:100E50000E94FE0A23C184E00E94A703133089F494
:100E6000F701808180936C026281F0E86F9FB0018E
:100E70001124D70111969C91692B20E030E0A90143
:100E80001BC01530E1F4F701808180936C0224814E
:100E9000F0E82F9F90011124D70113969C9113978E
:100EA000292B40E050E012966C91B0E86B9FB001A6
:100EB0001124F7019181692B0E949921EFC0113013
:100EC00009F0ECC0D7018C910E942724E7C0FA01F9
:100ED0008181F0E88F9FC0011124DA016C91682BA9
:100EE00070E080E090E01F921F921F9226E22F9305
:100EF00027E0A22EB12CC12CD12C14EBE12EF12C29
:100F000000E010E020E030E0A9010E94992470E0A8
:100F100086E00E94AA1E0F900F900F900F90BEC007
:100F2000633009F0BBC0FA018081813081F028F084
:100F3000823009F1833039F1B1C011812FEF428144
:100F4000612F8BE293E00E94CC1C40E00AC0FA01C2
:100F500011812FEF4281612F8BE293E00E94CC1C24
:100F600041E0612F8BE293E00E94E11C8BE293E071
:100F70000E94F61C93C08BE00E94A7038BE293E0D3
:100F80000E94111C8BC06181662311F0615001C069
:100F90006FEF8BE293E00E945D1D80C0613019F419
:100FA0001092F1027BC0623009F078C08AE00E94A2
:100FB000A70320E049E068E0CE0101960E942B1BC8
:100FC0008B819C8190930F0380930E038D819E8172
:100FD000AF81B8858093100390931103A0931203FF
:100FE000B093130389859A85AB85BC8580931403E0
:100FF00090931503A0931603B09317038D858093E8
:1010000018038E85809319038F85988990931B030D
:1010100080931A03898980931C038A899B89909302
:101020001E0380931D038C899D89909320038093D8
:101030001F038E89809321038F89988D90932303BA
:1010400080932203898D9A8D9093250380932403A6
:101050008B8D9C8D90932703809326038D8D9E8D81
:1010600090932903809328039F8D80912A0390FBFE
:1010700080F99695917090FB81F980932A03CE01B7
:1010800001960E94D21A88E093E00E945417F7015B
:1010900081818093F20281E08093F1026F960FB616
:1010A000F894DEBF0FBECDBFDF91CF911F910F919E
:1010B000FF90EF90DF90CF90BF90AF9008950F9387
:1010C000CF93DF93CDB7DEB760970FB6F894DEBF4E
:1010D0000FBECDBF8091EC0280FF04C080916C02F6
:1010E0000E9427248091EC0281FF05C06FEF8BE204
:1010F00093E00E945D1D8091EC0283FF0DC000E033
:1011000020E040E060E070E083EF92E00E94270C76
:1011100083EF92E00E94FE0A8091EC0284FF04C0FB
:101120008CE093E00E94191A8091EC0285FF20C0A8
:1011300088E0EBE0F1E0DE01199601900D928A95CE
:10114000E1F788E0E3E1F1E0DE01119601900D9214
:101150008A95E1F7AE01475F5F4F68E086E70E943E
:101160007A04AE014F5F5F4F68E086E70E947A0421
:101170008091EC0286FF0EC061E182E593E00E945F
:101180001D0D6CED82E593E00E94D40C82E593E0A6
:101190000E94A10D2091EC0280E090E061E070E0FF
:1011A000AB01082E01C0440F0A94EAF740952423AE
:1011B000019688309105A1F72093EC0260960FB656
:1011C000F894DEBF0FBECDBFDF91CF910F91089590
:1011D000CF930E945F0881E080936D02809170023E
:1011E00081110E94D2011092E7021092E102109246
:1011F000E4021092E8021092E2021092E5021092CC
:10120000E9021092E3021092E602C0E082EF8C0F36
:10121000883018F462E070E006C08EEF8C0F8231E7
:1012200028F461E070E08C2F0E94D801CF5FC631B6
:1012300069F71092EB021092EA0210926D029CE0A4
:1012400088E10FB6F894A895809360000FBE909344
:10125000600060E971E080E090E0CF910C94081E9E
:101260008F929F92AF92BF92CF92DF92EF92FF92B6
:101270000F931F93CF93DF93CDB7DEB72C970FB6A5
:10128000F894DEBF0FBECDBF0E94110384E294E04C
:101290000E945611892B29F084E294E00E94621189
:1012A000F5CF0E94D41D6093DD027093DE0280931F
:1012B000DF029093E002C090D902D090DA02E09071
:1012C000DB02F090DC0240910701509108014A01D5
:1012D000A12CB12C8B019C010C191D092E093F0971
:1012E00080169106A206B306D8F0C090ED02D09009
:1012F000EE02E090EF02F090F0020E94D41D6C1517
:101300007D058E059F0508F05DC00E94D41D609389
:10131000ED027093EE028093EF029093F00252C0C0
:10132000D501C4018C0D9D1DAE1DBF1D8093D9023A
:101330009093DA02A093DB02B093DC0212EF6EE02E
:10134000610F1830D8F484E294E00E94D511823005
:10135000A9F48091EA029091EB02012E02C09595CA
:1013600087950A94E2F780FF09C0812F0E948D1EA5
:10137000AC01612F84E294E00E9480111F5F18305D
:10138000F1F68091060187FDB0CF10E005E0212F36
:1013900030E080910601082E000C990B821793070C
:1013A0000CF4A3CF029FF001039FF00D1124EF5422
:1013B000FD4F618172812481438180810E940604F6
:1013C0001F5FE5CF0E94D41D0091ED021091EE0247
:1013D0002091EF023091F002DC01CB01801B910BD8
:1013E000A20BB30B8D329140A105B10508F45CC08E
:1013F0008091F102882309F44DC08CE093E00E94B3
:101400002F1A8091F202811141C0AE014F5F5F4FF0
:1014100061E088E093E00E9435188823B9F160EF1D
:1014200084E294E00E9491116AE084E294E00E94D8
:1014300091116091F20284E294E00E9491118E0178
:101440000F5F1F4F5E018DE0A80EB11CF801619186
:101450007191819191918F010E945D256B017C01B9
:10146000772784E294E00E942110CD2CDD0CDD086A
:10147000B601772784E294E00E9421100A151B052B
:1014800029F767EF84E294E00E9491118CE093E0E9
:101490000E94191A0E94D41D6093ED027093EE020F
:1014A0008093EF029093F0022C960FB6F894DEBF73
:1014B0000FBECDBFDF91CF911F910F91FF90EF90A5
:1014C000DF90CF90BF90AF909F908F900895CF9373
:1014D000DF93EC0188859985009711F00E944F27D2
:1014E0008E8187FD05C060E0DF91CF910C94321FA3
:1014F000DF91CF910895CF93DF93EC018E8187FD2B
:1015000007C061E00E94321F60E08E810E946E1F62
:1015100081E08983DF91CF910895EF92FF920F933D
:101520001F93CF93DF93EC017B018885998500970A
:1015300011F00E944F279D858A85981719F084E045
:1015400090E002C083E090E08E9D80018F9D100DA1
:101550009E9D100D11241D830C83C8010E94BA2684
:1015600099878887009741F0A80160E070E00E94A9
:10157000E727FB82EA8204C01D821C821B821A823A
:10158000DF91CF911F910F91FF90EF900895FC0193
:1015900031E095858285981330E0CB0126E0969561
:1015A00087952A95E1F7282F23702587CB0144E002
:1015B000969587954A95E1F783708287AB0156959A
:1015C00047955695479543704387962F9370948718
:1015D00091E06F3F710511F008F090E09083408535
:1015E0005185452B51F091E0281390E0931729F095
:1015F00062817381CF010C948D0A0895CF92DF929E
:10160000EF92FF920F931F93CF93DF93CDB7DEB787
:1016100029970FB6F894DEBF0FBECDBF8C01DC0159
:1016200018968D919C911997892B09F4A3C00E945B
:10163000E01DF801C684D784E088F188DC01CB0185
:101640008C199D09AE09BF098C329140A105B105E5
:1016500070F3F894D80114968D919C9115979A8304
:1016600089831896ED91FC9119977F01BFEFEB1AD2
:10167000FB0A80818987F80190810288F389E02D37
:10168000D80154968C91992309F430C09081982BFD
:1016900098879081809589238F838F818E8388E0BE
:1016A0008D8358856F8149853D812E8189819A81FD
:1016B000D701508347FD252F3A952083262F39F0F7
:1016C000441F00C000006083000000C0F2CF38E07B
:1016D0004D9160830000019761F7D8015396FC9308
:1016E000EE93529749873D832E833AC09081982B81
:1016F00098879081809589238F838F818C8388E060
:101700008B8358856F8149853B812C8189819A81A2
:10171000D701508347FD252F00C000C0208300C0A3
:1017200000C000C000C000C060830000262F3A95B2
:1017300041F0441F000000C000C000C000C000C055
:10174000E8CF38E04D9100C0608300C0019709F7F1
:10175000D8015396FC93EE93529749873B832C8391
:101760009A83898378940E94E01DF80166877787C1
:10177000808B918B29960FB6F894DEBF0FBECDBF3C
:10178000DF91CF911F910F91FF90EF90DF90CF905D
:1017900008951F93CF93DF93EC01162F898188233F
:1017A00031F08E8187FD03C060E00E94321F1E83EE
:1017B0008981882341F061E0812F0E94321F60E01F
:1017C000812F0E946E1F812F90E0FC01E855FF4F92
:1017D000E491F0E0EE0FFF1FEA53FF4F25913491A3
:1017E0003B8B2A8BFC01EC56FF4FE491EC8BDF9195
:1017F000CF911F910895EF92FF920F931F93CF9374
:10180000DF931F92CDB7DEB77C018B01FC01118203
:1018100017821186108616861786108A118AB901DA
:1018200049830E94C70AB801C7010E948D0A4981F5
:10183000642FC7010E94C90B85E6F70187830F90CB
:10184000DF91CF911F910F91FF90EF9008950F932B
:101850001F93DC0112968D919C911397681779075D
:1018600008F043C017968C911797882361F0489F22
:10187000A0011124452F289F90011124232F089F98
:1018800080011124012F1D968C911D971A969C9111
:101890001A971896ED91FC911997891308C0CB01FE
:1018A000880F991F680F791F6E0F7F1F0AC0660F80
:1018B000771F660F771F6E0F7F1FFB01E80FF11D6B
:1018C00010821A968C911A97FB01E80FF11D408344
:1018D0001B968C911B97FB01E80FF11D20831C9632
:1018E0008C91FB01E80FF11D00831F910F9108956A
:1018F0008091820390E020918303821B91090895D7
:101900009091830380918203981750F4E92FF0E0BF
:10191000EC57FC4F208130E09F5F9093830302C01F
:101920002FEF3FEFC9010895E09183038091820377
:10193000E81730F4F0E0EC57FC4F808190E0089518
:101940008FEF9FEF08950895CF92DF92EF92FF926D
:101950000F931F93CF93DF937C01262F972F8A013C
:1019600080915E03882391F0C62FD72F6E01C40E9D
:10197000D51ECC15DD0571F06991D701ED91FC9173
:101980000190F081E02DC7010995F3CF642F822FDC
:101990000E94640EC801DF91CF911F910F91FF90BB
:1019A000EF90DF90CF900895CF93DF931F92CDB744
:1019B000DEB7698320915E032223D1F020915F037B
:1019C000203240F021E030E0FC013383228380E0CC
:1019D00090E015C080916003E82FF0E0EF59FC4FD4
:1019E000998190838F5F8093600380935F0305C02C
:1019F00061E0CE0101960E94640E81E090E00F90BC
:101A0000DF91CF910895FC011382128288EE93E05A
:101A1000A0E0B0E084839583A683B78386ED91E050
:101A20009183808308951092830310928203109211
:101A3000600310925F030C94A80D81E080935E0315
:101A4000609381031092600310925F0308950F93D7
:101A5000062F21E040915F0361E673E080918103EE
:101A60000E940E0E1092600310925F0310925E03AC
:101A70000F9108954F925F926F927F92AF92BF92B3
:101A8000CF92EF92FF920F931F93CF93DF935C015E
:101A9000F62ED42F28013901EE2021F10E941D0DD0
:101AA000CE2DC43008F0C3E0C150C0F0D501ED9197
:101AB000FC91B8E0CB9FC0011124A301920104C0A6
:101AC00056954795379527958A95D2F7CA01B9015A
:101AD0000190F081E02DC5010995E6CF60E0C501D8
:101AE0000E94270D4D2FD13208F040E22C2D64E8E2
:101AF00073E08F2D0E94C60D1092830380938203A2
:101B0000DF91CF911F910F91FF90EF90CF90BF90F9
:101B1000AF907F906F905F904F900895CF92EF922B
:101B20000F931F93C22EE12C00E010E098010E9459
:101B30003A0D1F910F91EF90CF90089521E00C94F2
:101B40008E0D61E00C94270D82E593E00C94030D5B
:101B50001092110481E080930F0410920E0461E052
:101B600082E10E946E1F61E083E10E946E1FE9EB3B
:101B7000F0E080818E7F808380818D7F808388E408
:101B80008093B80085E48093BC000895413208F04A
:101B900043C0909111049111FCCF91E090931104F6
:101BA00020930F042FEF2093A4031092E903240F36
:101BB0002093E8039093100490911004880F892BD0
:101BC0008093100480910E04813061F410920E0411
:101BD000809110048093BB008091BC0083FDF8CFFE
:101BE00085EC01C085EE8093BC00809111048130AA
:101BF000E1F38091E903841710F44091E9032AEEA0
:101C000033E0FB01D9018A2F821B841718F48D91D0
:101C10008193F9CF842F089580E008950F93413286
:101C200008F04AC0909111049111FCCF32E030933A
:101C3000110400930F043FEF3093A4031092E903C3
:101C40004093E803FB016AEE73E0DB013A2F361B99
:101C5000341718F431913D93F9CF1092100430915C
:101C60001004880F832B8093100480910E04813020
:101C700061F410920E04809110048093BB00809157
:101C8000BC0083FDF8CF85EC01C085EE8093BC00DD
:101C9000222321F0809111048230D1F38091A4039A
:101CA0008F3F79F08091A403803241F08091A403AA
:101CB000803331F094E005C091E003C092E001C0B0
:101CC00093E0892F0F9108954091C603262F30E0AD
:101CD000240F311D21323105DCF420911104243010
:101CE000C9F4FC0180E090E0861758F43091C603F7
:101CF0002191DC01A853BC4FA30FB11D2C93019679
:101D0000F3CF8091C603680F6093C60380E0089507
:101D100081E0089582E0089585ED8093BC00809174
:101D2000BC0084FDFCCF10921104089585EC8093D3
:101D3000BC001092110408951F920F920FB60F92DB
:101D400011242F933F934F935F936F937F938F93C0
:101D50009F93AF93BF93EF93FF938091B900887FD8
:101D6000803609F49EC078F5883209F45DC090F49D
:101D7000803109F456C038F4882309F4F5C088305E
:101D800009F44FC0F5C0883109F44EC0803209F41F
:101D90005FC0EEC0803409F46AC058F4803309F49F
:101DA00057C0883309F0E4C08093A4030E94960EC4
:101DB000DFC0803509F44FC0883509F45DC0883430
:101DC00009F0D6C0D3C0883909F4C4C0A8F4883754
:101DD00009F467C038F4883609F463C0803709F421
:101DE00060C0C6C0883809F4B5C0803909F45FC046
:101DF000803809F0BDC05BC0803B09F483C038F473
:101E0000803A09F466C0883A09F47CC0B1C0803CCD
:101E100009F4A4C0883C09F4A1C0883B09F487C038
:101E2000A7C08091100410C09091E9038091E8034D
:101E3000981770F5E091E90381E08E0F8093E90334
:101E4000F0E0E651FC4F80818093BB0085EC83C0BD
:101E50008093A4038BC0E091E90381E08E0F80930F
:101E6000E9038091BB00F0E0E651FC4F8083909144
:101E7000E9038091E8036BC0E091E90381E08E0FF4
:101E80008093E9038091BB00F0E0E651FC4F808332
:101E900080910F0481116AC081E080930E0484EA6E
:101EA0005EC083E0809311041092A503CFCF809190
:101EB000A503803208F04EC0E091A50381E08E0FAB
:101EC0008093A5038091BB00F0E0EA55FC4F80832E
:101ED000BDCF0E94960E8091A503803230F4E09130
:101EE000A503F0E0EA55FC4F10826091A50370E075
:101EF000E0910A04F0910B0486EA93E009951092B0
:101F0000A50336C084E0809311041092C703109299
:101F1000C603E0910C04F0910D0409958091C6036D
:101F2000811105C081E08093C6031092C803E0913F
:101F3000C70381E08E0F8093C703F0E0E853FC4FA6
:101F400080818093BB009091C7038091C60398174E
:101F500008F47CCF85E88093BC000AC085EC8093B0
:101F6000BC001092110404C01092A4030E948C0EB5
:101F7000FF91EF91BF91AF919F918F917F916F9161
:101F80005F914F913F912F910F900FBE0F901F9037
:101F90001895862FE0912204F0912304309711F0D8
:101FA000BA0109940895862FE0912004F09121044C
:101FB000309711F0BA0109940895862FE0911E041C
:101FC000F0911F04309711F0BA0109940895862FFB
:101FD000E0911C04F0911D04309711F0BA010994AE
:101FE0000895862FE0911A04F0911B04309711F0A8
:101FF000BA0109940895862FE0911804F09119040C
:10200000309711F0BA0109940895CB01E0911604BC
:10201000F0911704309709F009940895862F642FE2
:10202000E0911404F0911504309711F0A90109947E
:102030000895E0911204F0911304309709F0099487
:102040000895CF93DF9300D0CDB7DEB77A8369834D
:1020500022E030E0AE014F5F5F4F62E070E0805CF5
:102060009F4F0E9485120F900F90DF91CF9108959E
:102070000F931F93CF93DF938C01805C9F4F0E943F
:102080007813E801CE5BDF4F40E450E0B801CE01A9
:102090000E94D714F801E058FF4F10823196118248
:1020A0001082EC5BFF4F108220E030E049EC5FE0F3
:1020B00060EECE010E94191520E030E043ED5FE0B4
:1020C00060E9CE010E94191520E030E041EF5FE0A9
:1020D00060ECCE010E94191520E030E04BEF5FE08C
:1020E00060EDCE010E94191520E030E04DED5FE07B
:1020F00064EFCE010E94191520E030E047EE5FE06A
:1021000065EFCE010E94191520E030E045E050E176
:1021100061E7CE010E945E1520E030E04EE050E124
:1021200060EFCE010E94661598014AED50E169E723
:10213000CE010E944615980144EB50E169EFCE01B3
:102140000E944E1520E030E049E150E16FEFCE01F2
:10215000DF91CF911F910F910C944E1545E062E0F5
:10216000805C9F4F0C944814009711F00C94AE10B3
:102170000895FC01EB53FF4F81E0808308950F9396
:102180001F93FC01E058FF4F2081222381F03196FC
:102190000190F081E02D8F010E5F1F4F30E0225043
:1021A000310941816081805C9F4F0E94E1131F9142
:1021B0000F910895009711F00C94BF100895CF93DC
:1021C000DF93EC01FC01E258FF4F71836083805C78
:1021D0009F4F0E947C13CE010E94AE10CE01DF9172
:1021E000CF910C94BF10AF92BF92CF92DF92EF923B
:1021F000FF920F931F93CF93DF937C01EB01A42EEB
:10220000B22E62EE71E0CE010E9408288C016FE2CE
:1022100070E0CE010E94FD27009739F46CE570E074
:10222000CE010E94FD27009711F0EC012196C70115
:1022300080589F4F6C010115110549F4FE01019072
:102240000020E9F7EC1BEF5FD601EC9305C00C1BF7
:102250001D0B0E5FFC010083F1E8EF0EF11CD701AE
:102260008D919C910E944F27F601008110E0C801DA
:1022700001960E94BA26D7018D939C93FC01E00F32
:10228000F11F1082FC01A082B182A80142505109C5
:10229000BE010296DF91CF911F910F91FF90EF90B9
:1022A000DF90CF90BF90AF900C94EE27FC01E258E6
:1022B000FF4F80819181DC01ED91FC910480F581DB
:1022C000E02D0994CF93DF93EC01FC01E258FF4F1E
:1022D00080819181DC01ED91FC910680F781E02DF8
:1022E00009958F3FBFEF9B0741F0682FCE018E5BB2
:1022F0009F4FDF91CF910C946016DF91CF9108959D
:10230000805C9F4F0C948013805C9F4F0C94B7139C
:1023100050E0805C9F4F0C947A14805C9F4F0C942B
:10232000CB14FC01E258FF4F80819181DC01ED91DB
:10233000FC910190F081E02D0994603DD9F028F4E2
:10234000603971F0603C89F00895643FC1F0653FE9
:10235000D9F0603EE9F45093230440932204089599
:102360005093210440932004089550931B044093FC
:102370001A04089550931904409318040895509333
:102380001F0440931E04089550931D0440931C04A1
:1023900008956F3F21F4509313044093120408955D
:1023A00050931504409314040895860F911DFC0169
:1023B000ED57FF4F80810895860F911DFC01ED5769
:1023C000FF4F80818F3709F040830895860F911D5C
:1023D000860F911DFC01E756FF4F80819181089582
:1023E000860F911D860F911DFC01E756FF4F51830B
:1023F000408308954F925F926F927F92AF92BF9207
:10240000CF92DF92EF92FF920F931F93CF93DF93C0
:10241000D62F5A01C0E06801110FEE08FF0829010C
:10242000330F660877088C2F90E08A159B0594F48B
:10243000C701B6010E94081E61E08D2F0E946E1F29
:10244000C301B2010E94081E60E08D2F0E946E1F22
:10245000CF5FE9CFDF91CF911F910F91FF90EF9068
:10246000DF90CF90BF90AF907F906F905F904F9034
:1024700008950F931F93CF93DF93FC01EB53FF4F0E
:102480002081211127C0EC0161E08DE00E94321F04
:1024900002ED10E028E230E042E050E06DE0CE01D5
:1024A0000E94FA116AEF70E080E090E00E94081E3E
:1024B00028E230E045E050E06DE0CE010E94FA11E4
:1024C0006DE770E080E090E0DF91CF911F910F9178
:1024D0000C94081EDF91CF911F910F910895CF9317
:1024E000DF93EC0126E083E595E00E946420CE01B5
:1024F0000E94391263E575E0CE01DF91CF910C9413
:10250000DF1084E294E00C9438102F923F925F9297
:102510006F927F928F929F92AF92BF92CF92DF92F3
:10252000EF92FF920F931F93CF93DF937C013901BA
:10253000DA015C90232B19F466246A94762C8A01C4
:102540001A01260E371EC0E0D0E0812C912C87E0C6
:10255000C82ED12C0215130509F444C08614970423
:1025600008F068C05801F70180819181FC01A081C9
:10257000B181F80121918F01E22F0C2E01C0EE0FE5
:102580000A94EAF7652D6E2B6F77ED91FC91099512
:102590008FEF881A980AD5016C9170E0C6018C1BE8
:1025A0009D0B02C0759567958A95E2F7562E219688
:1025B000C730D10578F28614970461F2F701808163
:1025C0009181DC01ED91FC91652D6F770190F08197
:1025D000E02D0995BFEF8B1A9B0A551C5524551CFD
:1025E0002797E6CF209731F18614970418F5F70165
:1025F00080819181DC01ED91FC9161E070E001C08E
:10260000660FCA95EAF7615065210190F081E02DCF
:10261000DF91CF911F910F91FF90EF90DF90CF90BE
:10262000BF90AF909F908F907F906F905F903F9002
:102630002F900994DF91CF911F910F91FF90EF9010
:10264000DF90CF90BF90AF909F908F907F906F90D2
:102650005F903F902F900895DF92EF92FF920F933B
:102660001F93CF93DF93FC01A081B1811097C1F13B
:1026700079018A01D62EEC01ED91FC911197019020
:10268000F081E02D60EFCD01099588819981DC0111
:10269000ED91FC910190F081E02D6FE60995888124
:1026A0009981DC01ED91FC910190F081E02D6D2D7F
:1026B00009959801A701B801CE010E948512888171
:1026C0009981DC01ED91FC910190F081E02D67EFA3
:1026D000DF91CF911F910F91FF90EF90DF900994C0
:1026E000DF91CF911F910F91FF90EF90DF900895B0
:1026F000FC01118210820895FC01718360830895AA
:102700000F931F93CF93DF9300D0CDB7DEB75A83DB
:102710004983FC01A081B181109711F18C016031D6
:10272000B8F441155044A0F4ED91FC911197606EFE
:102730000190F081E02DCD01099522E030E0AE015D
:102740004F5F5F4F62E070E0C8010E94851208C0D1
:102750009E012F5F3F4F42E050E0C8010E942C13C2
:102760000F900F90DF91CF911F910F9108950F93CC
:102770001F93CF93DF9300D0CDB7DEB75A83498341
:10278000FC01A081B1811097A9F08C01ED91FC9121
:1027900011976F7060690190F081E02DCD0109956E
:1027A00022E030E0AE014F5F5F4F62E070E0C801B1
:1027B0000E9485120F900F90DF91CF911F910F9182
:1027C0000895CF92DF92EF92FF920F931F93CF93D2
:1027D000DF93FC01A081B181109709F450C068011A
:1027E0008901F42EE62EEC01ED91FC9111970190F8
:1027F000F081E02D60EFCD01099588819981DC01A0
:10280000ED91FC910190F081E02D69E709958881B7
:102810009981DC01ED91FC910190F081E02D6E2D0C
:10282000099588819981DC01ED91FC910190F081FD
:10283000E02D6F2D099576010C0D1D1DE016F1069A
:1028400061F020E030E0A70161E070E0CE010E947D
:102850008512BFEFEB1AFB0AF1CF88819981DC0169
:10286000ED91FC910190F081E02D67EFDF91CF9128
:102870001F910F91FF90EF90DF90CF900994DF911F
:10288000CF911F910F91FF90EF90DF90CF9008951F
:102890000F931F93CF93DF93FC01A081B181109719
:1028A00021F1142F062FEC01ED91FC91119701906D
:1028B000F081E02D69EFCD01099588819981DC01D6
:1028C000ED91FC910190F081E02D602F09958881B8
:1028D0009981DC01ED91FC910190F081E02D612F57
:1028E000DF91CF911F910F910994DF91CF911F91AB
:1028F0000F910895CF92DF92EF92FF920F931F9363
:10290000CF93DF93FC01A081B1811097D9F16901C8
:102910007A01C62F8C01ED91FC9111970190F08105
:10292000E02D60EFCD010995D8018D919C91DC01DE
:10293000ED91FC910190F081E02D6C2F0995E6015D
:10294000EC0CFD1CCE15DF0551F020E030E0AE01AF
:1029500061E070E0C8010E9485122196F3CFF80172
:1029600080819181DC01ED91FC910190F081E02D5D
:1029700067EFDF91CF911F910F91FF90EF90DF9064
:10298000CF900994DF91CF911F910F91FF90EF901D
:10299000DF90CF9008959B01FB0101900020E9F7A3
:1029A0003197AF01461B570B61E70C947A14FC0179
:1029B0007283618354834383158216821086178243
:1029C0001186138612861586148617861686118A36
:1029D000108A138A128A158A148A178A168A118E07
:1029E000108E138E128E158E148E178E168E11A2C7
:1029F00010A213A212A215A214A217A216A211A627
:102A000010A613A612A615A614A617A616A611AAF6
:102A100010AA13AA12AA15AA14AA17AA16AA11AEC6
:102A200010AE13AE12AE81E0672B09F080E0808318
:102A30000895FC01603DD9F028F4603971F0603CE4
:102A400089F00895643FC1F0653FD9F0603EE9F434
:102A500055A344A335872487089557A346A33787F2
:102A60002687089551A740A7318B208B089553A73F
:102A700042A7338B228B089555A744A7358B248B0F
:102A8000089557A746A7378B268B0895693729F4F1
:102A9000FC0157AB46AB318F208F0895FC01693F95
:102AA00019F06F3F31F0089551AF40AF338F228F4F
:102AB000089553AF42AF33A322A30895613729F499
:102AC000FC0153AB42AB378F268F0895FC0155AB09
:102AD00044AB31A320A30895EF92FF920F931F936D
:102AE000CF93DF931F92CDB7DEB77C018A01DC0163
:102AF00013968D919C9114974817590748F4F70144
:102B000041815281FA01E00FF11F608380E01AC019
:102B1000D701D096ED91FC91D197309711F481E0D7
:102B200011C081E0D7018C935C968D919C915D974B
:102B300069830995F70183819481698108171907D1
:102B400070F7DDCF0F90DF91CF911F910F91FF9024
:102B5000EF900895FA0120E030E0CF01841B950B3F
:102B60002617370778F4DA01A20FB31F8C91808300
:102B700011969C91979599279795892B81932E5F14
:102B80003F4FEBCF0895CF93DF93EC01A981BA813A
:102B90006C91613791F1693709F04FC0EEA9FFA937
:102BA000309709F45AC06A857B856330710538F423
:102BB00020E030E040E050E060E070E019C0AD019E
:102BC0004D5F5F4F635071090E94AA15AC014D5FC4
:102BD0005F4F60E0CE010E946C15E981FA819F0190
:102BE0002D5F3F4F428150E0618170E0EEA9FFA967
:102BF000888D998DDF91CF9109948AA99BA9892B02
:102C000061F1AD014F5F5F4F6A857B85615071094E
:102C1000CE010E94AA15AC014F5F5F4F60E0CE016C
:102C20000E946C1569817A816F5F7F4FEAA9FBA9C9
:102C30008E8D9F8DDF91CF910994ECA9FDA93097DE
:102C400061F09D012F5F3F4F4A855B8541505109DF
:102C500088A199A1DF91CF910994DF91CF91089537
:102C6000DC0118961C921E92179715961C921597C8
:102C700016961C92169780E090E013962D913C9149
:102C800014978217930748F41196ED91FC911297CF
:102C9000E80FF91F10820196F0CF19961C92199730
:102CA0001B961C921E921A97DA96ED91FC91DB9777
:102CB000309729F092968D919C919397099408955D
:102CC000CF93DF93EC018985882399F0673F31F436
:102CD0001986CE01DF91CF910C94C3154A855B858F
:102CE000CE010E946C158A859B8501969B878A87F9
:102CF000BFC04F8158854115510509F47FC067FD5C
:102D00007DC04150510958874F83CE010E946C15F8
:102D10008F819885892B09F0ABC08D81882309F4B8
:102D2000A7C0803D09F45CC030F48039F9F0803CE4
:102D300009F44AC061C0843F69F1853FC1F1803E1A
:102D400009F05AC0ECA1FDA1309709F455C0A98142
:102D5000BA818C9111964C9150E090E8899F400D7A
:102D6000511D11246E818C859D8545C0EEA1FFA16A
:102D7000309709F441C0A981BA818C9111964C9188
:102D800050E090E8899F400D511D11246E818E8581
:102D90009F8531C0ECA5FDA5309771F1A981BA815D
:102DA0004C9150E011966C918C899D8924C0EEA5C0
:102DB000FFA5309709F1A981BA814C9150E0119695
:102DC0006C918E899F8917C0E8A5F9A53097A1F06D
:102DD000A981BA814C9150E06E81888999890BC094
:102DE000EAA5FBA5309741F0A981BA814C9150E04A
:102DF0006E818A899B8909951D823AC0603F20F4C3
:102E0000862F8F708E83607F603F21F158F4603C85
:102E1000D9F018F46039A9F02BC0603DA9F0603EEC
:102E200081F026C0693FD9F028F48CE0860F82300B
:102E300040F01EC06F3FE1F4CE01DF91CF910C94C2
:102E4000301682E090E002C081E090E098878F83A6
:102E50006D830EC081E089871B861A8609C0E8ADA4
:102E6000F9AD309729F08A8D9B8DDF91CF91099430
:102E7000DF91CF9108956115710579F0FB01019003
:102E80000020E9F73197AF01461B570BDC01ED91AC
:102E9000FC910280F381E02D099480E090E0089598
:102EA000FC01718360830895CF93DF93FC018281DD
:102EB0009381009759F1EF0126E040E855E260E088
:102EC00070E00E94642062E370E080E090E00E9485
:102ED000081E67EE71E08A819B810E943B1762E3C6
:102EE00070E080E090E00E94081E26E040E051EE95
:102EF00060E070E08A819B810E94642062E370E060
:102F000080E090E0DF91CF910C94081E8081918148
:102F1000009741F040E855E260E070E0DF91CF912A
:102F20000C94561BDF91CF910895CF93DF93D62F4A
:102F3000FC01A281B381109741F0ED91FC911197B2
:102F40000680F781E02DCD010AC080819181009734
:102F500041F0DC01ED91FC910680F781E02D0995AF
:102F6000C82F88EC90E00E94441E809105058111D5
:102F700005C0CA3709F050C081E03DC0813021F45E
:102F8000CB3731F482E037C08230F9F4CD1719F035
:102F90001092050541C083E0809305051092040559
:102FA00010920305C23059F020F4C130A9F586E033
:102FB00009C0C33031F0C43079F582E103C089E043
:102FC00001C08CE08093EE0427C08330B9F4809177
:102FD0000405E82FF0E0E151FB4FC0838F5F809341
:102FE0000405209103052C0F209303059091EE0416
:102FF000891312C084E0809305050EC0843061F40B
:10300000109205052C2F30E0409103054F7750E0DA
:1030100081E02417350709F080E0DF91CF91089512
:10302000CF93DF93EC0188819981892B61F08881AE
:103030009981DC01ED91FC910680F781E02D0995E5
:1030400097FFF5CF0FC08A819B81892B59F08A8128
:103050009B81DC01ED91FC910680F781E02D0995C3
:1030600097FFF5CFDF91CF9108958F929F92AF9206
:10307000BF92EF92FF920F931F93CF93DF937C0148
:10308000062FEA010E94D41D6093EA047093EB04BA
:103090008093EC049093ED04C7010E941018602FF8
:1030A000C7010E949517182F811167C00E94D41D77
:1030B0008090EA049090EB04A090EC04B090ED04B2
:1030C000DC01CB0188199909AA09BB098D3D9540FE
:1030D000A105B10520F360EF71E083E595E00E9462
:1030E0008721C7010E945417013089F4F7018281BA
:1030F0009381009719F069EF71E013C0F7018081A7
:103100009181009709F4E3C069EF71E020C00330BA
:1031100009F0DDC0F70182819381009781F06BE0B7
:1031200072E00E943B1762E370E080E090E00E9452
:10313000081E62E072E0F7018281938115C0F701F9
:1031400080819181009709F4C2C06BE072E00E9417
:103150003B1762E370E080E090E00E94081E62E0AE
:1031600072E0F701808191810E943B1762E370E079
:1031700080E090E00E94081EAAC09091EF04809128
:10318000F004682F70E0792B072E000C880B990B48
:103190000130E9F50E94952520E030E048EC52E44A
:1031A0000E94EB24688379838A839B836091F10476
:1031B00070E0762F66278091F204682B072E000CB2
:1031C000880B990B0E94952520E030E048EC52E4F2
:1031D0000E94EB246C837D838E839F836091F30434
:1031E00070E0762F66278091F404682B072E000C80
:1031F000880B990B0E94952520E030E048EC52E4C2
:103200000E94EB24688779878A879B8760C00E9429
:103210009525688379838A839B836091F10470E0AC
:10322000762F66278091F204682B072E000C880BFE
:10323000990B0E9495256C837D838E839F8360917B
:10324000F30470E0762F66278091F404682B072E34
:10325000000C880B990B0E949525688779878A87CF
:103260009B876091F50470E0762F66278091F604C5
:10327000682B072E000C880B990B0E9495256C87F4
:103280007D878E879F876091F70470E0762F662791
:103290008091F804682B072E000C880B990B0E9474
:1032A0009525688B798B8A8B9B8B6091F90470E0F4
:1032B000762F66278091FA04682B072E000C880B66
:1032C000990B0E9495256C8B7D8B8E8B9F8B812F0C
:1032D000DF91CF911F910F91FF90EF90BF90AF9032
:1032E0009F908F90089520914805309149052817A7
:1032F0003907B9F49091060580910705981789F070
:10330000E0910605F0E0E85FFA4F80812091060524
:1033100030E02F5F3F4F2F7333272093060590E057
:1033200008958FEF9FEF08951F93CF93DF93DC01F4
:103330005C962D913C915D972115310539F481E022
:1033400090E013969C938E9312973DC05196ED9109
:10335000FC91529750969C915097892F80951FB75A
:103360005E964C915E9741FB772770F941FD609521
:10337000F8944081772311F0492B01C04823408302
:10338000E9012197F1F748E0508160FF02C0592B15
:1033900001C058235083E9012197F1F76695415008
:1033A00099F7772321F090818923808303C080815E
:1033B000982B90831FBF5C968D919C915D97019790
:1033C000F1F721E030E0C901DF91CF911F9108951D
:1033D000089520914805309149052817390771F45F
:1033E0009091060580910705981741F0E091060538
:1033F000F0E0E85FFA4F808190E008958FEF9FEF53
:10340000089520914805309149052817390771F42E
:10341000809107052091060590E0805C9F4F821BFC
:10342000910960E470E00E944526089580E090E0F4
:103430000895E0914805F0914905E817F90769F406
:10344000A389B4899C918589809589238C93109256
:1034500049051092480581E0089580E00895CF93D2
:10346000DF93EC018A8D9B8D892BF1F080914805CB
:10347000909149058C179D07B9F0009711F00E94B3
:10348000191A8E8D8E7F8E8F109207051092060569
:10349000D0934905C0934805EB89FC8990818D89BB
:1034A000892B808381E001C080E0DF91CF91089576
:1034B0001F920F920FB60F9211242F933F934F93A9
:1034C0005F936F937F938F939F93AF93BF93EF938C
:1034D000FF93E0914805F0914905309709F451C0F8
:1034E000968DA685B785858591FF04C09C9189231B
:1034F00029F447C09C91892309F043C0A389B4896A
:103500009C918589809589238C93868997890197D9
:10351000F1F7608D718DA685B785558538E020E07F
:10352000CB010197F1F7822F90E095958795282F91
:103530004C91452309F02068315091F7868D81FD2B
:1035400020958091070590E001968F73992730911F
:103550000605381749F0A0910705B0E0A85FBA4FFB
:103560002C938093070503C0868D8160868F828DA2
:10357000938D0197F1F7A389B4899C918589892B53
:103580008C93FF91EF91BF91AF919F918F917F911C
:103590006F915F914F913F912F910F900FBE0F90C0
:1035A0001F90189520E332E0FC01318320830C94B6
:1035B000191A1F93CF93DF93EC01162F6E8D66952A
:1035C000617081E06827812F0E946E1F61E0812F6A
:1035D0000E94321F612F70E0FB01EC56FF4FE49117
:1035E000E88BFB01E855FF4FE491F0E0EE0FFF1F81
:1035F000EA53FF4F859194919A8B898BDF91CF91FC
:103600001F9108951F93CF93DF93EC01162F60E075
:10361000812F0E94321F8E8D81FD04C061E0812FB9
:103620000E946E1F1C87612F70E0FB01EC56FF4F5C
:10363000E491ED87FB01E855FF4FE491F0E0EE0FD8
:10364000FF1FE454FF4F859194919F878E87DF91F0
:10365000CF911F9108951F93CF93DF93EC01162F05
:103660001B821A8288EE93E0A0E0B0E08C839D83F9
:10367000AE83BF8380E392E0998388831F8A1E8A8A
:10368000198E188E1B8E1A8E1D8E1C8E8E8D8E7F1F
:1036900020FB81F98E8F642FCE010E94D91A612FF1
:1036A000CE01DF91CF911F910C94021BCF93DF933A
:1036B000EC019A01AB011B8E1A8E198E188E1F8A8F
:1036C0001E8A60E079E08DE390E00E947B26F9019C
:1036D0002430310518F0C901039702C081E090E061
:1036E0009D8F8C8F6C85663108F069C0C9019695F5
:1036F00087958431910510F0439702C081E090E0F6
:103700009F8B8E8B369718F0C901059702C081E018
:1037100090E0998F888FC901880F991F280F391F52
:1037200036952795369527952D30310518F02C5074
:10373000310902C021E030E03B8F2A8F9091680070
:10374000683050F021E06E3008F420E081E001C0E4
:10375000880F2A95EAF701C084E0892B80936800DE
:103760008C85883038F08E3040F0863148F020E08B
:1037700030E008C02DE630E005C02BE630E002C0A6
:103780002CE630E03C8B2B8B883030F491E001C08C
:10379000990F8A95EAF70EC0282F30E08E3018F482
:1037A0002850310902C02E50310991E001C0990F13
:1037B0002A95EAF79D8B8C8D9D8D0197F1F7CE01AF
:1037C000DF91CF910C942F1ADC01ED91FC910190C7
:1037D000F081E02D09940F931F93CF93DF938C0119
:1037E000FC01178216825583448360831182C62FA1
:1037F000D0E0CC0FDD1FCE010E94BA26F8019383E2
:103800008283009749F0AE0160E070E0DF91CF91D4
:103810001F910F910C94E727DF91CF911F910F918A
:103820000895FC0184819581009739F040E855E2C4
:1038300060E070E00E94561B09C026E040E855E2B7
:1038400060E070E0868197810E94642064E670E009
:1038500080E090E00C94081E242FFA01862F9E2F02
:10386000921B961718F491918927F9CF0895CF925A
:10387000DF92EF92FF921F93CF93DF93EC017B01D6
:10388000142F8C819D81C42ED12C009751F1DC0125
:10389000ED91FC910190F081E02D6AE709958C8112
:1038A0009D81DC01ED91FC910190F081E02D6BE7B1
:1038B00009958C819D81DC01ED91FC910190F08155
:1038C000E02D612F09958C819D81DC01ED91FC91AA
:1038D0000280F381E02DA601B7010995CC80DD803F
:1038E00023C06AE770E08E819F810E94E41B6BE732
:1038F00070E08E819F810E94E41B8E819F81DC019C
:10390000ED91FC910190F081E02D612F09958E8160
:103910009F81DC01ED91FC910280F381E02DA601F5
:10392000B7010995CE80DF80A701612FCE010E94EB
:103930002C1CD601ED91FC910190F081E02D682FB7
:10394000C601DF91CF911F91FF90EF90DF90CF9054
:103950000994DC018C916817F0F470E0660F771F12
:103960001296ED91FC911397E60FF71F80818078F6
:1039700080831296ED91FC911397E60FF71F4F7716
:103980008081482B408312968D919C911397FC0166
:10399000E60FF71F218308954B3090F4FC0131812D
:1039A000311105C0E42FF0E0EA5BFD4F06C0313075
:1039B00039F4E42FF0E0E45CFD4F40810C94A91C45
:1039C0000895DC012C91621780F470E01296ED915D
:1039D000FC911397660F771FE60FF71F8081442332
:1039E00011F0806801C08F7780830895FF920F9354
:1039F0001F93CF93DF9300D0CDB7DEB78C01DC01EE
:103A0000FC90FF20C1F0F80132812381832F922F97
:103A10008F0D911D8F0D911DFC013297808189833F
:103A200081818A8342E0BE016F5F7F4FC8010E949F
:103A3000371CFA94E6CFD80114968D919C91159776
:103A40000097B9F0DC01ED91FC910190F081E02D3F
:103A50006AE70995F80184819581DC01ED91FC917B
:103A60000190F081E02D6CE70995F8018481958142
:103A700013C06AE770E0F801868197810E94E41B19
:103A80006CE770E0D80116968D919C9117970E9473
:103A9000E41BF80186819781DC01ED91FC91019096
:103AA000F081E02DD8016C9109950F900F90DF9176
:103AB000CF911F910F91FF9008950F931F93CF9374
:103AC000DF93EC01162F6F3FA9F400E010E088812E
:103AD00090E008171907BCF440E0602FCE010E9467
:103AE000E11C22E340E0602FCE010E94A91C0F5F81
:103AF0001F4FEDCF40E00E94E11C22E340E0612F28
:103B0000CE010E94A91CCE01DF91CF911F910F9190
:103B10000C94F61C1F920F920FB60F9211242F9344
:103B20003F938F939F93AF93BF9380914B05909159
:103B30004C05A0914D05B0914E0530914A0523E00A
:103B4000230F2D3720F40196A11DB11D05C026E8D5
:103B5000230F0296A11DB11D20934A0580934B05AA
:103B600090934C05A0934D05B0934E0580914F0561
:103B700090915005A0915105B09152050196A11D5B
:103B8000B11D80934F0590935005A0935105B093BC
:103B90005205BF91AF919F918F913F912F910F90BF
:103BA0000FBE0F901F9018952FB7F89460914B059A
:103BB00070914C0580914D0590914E052FBF089551
:103BC0004FB7F89480914F0590915005A091510501
:103BD000B09152052091840030918500B09B05C0C2
:103BE0002F3F19F00196A11DB11D4FBFBA2FA92F6C
:103BF000982F8827820F911DA11DB11DBC01CD01F9
:103C000042E0660F771F881F991F4A95D1F70895E4
:103C10008F929F92AF92BF92CF92DF92EF92FF92DC
:103C20006B017C010E94E01D4B015C01C114D104B9
:103C3000E104F10401F10E94EA240E94E01DDC018C
:103C4000CB0188199909AA09BB09883E9340A105AF
:103C5000B10560F321E0C21AD108E108F10888EE4D
:103C6000880E83E0981EA11CB11CC114D104E1048C
:103C7000F10419F7DBCFFF90EF90DF90CF90BF906A
:103C8000AF909F908F9008958230910538F0880F03
:103C9000991F880F991F05970197F1F70895789458
:103CA00084B5826084BD84B5816084BD85B584603F
:103CB00085BD85B5816085BDE1E8F0E01082808139
:103CC000886080838081826080838081816080833E
:103CD000E0E8F0E0808181608083EFE6F0E08081C1
:103CE00081608083E1EBF0E0808184608083E0EBA1
:103CF000F0E0808181608083EAE7F0E08081846089
:103D000080838081826080838081816080838081E4
:103D1000806880831092C10008958E3008F08E5024
:103D200087702091090190E4299F90011124822B32
:103D300080937C0080917A00806480937A008091E7
:103D40007A0086FDFCCF809178002091790090E088
:103D5000922B08951F93CF93DF93182FEB0161E00F
:103D60000E94321F209711F460E004C0CF3FD105BC
:103D700039F461E0812FDF91CF911F910C946E1F78
:103D8000E12FF0E0E058FF4FE491E330F9F048F420
:103D9000E130B9F0E230A1F584B5806284BDC8BDE0
:103DA00034C0E730E9F0E83019F1E43049F58091AA
:103DB0008000806280938000D0938B00C0938A0043
:103DC00024C084B5806884BDC7BD1FC080918000B9
:103DD000806880938000D0938900C093880015C0CC
:103DE0008091B00080688093B000C093B3000DC094
:103DF0008091B00080628093B000C093B40005C091
:103E0000C038D1050CF0B5CFAFCFDF91CF911F9166
:103E10000895833081F028F4813099F08230A1F048
:103E200008958730A9F08830B9F08430D1F48091BA
:103E300080008F7D03C0809180008F778093800009
:103E4000089584B58F7702C084B58F7D84BD0895B1
:103E50008091B0008F7703C08091B0008F7D8093F8
:103E6000B0000895CF93DF9390E0FC01EC56FF4F34
:103E70002491FC01E855FF4F8491882361F190E083
:103E8000880F991FFC01E053FF4FC591D491FC01AD
:103E9000EA53FF4FA591B491611109C09FB7F894FF
:103EA0008881209582238883EC912E230BC0623079
:103EB00061F49FB7F8943881822F8095832388839B
:103EC000EC912E2B2C939FBF06C08FB7F894E881FE
:103ED0002E2B28838FBFDF91CF9108951F93CF930F
:103EE000DF93282F30E0F901E058FF4F8491F9016A
:103EF000EC56FF4FD491F901E855FF4FC491CC2304
:103F0000C9F0162F81110E94091FEC2FF0E0EE0F6F
:103F1000FF1FEA53FF4FA591B4918FB7F894111189
:103F200005C09C91ED2FE095E92302C0EC91ED2BAB
:103F3000EC938FBFDF91CF911F910895FC01918D7C
:103F4000228D892F90E0805C9F4F821B91098F7397
:103F500099270895FC01918D828D981731F0828DFB
:103F6000E80FF11D858D90E008958FEF9FEF089584
:103F7000FC01918D828D981761F0828DDF01A80F71
:103F8000B11D5D968C91928D9F5F9F73928F90E093
:103F900008958FEF9FEF089581E291E2892B49F018
:103FA00080E090E0892B29F00E94212181110C945E
:103FB00000000895FC01848DDF01A80FB11DA35AF4
:103FC000BF4F2C91848D90E001968F739927848F39
:103FD000A689B7892C93A089B1898C9180648C9330
:103FE000938D848D981306C00288F389E02D80811B
:103FF0008F7D80830895CF93DF93EC01888D882394
:10400000C9F0EA89FB89808185FD05C0A889B98945
:104010008C9186FD0FC00FB607FCF5CF808185FF20
:10402000F2CFA889B9898C9185FFEDCFCE010E948E
:10403000DA1FE7CFDF91CF910895EF92FF920F93B0
:104040001F93CF93DF93EC0181E0888F9B8D8C8D44
:10405000981305C0E889F989808185FD24C0F62E72
:104060000B8D10E00F5F1F4F0F731127E02E8C8D0B
:10407000E8120CC00FB607FCFACFE889F9898081F5
:1040800085FFF5CFCE010E94DA1FF1CF8B8DFE01A7
:10409000E80FF11DE35AFF4FF0820B8FEA89FB898D
:1040A0008081806207C0EE89FF896083E889F98991
:1040B00080818064808381E090E0DF91CF911F91C7
:1040C0000F91FF90EF900895CF92DF92EF92FF92C1
:1040D0001F93CF93DF93EC016A017B01122FE889D4
:1040E000F98982E080834115514E61057105B1F077
:1040F00060E079E08DE390E0A70196010E945926E7
:10410000DA01C9010197A109B109B695A79597955B
:104110008795AC01411580E15807A8F0E889F98935
:10412000108260E874E88EE190E0A70196010E9499
:104130005926BA01A90141505109610971097695C1
:10414000679557954795EC85FD855083EE85FF85EE
:104150004083188EEC89FD891083EA89FB89808170
:1041600080618083EA89FB89808188608083EA8915
:10417000FB89808180688083EA89FB8980818F7DCB
:104180008083DF91CF911F91FF90EF90DF90CF90D0
:1041900008951F920F920FB60F9211242F938F93B1
:1041A0009F93EF93FF93E0916305F0916405808105
:1041B000E0916905F0916A0582FD12C090818091BD
:1041C0006C058F5F8F7320916D05821751F0E09120
:1041D0006C05F0E0ED5AFA4F958F80936C0501C0A5
:1041E0008081FF91EF919F918F912F910F900FBE42
:1041F0000F901F9018951F920F920FB60F921124D7
:104200002F933F934F935F936F937F938F939F93DE
:10421000AF93BF93EF93FF9383E595E00E94DA1F7E
:10422000FF91EF91BF91AF919F918F917F916F918E
:104230005F914F913F912F910F900FBE0F901F9064
:10424000189583E595E00E949E1F21E0892B09F4D3
:1042500020E0822F0895E3E5F5E01382128288EED4
:1042600093E0A0E0B0E084839583A683B78384E5E0
:1042700092E09183808385EC90E09587848784EC3D
:1042800090E09787868780EC90E0918B808B81EC23
:1042900090E0938B828B82EC90E0958B848B86EC04
:1042A00090E0978B868B118E128E138E148E08954C
:1042B000CF92DF92EF92FF920F931F93CF93DF93F2
:1042C0006C017A018B01C0E0D0E0CE15DF0589F0EA
:1042D000D8016D918D01D601ED91FC910190F08195
:1042E000E02DC6010995892B11F47E0102C02196AB
:1042F000ECCFC701DF91CF911F910F91FF90EF900D
:10430000DF90CF90089561E172E00C943B170F931A
:104310001F93CF93DF93EC010E943B178C01CE01DA
:104320000E948321800F911FDF91CF911F910F91E8
:1043300008953F924F925F926F927F928F929F92D9
:10434000AF92BF92CF92DF92EF92FF920F931F93A3
:10435000CF93DF9300D000D0CDB7DEB790910A01A4
:10436000981721F09F3F09F03CC204C0EAEDF0E04D
:10437000349087C080930A01EAEDF0E0E491EF3FCA
:1043800009F42FC2E13041F1E23009F44FC0E111EC
:1043900077C014BC15BC10926E0094B5926094BDA9
:1043A00095B5916095BDA82FB0E0FD01E855FF4F90
:1043B000E491F0E0EE0FFF1FEA53FF4F05911491D7
:1043C000109300060093FF05FD01EC56FF4FE491AA
:1043D000E093FE05312C57C01092800010928100AE
:1043E00010926F009091810098609093810090915D
:1043F0008100916090938100A82FB0E0FD01E85505
:10440000FF4FE491F0E0EE0FFF1FEA53FF4F0591DD
:1044100014911093F9050093F805FD01EC56FF4F38
:10442000E491E093F705332433942DC01092B0004B
:104430001092B100109270009091B0009260909331
:10444000B0009091B10091609093B100A82FB0E0BE
:10445000FD01E855FF4FE491F0E0EE0FFF1FEA5336
:10446000FF4F059114911093F2050093F105FD01A2
:10447000EC56FF4FE491E093F00502E0302E03C0CC
:104480003E2E37FCAEC129013A018B0161E00E944A
:10449000321F4801A12CB12C832D8D7F09F0BBC0A8
:1044A00060E072E18AE790E0A50194010E947B261A
:1044B00029833A834B835C8369017A0121E0C21A24
:1044C000D108E108F1088FEFC816D104E104F10426
:1044D00009F008F44CC060E472E48FE090E0A501BC
:1044E00094010E947B2669017A01E1E0CE1AD1088D
:1044F000E108F108F2E03F1220C02FEFC216D1040C
:10450000E104F10409F008F46AC160E970ED83E0A8
:1045100090E0A50194010E947B2669017A0181E067
:10452000C81AD108E108F108EFEFCE16D104E10472
:10453000F10409F0D0F583E067C0FFEFCF16D10496
:10454000E104F104B1F0A8F068E478EE81E090E0D5
:10455000A50194010E947B2669017A0181E0C81AB5
:10456000D108E108F108332009F4DFC02FC181E050
:1045700001C082E03320A1F047C089819A81AB81DC
:10458000BC812AE0B595A795979587952A95D1F78F
:104590006C017D0121E0C21AD108E108F10885E033
:1045A00095B5987F892B85BD6FC068E478EE81E072
:1045B00090E0A50194010E947B2669017A01F1E057
:1045C000CF1AD108E108F1082FEFC216D104E10497
:1045D000F10409F008F4A7C064E274EF80E090E011
:1045E000A50194010E947B2669017A01E1E0CE1ABF
:1045F000D108E108F108FFEFCF16D104E104F1047E
:1046000011F008F0B4C085E09091B100987F892B3B
:104610008093B10039C060E072E18AE790E0A501C3
:1046200094010E947B2669017A0181E0C81AD108B1
:10463000E108F108C114D104E1E0EE06F10488F0CC
:1046400068E478EE81E090E0A50194010E947B2669
:1046500069017A01F1E0CF1AD108E108F10893E08D
:1046600001C091E021E032120FC080918100887F6B
:10467000892B80938100411451046104710449F431
:104680002FEF3FEFA9012DC04114510461047104C3
:1046900071F0D801AA0FBB1FA30192010E94A026AE
:1046A00028EE33E040E050E00E94592603C02FEF8F
:1046B0003FEFA90181E03816A1F0E2E03E1619F1C2
:1046C00031108FC0C7BC209301063093020640937F
:1046D00003065093040680916E00826080936E0002
:1046E00080C0D0928900C09288002093FA05309350
:1046F000FB054093FC055093FD0580916F0082609F
:1047000080936F006EC0C092B3002093F305309386
:10471000F4054093F5055093F60580917000826092
:10472000809370005EC084E06FCFFFEFCF16D1049E
:10473000E104F104D1F0C8F062E17AE780E090E0B2
:10474000A50194010E947B2669017A0181E0C81AC3
:10475000D108E108F108EFEFCE16D104E104F1042D
:1047600011F008F00ACF84E01BCF83E019CF62E19B
:104770007AE780E090E0A50194010E947B26690120
:104780007A0181E0C81AD108E108F108EFEFCE16EE
:10479000D104E104F104C1F0B8F089819A81AB81C0
:1047A000BC814AE0B595A795979587954A95D1F72D
:1047B0006C017D0121E0C21AD108E108F108332023
:1047C00009F4EDCE87E020CF86E0D4CEFFEFCF1600
:1047D000D104E104F10409F050F684E0CBCE82E08C
:1047E00013CF0F900F900F900F90DF91CF911F91EB
:1047F0000F91FF90EF90DF90CF90BF90AF909F9080
:104800008F907F906F905F904F903F900895813090
:1048100039F018F0823051F0089510926E0008952A
:1048200080916F008D7F80936F000895809170005C
:104830008D7F8093700081E08093B0008091B10003
:10484000887F84608093B1001092B3000895CF9365
:10485000C82F80910A018C1307C0EAEDF0E0E491C3
:104860008FEF80930A0101C0EFEF8E2F0E94072483
:1048700060E08C2FCF910C946E1F1F920F920FB699
:104880000F9211242F933F934F935F936F937F93D6
:104890008F939F93AF93BF93EF93FF938091F30513
:1048A0009091F405A091F505B091F605892B8A2B1E
:1048B0008B2B51F18091F005E091F105F091F2051B
:1048C0009081892780838091F3059091F405A091D0
:1048D000F505B091F605181619061A061B06C4F45C
:1048E0008091F3059091F405A091F505B091F6053E
:1048F0000197A109B1098093F3059093F405A09362
:10490000F505B093F60504C080910A010E942724A2
:10491000FF91EF91BF91AF919F918F917F916F9197
:104920005F914F913F912F910F900FBE0F901F906D
:1049300018954F925F926F927F92AF92BF92CF92F3
:10494000DF92EF92FF920F931F93CF93DF93CDB738
:10495000DEB729013A019B01AC012419350946094A
:10496000570989899A89AB89BC89BC01CD016A192B
:104970007B098C099D090E942126A8019701241911
:104980003509460957090E947B26CA01B9016A0DFB
:104990007B1D8C1D9D1DDF91CF911F910F91FF906D
:1049A000EF90DF90CF90BF90AF907F906F905F902F
:1049B0004F90089508950E944F1E0E94DA240E948D
:1049C0004103CCECDFE10E9430092097E1F30E9423
:1049D000CC1FF9CF08950E94FF240C94E7250E9474
:1049E000E02558F00E94D92540F029F45F3F29F0D6
:1049F0000C94D02551110C941B260C94D6250E94A2
:104A0000F82568F39923B1F3552391F3951B550BC2
:104A1000BB27AA2762177307840738F09F5F5F4F91
:104A2000220F331F441FAA1FA9F335D00E2E3AF0D0
:104A3000E0E832D091505040E695001CCAF72BD0E8
:104A4000FE2F29D0660F771F881FBB1F2617370739
:104A50004807AB07B0E809F0BB0B802DBF01FF276B
:104A600093585F4F3AF09E3F510578F00C94D02553
:104A70000C941B265F3FE4F3983ED4F3869577951C
:104A80006795B795F7959F5FC9F7880F911D969524
:104A9000879597F90895E1E0660F771F881FBB1F80
:104AA000621773078407BA0720F0621B730B840B2D
:104AB000BA0BEE1F88F7E09508950E94642568946C
:104AC000B1110C941B2608950E94002688F09F5770
:104AD00098F0B92F9927B751B0F0E1F0660F771F22
:104AE000881F991F1AF0BA95C9F714C0B13091F018
:104AF0000E941A26B1E008950C941A26672F782F89
:104B00008827B85F39F0B93FCCF3869577956795DC
:104B1000B395D9F73EF490958095709561957F4F48
:104B20008F4F9F4F0895E89409C097FB3EF49095EE
:104B30008095709561957F4F8F4F9F4F9923A9F076
:104B4000F92F96E9BB279395F69587957795679505
:104B5000B795F111F8CFFAF4BB0F11F460FF1BC049
:104B60006F5F7F4F8F4F9F4F16C0882311F096E9DC
:104B700011C0772321F09EE8872F762F05C066238A
:104B800071F096E8862F70E060E02AF09A95660F43
:104B9000771F881FDAF7880F9695879597F90895FC
:104BA00097F99F6780E870E060E008959FEF80ECE0
:104BB000089500240A941616170618060906089583
:104BC00000240A9412161306140605060895092EE9
:104BD0000394000C11F4882352F0BB0F40F4BF2B58
:104BE00011F460FF04C06F5F7F4F8F4F9F4F089598
:104BF00057FD9058440F551F59F05F3F71F047958E
:104C0000880F97FB991F61F09F3F79F08795089572
:104C1000121613061406551FF2CF4695F1DF08C091
:104C2000161617061806991FF1CF869571056105AE
:104C300008940895E894BB2766277727CB0197F956
:104C40000895DB018F939F930E94A026BF91AF919F
:104C5000A29F800D911DA39F900DB29F900D1124D6
:104C60000895AA1BBB1B51E107C0AA1FBB1FA617B3
:104C7000B70710F0A61BB70B881F991F5A95A9F705
:104C800080959095BC01CD01089597FB072E16F4F1
:104C9000009407D077FD09D00E94312607FC05D08B
:104CA0003EF4909581959F4F0895709561957F4F43
:104CB0000895A1E21A2EAA1BBB1BFD010DC0AA1F5D
:104CC000BB1FEE1FFF1FA217B307E407F50720F075
:104CD000A21BB30BE40BF50B661F771F881F991FF0
:104CE0001A9469F760957095809590959B01AC0139
:104CF000BD01CF010895052E97FB1EF400940E947C
:104D0000922657FD07D00E94592607FC03D04EF487
:104D10000C94922650954095309521953F4F4F4FDA
:104D20005F4F089590958095709561957F4F8F4F57
:104D30009F4F0895EE0FFF1F0590F491E02D099409
:104D40000E94AB26A59F900DB49F900DA49F800D4F
:104D5000911D11240895A29FB001B39FC001A39F8C
:104D6000700D811D1124911DB29F700D811D1124A4
:104D7000911D0895CF93DF938230910510F482E066
:104D800090E0E0910706F091080620E030E0C0E0F6
:104D9000D0E0309711F14081518148175907C0F098
:104DA0004817590761F482819381209719F09B83FA
:104DB0008A832BC0909308068093070626C021158E
:104DC000310519F04217530718F49A01BE01DF01AB
:104DD000EF010280F381E02DDCCF2115310509F1CF
:104DE000281B390B2430310590F412968D919C913B
:104DF00013976115710521F0FB019383828304C031
:104E00009093080680930706FD01329644C0FD0189
:104E1000E20FF31F81939193225031092D933C931C
:104E20003AC02091050630910606232B41F42091CB
:104E3000020130910301309306062093050620916C
:104E40000001309101012115310541F42DB73EB724
:104E50004091040150910501241B350BE09105069A
:104E6000F0910606E217F307A0F42E1B3F0B28175C
:104E7000390778F0AC014E5F5F4F2417350748F0D3
:104E80004E0F5F1F50930606409305068193919342
:104E900002C0E0E0F0E0CF01DF91CF9108950F93E1
:104EA0001F93CF93DF93009709F48CC0FC013297D6
:104EB0001382128200910706109108060115110550
:104EC00081F420813181820F931F2091050630915A
:104ED00006062817390779F5F0930606E0930506CC
:104EE00071C0D80140E050E0AE17BF0750F41296F1
:104EF0002D913C911397AD012115310509F1D9018F
:104F0000F3CF9D01DA013383228360817181860FA3
:104F1000971F8217930769F4EC0128813981260FC6
:104F2000371F2E5F3F4F318320838A819B8193837C
:104F30008283452B29F4F0930806E093070642C0CC
:104F40001396FC93EE931297ED01499159919E01AE
:104F5000240F351FE217F30771F480819181840FCC
:104F6000951F029611969C938E938281938113963E
:104F70009C938E931297E0E0F0E0D80112968D9109
:104F80009C911397009719F0F8018C01F6CF8D9141
:104F90009C9198012E5F3F4F820F931F2091050631
:104FA000309106062817390769F4309729F41092D2
:104FB00008061092070602C013821282109306069A
:104FC00000930506DF91CF911F910F910895DC01A9
:104FD00001C06D9341505040E0F70895FB01DC01A2
:104FE0004150504048F001900D920020C9F701C097
:104FF0001D9241505040E0F70895FC0181E090E09F
:105000000190061609F4CF010020D1F70197089509
:10501000FB0151915523A9F0BF01DC014D914517CA
:105020004111E1F759F4CD010190002049F04D9173
:1050300040154111C9F3FB014111EFCF81E090E030
:105040000197089510E0C2E7D0E004C0FE010E947D
:0E5050009A262196C337D107C9F7F894FFCFEF
:10505E00000009068000FF130001FF730000004EE0
:10506E00002000730002004E002000556E6B6E6F24
:10507E00776E2070696E206D6F646500443A5C65D2
:10508E00636C697073654370702D6D6172735C77BC
:10509E006F726B73706163655C69646561426F7892
:1050AE00335C69646561426F78332E696E6F0042BE
:1050BE003356312E312E36004932433A20546F6F1B
:1050CE00206D616E792062797465732072656365F7
:1050DE0069766564004932433A20546F6F206665E5
:1050EE00772062797465732072656365697665648D
:1050FE000031302D62697420616464726573736966
:10510E006E67206E6F7420737570706F7274656445
:10511E0000746F6F206D616E7920717565726965AF
:10512E00730000000000D40CA40C780C800C940CBE
:10513E00A30C2E6370700061742B333A330D0A008A
:10514E0074696D655F6F75740061742B303A310D43
:10515E000A0061742B363A300D0A0061742B303A16
:10516E00300D0A0061742B313A0061742B323A0013
:10517E0061742B343A0061742B353A000000000044
:10518E0094195821011A7319E919E8193F305B79FE
:10519E00746D6F387F7D3F065B4F666D7D077F6F49
:1051AE00000000001D2058219E1FB81FAA1FFB1FC4
:0C51BE006E616E00696E66006F76660020
:00000001FF
