:100000000C9458060C9480060C9480060C949B1259
:100010000C949B120C949B120C9480060C947C0EF6
:100020000C9480060C9417130C9480060C94852570
:100030000C9480060C9480060C9480060C94800628
:100040000C9451120C9480060C94EF0D0C94C90D75
:100050000C9480060C9480060C9480060C94800608
:100060000C941C190C9480066D1E941E5B1EAE1E13
:10007000CB1EFF1EF31EFF1EFF1EFF1E2E1F7D1E2A
:1000800000000000230026002900000000002400DA
:1000900027002A00000000080002010000030407F6
:1000A0000000000000000000010204081020408051
:1000B00001020408102001020408102000000000C2
:1000C000250028002B000404040404040404020294
:1000D0000202020203030303030302FFE0FFD1AFA6
:1000E000FF32FFD1FFFEFFE0FFD1AEFFD1FFFEFFE9
:1000F000E0FFD11000FFFEFFD0FFE0FFC1FFD1AE57
:10010000D580A83FD300408D142000A1C8DA128109
:10011000CFD9F1DB402EA4A6AFFFD0FFFE00090F20
:1001200000FD0A01E803D820FFFD0CFD0BFD0000D7
:100130000009000C010B0B09040080808080808086
:100140008000008080040303090307909090060854
:10015000080901014848FC4848FC4848070B0B09BE
:1001600001FF107C929050381412927C10070A0AFA
:1001700009010042A4A4481010244A4A84070A0A2C
:10018000090100609090906062948894620103037A
:10019000090407808080030C0C0903FF2040408085
:1001A0008080808080404020030C0C0903FF804049
:1001B000402020202020204040800707070901031D
:1001C00010925438549210070707090101101010BB
:1001D000FE1010100205050904FDC0C04040800754
:1001E0000101090104FE020202090400C0C0070A5D
:1001F0000A09010002040408101020404080070A88
:100200000A09010038448282828282824438070AC5
:100210000A090100103050901010101010FE070A4B
:100220000A0901007C8282040810204080FE070A2F
:100230000A090100FE0204081C020202827C070A6D
:100240000A090100040C14244484FE040404070A6F
:100250000A090100FE8080BCC2020202827C070AF9
:100260000A0901003C408080BCC28282827C070A6D
:100270000A090100FE020404080810102020070AE1
:100280000A09010038448244384482824438070A0B
:100290000A0901007C828282867A020204780207BF
:1002A00007090400C0C0000000C0C0020A0A090417
:1002B000FDC0C0000000C0C0404080050A0A09021D
:1002C0000008102040808040201008070404090125
:1002D00002FE0000FE050A0A090200804020100804
:1002E0000810204080070A0A0901007C828202046B
:1002F0000810100010070A0A0901007C82829EA2E1
:10030000A69A80807C070A0A09010010284482828C
:1003100082FE828282070A0A090100F8848284F838
:1003200084828284F8070A0A0901007C8280808026
:10033000808080827C070A0A090100F88482828218
:1003400082828284F8070A0A090100FE808080F810
:1003500080808080FE070A0A090100FE808080F804
:100360008080808080070A0A0901007C828080806A
:100370008E8282827C070A0A09010082828282FEC2
:100380008282828282050A0A090200F82020202047
:1003900020202020F8080A0A0901001F0404040490
:1003A0000404048478070A0A09010082848890E022
:1003B000A090888482070A0A0901008080808080DA
:1003C00080808080FE070A0A0901008282C6AAAAEC
:1003D0009292828282070A0A0901008282C2A29254
:1003E0008A86828282070A0A0901007C82828282CE
:1003F000828282827C070A0A090100FC828282FCD6
:100400008080808080070C0C0901FE7C82828282C1
:100410008282A2927C0806070A0A090100FC8282F5
:1004200082FC9088848282070A0A0901007C828209
:1004300080700C0282827C070A0A090100FE1010FB
:1004400010101010101010070A0A09010082828291
:100450008282828282827C070A0A09010082828269
:1004600044444428282810070A0A0901008282828D
:100470008292929292AA44070A0A09010082824457
:1004800028101028448282070A0A09010082824447
:1004900028101010101010070A0A090100FE0204AB
:1004A000081020408080FE040C0C0903FFF08080BF
:1004B0008080808080808080F0070A0A09010080A7
:1004C000404020101008040402040C0C0902FFF044
:1004D00010101010101010101010F0070404090173
:1004E00006102844820801010900FFFF03030309E5
:1004F00003088040200707070901007C02027E8272
:10050000867A070A0A090100808080BCC282828242
:10051000C2BC0707070901007C82808080827C07BB
:100520000A0A0901000202027A86828282867A071A
:1005300007070901007C8282FE80807C070A0A0985
:1005400001001C22222020F820202020070A0A096E
:1005500001FD7A84848478807C82827C070A0A097F
:100560000100808080BCC28282828282050A0A09E0
:100570000200600000E02020202020F8060D0D0978
:1005800001FD0C00001C0404040404848484780726
:100590000A0A090100808080828CB0C0B08C82057C
:1005A0000A0A090200E02020202020202020F8074D
:1005B0000707090100EC92929292928207070709BD
:1005C0000100BCC282828282820707070901007C87
:1005D00082828282827C070A0A0901FDBCC2828271
:1005E00082C2BC808080070A0A0901FD7A86828265
:1005F00082867A0202020707070901009C624240D4
:100600004040400707070901007C82807C02827C11
:100610000709090901002020FC20202020221C07B6
:1006200007070901008484848484847A0707070902
:10063000010082824444282810070707090100822C
:1006400082929292AA440707070901008244281067
:10065000284482060A0A0901FD84848484848C74F7
:10066000048478070707090100FE0408102040FEF3
:10067000050C0C0903FF3840404020C0C02040401A
:100680004038010C0C0904FF8080808080808080CD
:1006900080808080050C0C0901FFE01010102018EC
:1006A0001820101010E007030309010762928CFF65
:1006B000FFFFFFFFFFFFFFFFFFFFFFFFFFFFFFFF4A
:1006C000FFFFFFFFFFFFFFFFFFFFFFFFFFFFFFFF3A
:1006D00000000009000C010B0B09040080800000E1
:1006E0008080808080808006080809010008789456
:1006F00090A0A47840070A0A0901001C222020F8D3
:10070000202060A25C070606090103827C44447C29
:1007100082070A0A090100828244287C107C10109A
:1007200010010B0B0904FF80808080800080808096
:100730008080040B0B0902FF6090806090909060B5
:100740001090600502020902098888080909090059
:10075000013C4299A5A1A599423C0507070901035F
:10076000609070907800F807080809010112244889
:100770009090482412060404090102FC04040405B4
:100780000101090204F80809090900013C42B9A560
:10079000B9A9A5423C060101090109FC04040409A8
:1007A000030660909060070909090101101010FE0E
:1007B00010101000FE04060609010460901060800D
:1007C000F004060609010460902010906003030302
:1007D0000903082040800709090901FE82828282FC
:1007E00082C6BA8080070A0A0901007E8A8A8A7A4C
:1007F0000A0A0A0A0A020202090404C0C004030326
:100800000902FD30906003060609010440C0404023
:1008100040E00506060901047088887000F80708A2
:10082000080901019048241212244890070A0A0975
:10083000010040C0404042E60A121A06070A0A09AF
:10084000010040C040404CF2020C101E070A0A0989
:1008500001006090201092660A121A06070A0A091F
:1008600001001000101020408082827C070C0C09CF
:1008700001004020100038448282FE828282070CF0
:100880000C0901000408100038448282FE82828232
:10089000070C0C0901001028440038448282FE82B3
:1008A0008282070B0B090100629C0038448282FEA1
:1008B000828282070B0B0901004444003844828283
:1008C000FE828282070B0B090100384438284482DB
:1008D00082FE828282070A0A0901006E909090903F
:1008E000FC9090909E070D0D0901FD7C8280808018
:1008F000808080827C184830070C0C090100402061
:100900001000FE404078404040FE070C0C090100FA
:1009100004081000FE404078404040FE070C0C09DF
:10092000010010284400FE404078404040FE070B84
:100930000B090100444400FE404078404040FE0561
:100940000C0C09020080402000F8202020202020EC
:10095000F8050C0C09020008102000F820202020C7
:100960002020F8050C0C09020020508800F82020F7
:1009700020202020F8050B0B090200888800F820B1
:100980002020202020F8080A0A0900007C4241416A
:10099000E1414141427C070B0B090100629C00824E
:1009A000C2A292928A8682070C0C09010040201094
:1009B000007C8282828282827C070C0C0901000406
:1009C0000810007C8282828282827C070C0C0901E2
:1009D00000102844007C8282828282827C070B0B7A
:1009E000090100629C007C8282828282827C070BE9
:1009F0000B0901004444007C8282828282827C074F
:100A0000070709010182442810284482070C0C09B9
:100A100001FF027C868A8A9292A2A2C27C80070C85
:100A20000C09010040201000828282828282827C36
:100A3000070C0C0901000408100082828282828265
:100A4000827C070C0C0901001028440082828282FB
:100A50008282827C070B0B0901004444008282825F
:100A6000828282827C070C0C09010004081000823B
:100A700082442810101010070A0A0901008080FC27
:100A8000828282FC808080060A0A09010038444480
:100A900048D04844444458070B0B09010020100873
:100AA000007C02027E82867A070B0B090100040893
:100AB00010007C02027E82867A070B0B090100106F
:100AC0002844007C02027E82867A070A0A09010015
:100AD000324C007C02027E82867A070A0A090100F3
:100AE0004444007C02027E82867A070B0B090100D7
:100AF000182418007C02027E82867A070707090103
:100B0000006C92127C90926E070A0A0901FD7C82A9
:100B1000808080827C184830070B0B090100402040
:100B200010007C8282FE80807C070B0B0901000490
:100B30000810007C8282FE80807C070B0B0901007C
:100B4000102844007C8282FE80807C070A0A09010A
:100B5000004444007C8282FE80807C050B0B0902ED
:100B60000080402000E02020202020F8050B0B0909
:100B7000020010204000E02020202020F8060B0B6F
:100B8000090100205088007010101010107C050A18
:100B90000A090200909000E02020202020F8070B96
:100BA0000B090100483050087C82828282827C07D7
:100BB0000A0A090100629C00BCC28282828282070A
:100BC0000B0B090100402010007C82828282827C13
:100BD000070B0B090100040810007C8282828282CC
:100BE0007C070B0B090100102844007C8282828262
:100BF000827C070A0A090100629C007C8282828250
:100C0000827C070A0A0901004444007C82828282B5
:100C1000827C07090909010010381000FE00103815
:100C2000100709090901FF027C8A8A92A2A27C802E
:100C3000070B0B0901004020100084848484848405
:100C40007A070B0B09010004081000848484848453
:100C5000847A070B0B0901001028440084848484E3
:100C600084847A070A0A090100484800848484843D
:100C700084847A060E0E0901FD0810200084848405
:100C800084848C74048478070C0C0901FD808080B6
:100C9000BCC28282C2BC808080060D0D0901FD4865
:100CA000480084848484848C740484787630723020
:100CB00011241FBECFEFD8E0DEBFCDBF12E0A0E011
:100CC000B1E0ECE3FCE602C005900D92AE33B10753
:100CD000D9F727E0AEE3B2E001C01D92AE38B2070B
:100CE000E1F716E0C7E5D6E004C02197FE010E94B7
:100CF0009E34C635D107C9F70E94A7290C94113636
:100D00000C9400006F927F928F929F92AF92BF924D
:100D1000CF92DF92EF92FF920F931F93CF93DF93C7
:100D2000CDB7DEB766970FB6F894DEBF0FBECDBF66
:100D3000362F8A018B3609F4C3C1A8F4843009F434
:100D400051C438F4813009F4CCC2833009F45DC257
:100D5000D3C4873009F48EC4893609F444C285307F
:100D600009F0CAC4F3C3803709F433C138F48D36AF
:100D700009F4F7C18F3609F482C1BEC4883709F47B
:100D8000F9C08A3709F465C1863709F0B5C4DA01BC
:100D900011969C9195FF03C08AEA91E06CC0FA011C
:100DA0008081833721F420914404206205C080347F
:100DB00029F42091440420642093440441E096FBEC
:100DC000222720F924279871983081F168F4911135
:100DD00093C440931F048093410410922004109206
:100DE0004204E2E0FE2E07C0903109F43EC0983183
:100DF00009F472C081C4F31690F4F801EF0DF11DEF
:100E000081816081F0E88F9F601911248DE496E064
:100E10003E8B0E942C24F394F3943E89ECCF0E94E5
:100E2000A52383E191E00197F1F766C4D8011296FA
:100E30004C91129713966C91363071F4B0E86B9F19
:100E4000B0011124640F711DF80195814481F0E80F
:100E50009F9F4019112406C030E8639F4019112458
:100E60006FEF7FEF0E94991C47C4E0910001E730CB
:100E70002CF08AEC91E00E943D203EC4D8011296ED
:100E80009C91129713964C91363089F4B0E84B9FA1
:100E9000A0011124490F511DD80115963C911597B9
:100EA00014969C91B0E83B9F9019112406C0F0E87D
:100EB0004F9F901911244FEF5FEFEF5FE093000118
:100EC00035E0E302F0011124E15FFC4F808352839F
:100ED00041839383248310C420910001121624F0CF
:100EE0008FEF8093000108C490E0622F022E000C67
:100EF000770B35E0492F50E06417750774F0349F85
:100F0000F001359FF00D1124E15FFC4F4081481343
:100F100002C085E026C09F5FEDCF90E0FACF983009
:100F2000F8F4FA0131968E9FD0018F9FB00D1124F5
:100F3000A15FBC4F3C91849FF001859FF00D11246F
:100F4000E15FFC4F308311964D915C911297528373
:100F5000418313963C911397338314963C913483C9
:100F60009F5F492F50E064177507CCF621502093FE
:100F70000001C2C3DA012C9111968C91B0E88B9FCD
:100F8000C0011124820F911D009721F09093460318
:100F900080934503809149048111AEC310E08EEE29
:100FA000810F823028F466E070E0812F0E94C81D16
:100FB0001F5F1631A1F781E0809349041092E80485
:100FC0001092E70410922004109242040E946524BB
:100FD00093C3653008F490C3FA01F080D180E280B9
:100FE000C38014818EEF8F0D823108F085C3EF2D01
:100FF000F0E0E25BFD4F20812C30B0F430E0F901ED
:10100000EE0FFF1F2E0F3F1FF901E454F94F20810F
:1010100030E0F901EE0FFF1F2E0F3F1FF901E75AD5
:10102000F94F808186FD38C3F0E81F9FA00111248D
:101030004C0D511D20E8E29EB00111246D0D711D73
:101040008F2D0E948A1D64E070E08F2D0E94C81DC4
:1010500053C3623008F450C3DA012C9111968C917D
:10106000B0E88B9FC0011124820F911D009711F4ED
:1010700081E090E090930201809301013DC36230D2
:1010800008F43AC3FA01618170E03230A1F0828144
:10109000F0E88F9FC0011124682B792B333059F071
:1010A000DA0113968C9190E090E4899F902D882727
:1010B0001124682B792BF80180810E944E1A1CC3E1
:1010C00080EF0E9403218CE60E9403211EEF84EF33
:1010D000810F883038F482E00E9403218AE00E9468
:1010E000032109C0113039F483E00E94032188E014
:1010F0000E94032108C08DEF810F8230A8F389EF91
:10110000810F833088F3123130F484E00E94032190
:101110008EE00E94032180EF810F823030F486E060
:101120000E94032181E00E9403218FE70E94032196
:101130001F5F143109F43FC1123148F680E00E946C
:10114000032181E00E9403218BE00E94032181E0C2
:101150000E94032181E00E94032181E00E9403217B
:10116000B6CF662309F4C8C2DA010C9180EF0E9461
:1011700003218EE60E940321802F0E940321063165
:1011800008F019C110E0F801E65FF94F80810E9474
:101190000321000F111FF801E05EF94F7F018081EC
:1011A0008F770E940321D7018D919C919C0120781B
:1011B000232B39F0880F892F881F990B8F770E9476
:1011C0000321F801E05EF94F808191819C01222783
:1011D000307C232B09F4EFC0990F880B990F982FBF
:1011E000881F8F77E6C080EF0E9403218AE60E9465
:1011F000032112EF183010F4812F01C08FE70E94F5
:1012000003211F5F1830B1F7D6C080914404886075
:1012100080934404623071F5FA01F1808081682F77
:1012200070E01A8218861A8619861F86188A198A0B
:101230001A8A21E02E872B871C863D872983CE01C1
:1012400001960E94B5246F2DCE0101960E94832441
:1012500085E6888785E1FE013196A0EEB6E0019033
:101260000D928A95E1F7CE0101960E94EF240E942B
:10127000F32042C2673009F03FC2DA0112966C9146
:10128000129711963C91119714964C9114971396BE
:101290005C91139716962C91169715967C9115973D
:1012A0008C9190E0E091E206F091E3068E179F07A3
:1012B00070F4279522272795272B47954427479594
:1012C000452B679566276795632B0E9407238091BE
:1012D000E8069091E906892B09F40EC20E944E227D
:1012E0000BC280914404806880934404FA01908189
:1012F000992349F1993029F49E8B0E9446269E89B4
:101300004CC08091C604803108F047C025E0829F20
:10131000F0011124EA58FB4F9083DA0111962C91C9
:101320001197218312962C911297228313962C9158
:1013300013972383933019F014962C9124838F5F95
:101340008093C6042AC080917504833030F5FA0179
:1013500021814EE0849FF0011124E55BFB4F208347
:10136000D80112962C91129721831396EEE08E9F4E
:10137000A001112460E070E06F5F7F4F22E0260F34
:10138000231740F42D91FB01E40FF51FE55BFB4FA4
:101390002183F2CF8F5F809375048091C6048031E2
:1013A00070F080917504833050F080EF0E9403212B
:1013B00081E00E94032187EF0E9403219DC19930A3
:1013C000A1F30E9400228091BB06811107C081E039
:1013D0008093BB0682E896E00E94A817809184065D
:1013E000909185060E944E2085E0882E9EE0992EE1
:1013F0009E012F5F3F4F69018091C604811105C096
:101400008091750481116AC064C0A12C8091C604CA
:10141000A816B0F78A9CF0011124EA58FB4F80818E
:101420008230B9F18330E1F1813009F050C084811C
:101430000381F2801181011718F4E12EE01A02C035
:10144000E02EE11A8F1578F4BF2CB81AEB1408F0CF
:1014500027C19E2DEB2CB92E9F2DF02E092F912FF9
:10146000182F892F0EC0B82EBF18EB1408F037C103
:101470009E2DEB2CB92E902F082F892F912F1F2DE9
:10148000F92E662463947E2C7694F81608F411C124
:101490002FC124814381628181810E94CA2117C0AA
:1014A000E380F280118191E09E0D292F220F4F2DB4
:1014B000491B612F691B022F82E896E00E94FA18EF
:1014C000882329F04E2D6F2D812F0E949B21A394FC
:1014D0009DCF0E94102181118FCF67CF10E08091A6
:1014E00075041817B0F7D601E92D1D92EA95E9F7B2
:1014F00022E0919EF0011124822F90E0DF01A80FDD
:10150000B91FA55BBB4F3C91332349F0AFEFBFEF51
:10151000AC0FBD1FA80FB91F3C932F5FEDCFE55B4C
:10152000FB4F818190819093B9068093BA06F601B2
:1015300001900020E9F73197AF014C195D09B60120
:101540008EE796E00E94890C1F5FC9CF623021F5BB
:10155000DA018C918823B9F011968C9161E088238F
:1015600041F08091F5060E94210E61E08091F6061F
:1015700007C08091F9060E94210E61E08091FA0671
:101580000E94210EB9C060E070E089EF96E00E94F1
:10159000A51260E070E023C0643009F0ADC0FA012C
:1015A0008381F0E88F9FC0011124DA0112966C91BB
:1015B0001297862B682F70E011968C91811103C0D1
:1015C000719561957109F8018081811105C089EFDC
:1015D00096E00E94A51290C0813009F08DC085EF81
:1015E00096E0F7CF80914404816080934404633097
:1015F00089F4DA018C918093430412966C91B0E8DF
:101600006B9FB0011124FA019181692B20E030E039
:10161000A9011AC06530D9F4DA018C918093430492
:1016200014962C91B0E82B9F90011124FA0193811C
:10163000292B40E050E06281F0E86F9FB001112457
:10164000D80111969C91692B0E94140F55C06130EE
:1016500009F052C0FA0180810E94510E80910E0360
:10166000882309F449C080910C0390910D030E94D6
:10167000E51342C0DA018C918230F0F180936F0261
:10168000CE01019690930D0380930C030E94E51305
:1016900081E080930E0330C08F2D0E94571DC4CC73
:1016A000011740F57E2C7694902F012F192FF82EDC
:1016B000612C91E0011708F40ACF611003C06F2D6F
:1016C000812F02C0612F8F2D9E8B0E944A219E89FF
:1016D0007B1877FE02C0F90E7E0C1F5FEBCF01175F
:1016E00048F47E2C7694902F012F192FF82E612C20
:1016F0009FEFE0CF612CC7CE66960FB6F894DEBFA1
:101700000FBECDBFDF91CF911F910F91FF90EF9052
:10171000DF90CF90BF90AF909F908F907F906F9011
:101720000895833020F5282F30E0F901E859FD4F66
:101730006083672BE1F0F901EB59FD4F9081811136
:1017400003C069B16C7F0FC0813049F463B136B119
:1017500040E4349F900111246F73622B04C066B182
:101760006C7366956695692341E00C94571C089547
:10177000CF93883080F5409137035091380321E0B2
:1017800030E0672B81F4B90102C0660F771F8A959C
:10179000E2F7CB01809590958423952390933803AD
:1017A0008093370318C0082E02C0220F331F0A94FB
:1017B000E2F7242B352B3093380320933703909195
:1017C0004A04911108C0C82F0E94DB11BC018C2F64
:1017D000CF910C94B827CF910895BF92CF92DF920A
:1017E000EF92FF920F931F93CF93DF9300D0CDB76B
:1017F000DEB7833008F081C0282F220F220F220F7E
:10180000285F273108F026E1B62EF82EE82EEE0CE0
:10181000EE0CEE0C30E0CC24C394E21610F58EEF03
:101820008E0D8231D8F40E2D10E0F801E65FF94FED
:101830009081923098F4DD24D3948C2D8B2109F47F
:10184000D12C000F111F913009F043C03C29F80141
:10185000E05EF94F8D2D90E091838083CC0CE39472
:10186000DCCFF1100AC03C7FF8948BB1632F6095F8
:1018700068233B21632B6BB92AC081E0F8121AC0A0
:101880002B2D2323F89495B1832F8F738095892373
:10189000922F9F73892B85B988B12295269526951D
:1018A0002370329536953695337030958323822B8D
:1018B00088B90DC03F70F89488B1632F660F660F2A
:1018C000609568233B21330F330F632B68B97894FD
:1018D00014C0DD2009F4BBCFF801E05EF94F808130
:1018E0009181019709F4B3CF62E08E2D2A83398369
:1018F0000E94D80E2A813981AACF0F900F90DF91D4
:10190000CF911F910F91FF90EF90DF90CF90BF90FC
:101910000895CF92DF92EF92FF920F931F93CF9390
:10192000DF936C017A018B01C0E0D0E0CE15DF05BA
:1019300089F0D8016D918D01D601ED91FC91019056
:10194000F081E02DC6010995892B11F47E0102C0BA
:101950002196ECCFC701DF91CF911F910F91FF909E
:10196000EF90DF90CF900895FC01538D448D252F8B
:1019700030E0842F90E0821B930B541710F0CF9629
:10198000089501970895FC01918D828D981761F05B
:10199000828DDF01A80FB11D5D968C91928D9F5FA6
:1019A0009F73928F90E008958FEF9FEF0895FC0151
:1019B000918D828D981731F0828DE80FF11D858D04
:1019C00090E008958FEF9FEF0895FC01918D228D97
:1019D000892F90E0805C9F4F821B91098F7399271C
:1019E00008958AEE94E00E94E50C21E0892B09F429
:1019F00020E0822F0895FC01848DDF01A80FB11D26
:101A0000A35ABF4F2C91848D90E001968F73992734
:101A1000848FA689B7892C93A089B1898C91806421
:101A20008C93938D848D981306C00288F389E02DE2
:101A300080818F7D80830895EF92FF920F931F9393
:101A4000CF93DF93EC0181E0888F9B8D8C8D981371
:101A500005C0E889F989808185FD24C0F62E0B8DAB
:101A600010E00F5F1F4F0F731127E02E8C8DE812CF
:101A70000CC00FB607FCFACFE889F989808185FF91
:101A8000F5CFCE010E94FB0CF1CF8B8DFE01E80F4C
:101A9000F11DE35AFF4FF0820B8FEA89FB898081A9
:101AA000806207C0EE89FF896083E889F9898081B7
:101AB0008064808381E090E0DF91CF911F910F914E
:101AC000FF90EF900895CF93DF93EC01888D8823EA
:101AD000C9F0EA89FB89808185FD05C0A889B9899B
:101AE0008C9186FD0FC00FB607FCF5CF808185FF76
:101AF000F2CFA889B9898C9185FFEDCFCE010E94E4
:101B0000FB0CE7CFDF91CF91089580E090E0892B27
:101B100029F00E94F10C81110C940000089583308B
:101B200081F028F4813099F08230A1F00895873057
:101B3000A9F08830B9F08430D1F4809180008F7D95
:101B400003C0809180008F7780938000089584B5D2
:101B50008F7702C084B58F7D84BD08958091B000D9
:101B60008F7703C08091B0008F7D8093B00008957F
:101B7000E0914C02F0914D02309709F009940895DC
:101B80000E94D135009721F0805C9F4F0C94752006
:101B900008951F920F920FB60F9211242F933F9327
:101BA0004F935F936F937F938F939F93AF93BF9365
:101BB000EF93FF938AEE94E00E94FB0CFF91EF916C
:101BC000BF91AF919F918F917F916F915F914F9155
:101BD0003F912F910F900FBE0F901F9018951F925D
:101BE0000F920FB60F9211242F938F939F93EF9321
:101BF000FF93E091FA04F091FB048081E0910005ED
:101C0000F091010582FD12C09081809103058F5FE4
:101C10008F7320910405821751F0E0910305F0E0E5
:101C2000E651FB4F958F8093030501C08081FF91A2
:101C3000EF919F918F912F910F900FBE0F901F905A
:101C400018951F93CF93DF93282F30E0F901EC56BE
:101C5000FF4F8491F901E855FF4FD491F901EA5300
:101C6000FF4FC491CC23C9F0162F81110E948F0D14
:101C7000EC2FF0E0EE0FFF1FE454FF4FA591B4915D
:101C80008FB7F894111105C09C91ED2FE095E923D1
:101C900002C0EC91ED2BEC938FBFDF91CF911F91A0
:101CA000089590910301981324C0EAEDF0E0E491C7
:101CB0009FEF90930301E130B9F098F0E230C9F45E
:101CC000909170009D7F9093700091E09093B00090
:101CD0009091B100987F94609093B1001092B300FE
:101CE00008C010926E0005C090916F009D7F909388
:101CF0006F0060E00C94210E1F920F920FB60F92AE
:101D000011242F933F934F935F936F937F938F9300
:101D10009F93AF93BF93EF93FF9380915F03909155
:101D20006003A0916103B0916203892B8A2B8B2BF6
:101D300051F180915E03E0915C03F0915D0390812D
:101D40008927808380915F0390916003A091610354
:101D5000B0916203181619061A061B06C4F4809186
:101D60005F0390916003A0916103B09162030197BA
:101D7000A109B10980935F0390936003A09361036D
:101D8000B093620304C0809103010E94510EFF9141
:101D9000EF91BF91AF919F918F917F916F915F91E3
:101DA0004F913F912F910F900FBE0F901F9018955C
:101DB000CF93DF9390E0FC01E855FF4F2491FC01A5
:101DC000EA53FF4F8491882361F190E0880F991FB7
:101DD000FC01E657FF4FC591D491FC01E454FF4F3D
:101DE000A591B491611109C09FB7F894888120959D
:101DF00082238883EC912E230BC0623061F49FB75D
:101E0000F8943881822F809583238883EC912E2B40
:101E10002C939FBF06C08FB7F894E8812E2B2883A0
:101E20008FBFDF91CF9108953F924F925F926F9253
:101E30007F928F929F92AF92BF92CF92DF92EF925A
:101E4000FF920F931F93CF93DF9300D000D0CDB7B5
:101E5000DEB790910301981721F09F3F09F036C239
:101E600004C0EAEDF0E0349081C080930301EAED14
:101E7000F0E0E491EF3F09F429C2E13031F1E230C2
:101E800009F44BC0E11171C014BC15BC94B592604B
:101E900094BD95B5916095BDA82FB0E0FD01EA53C2
:101EA000FF4FE491F0E0EE0FFF1FE454FF4F059168
:101EB00014911093530300935203FD01E855FF4F13
:101EC000E491E0935103312C53C0109280001092A2
:101ED00081009091810098609093810090918100A1
:101EE000916090938100A82FB0E0FD01EA53FF4F6D
:101EF000E491F0E0EE0FFF1FE454FF4F05911491C1
:101F00001093500300934F03FD01E855FF4FE491F8
:101F1000E0934E03332433942BC01092B000109200
:101F2000B1009091B00092609093B0009091B10098
:101F300091609093B100A82FB0E0FD01EA53FF4FEC
:101F4000E491F0E0EE0FFF1FE454FF4F0591149170
:101F500010935D0300935C03FD01E855FF4FE4918E
:101F6000E0935E0302E0302E03C03E2E37FCAEC18C
:101F700029013A018B0161E00E94D80E4801A12C91
:101F8000B12C832D8D7F09F0BBC060E072E18AE740
:101F900090E0A50194010E941F3229833A834B836C
:101FA0005C8369017A0121E0C21AD108E108F108D5
:101FB0008FEFC816D104E104F10409F008F44CC015
:101FC00060E472E48FE090E0A50194010E941F326A
:101FD00069017A01E1E0CE1AD108E108F108F2E0E6
:101FE0003F1220C02FEFC216D104E104F10409F022
:101FF00008F46AC160E970ED83E090E0A501940106
:102000000E941F3269017A0181E0C81AD108E108F3
:10201000F108EFEFCE16D104E104F10409F0D0F598
:1020200083E067C0FFEFCF16D104E104F104B1F003
:10203000A8F068E478EE81E090E0A50194010E94A8
:102040001F3269017A0181E0C81AD108E108F1085C
:10205000332009F4DFC02FC181E001C082E03320CA
:10206000A1F047C089819A81AB81BC812AE0B595F6
:10207000A795979587952A95D1F76C017D0121E069
:10208000C21AD108E108F10885E095B5987F892B3F
:1020900085BD6FC068E478EE81E090E0A501940111
:1020A0000E941F3269017A01F1E0CF1AD108E108DC
:1020B000F1082FEFC216D104E104F10409F008F48D
:1020C000A7C064E274EF80E090E0A50194010E9453
:1020D0001F3269017A01E1E0CE1AD108E108F10866
:1020E000FFEFCF16D104E104F10411F008F0B4C001
:1020F00085E09091B100987F892B8093B10039C021
:1021000060E072E18AE790E0A50194010E941F322D
:1021100069017A0181E0C81AD108E108F108C11407
:10212000D104E1E0EE06F10488F068E478EE81E0A5
:1021300090E0A50194010E941F3269017A01F1E04B
:10214000CF1AD108E108F10893E001C091E021E045
:1021500032120FC080918100887F892B809381008B
:10216000411451046104710449F42FEF3FEFA901B8
:102170002DC0411451046104710471F0D801AA0FFB
:10218000BB1FA30192010E943E3228EE33E040E0E3
:1021900050E00E94513203C02FEF3FEFA90181E0D0
:1021A0003816A1F0E2E03E1619F131108FC0C7BC1D
:1021B000209358033093590340935A0350935B0381
:1021C00080916E00826080936E0080C0D092890002
:1021D000C0928800209354033093550340935603D4
:1021E0005093570380916F00826080936F006EC0A0
:1021F000C092B30020935F03309360034093610368
:1022000050936203809170008260809370005EC082
:1022100084E06FCFFFEFCF16D104E104F104D1F0D9
:10222000C8F062E17AE780E090E0A50194010E94A5
:102230001F3269017A0181E0C81AD108E108F1086A
:10224000EFEFCE16D104E104F10411F008F00ACF4B
:1022500084E01BCF83E019CF62E17AE780E090E071
:10226000A50194010E941F3269017A0181E0C81A18
:10227000D108E108F108EFEFCE16D104E104F10432
:10228000C1F0B8F089819A81AB81BC814AE0B595F3
:10229000A795979587954A95D1F76C017D0121E027
:1022A000C21AD108E108F108332009F4EDCE87E025
:1022B00020CF86E0D4CEFFEFCF16D104E104F104A5
:1022C00009F050F684E0CBCE82E013CF0F900F9050
:1022D0000F900F90DF91CF911F910F91FF90EF9092
:1022E000DF90CF90BF90AF909F908F907F906F9036
:1022F0005F904F903F9008951F93CF93DF93182FD7
:10230000EB0161E00E94D80E209711F460E004C058
:10231000CF3FD10539F461E0812FDF91CF911F913B
:102320000C94210EE12FF0E0EC56FF4FE491E330E6
:10233000F9F048F4E130B9F0E230A1F584B58062FB
:1023400084BDC8BD34C0E730E9F0E83019F1E430AD
:1023500049F580918000806280938000D0938B004B
:10236000C0938A0024C084B5806884BDC7BD1FC0E7
:1023700080918000806880938000D0938900C09312
:10238000880015C08091B00080688093B000C09331
:10239000B3000DC08091B00080628093B000C09304
:1023A000B40005C0C038D1050CF0B5CFAFCFDF9178
:1023B000CF911F9108958E3008F08E508770806401
:1023C00080937C0080917A00806480937A00809171
:1023D0007A0086FDFCCF809178002091790090E012
:1023E000922B08953FB7F89480914A0390914B0344
:1023F000A0914C03B0914D0326B5A89B05C02F3F7B
:1024000019F00196A11DB11D3FBFBA2FA92F982F1A
:102410008827820F911DA11DB11DBC01CD0142E095
:10242000660F771F881F991F4A95D1F708958F92DD
:102430009F92AF92BF92CF92DF92EF92FF926B0189
:102440007C010E94F2114B015C01C114D104E10432
:10245000F104F1F00E94F211DC01CB018819990915
:10246000AA09BB09883E9340A105B10570F321E09C
:10247000C21AD108E108F10888EE880E83E0981EA0
:10248000A11CB11CC114D104E104F10419F7DDCF82
:10249000FF90EF90DF90CF90BF90AF909F908F9084
:1024A00008951F920F920FB60F9211242F933F930E
:1024B0008F939F93AF93BF9380916B0290916C0227
:1024C000A0916D02B0916E023091490323E0230F79
:1024D0002D3720F40196A11DB11D05C026E8230F5C
:1024E0000296A11DB11D2093490380936B02909326
:1024F0006C02A0936D02B0936E0280914A0390919A
:102500004B03A0914C03B0914D030196A11DB11D49
:1025100080934A0390934B03A0934C03B0934D03D5
:10252000BF91AF919F918F913F912F910F900FBECF
:102530000F901F9018951F920F920FB60F921124B3
:102540000F900FBE0F901F9018950F931F93CF936E
:10255000DF938C0161308FEF780784F1EB016F3FDF
:10256000710519F014F0CFEFD0E0209731F460E05E
:10257000F80180810E94210E0BC01C161D0604F577
:10258000F8018281882369F0BE0180810E947C115C
:1025900060E0F8018181DF91CF911F910F910C9440
:1025A000210EF8018381882359F161E080810E9426
:1025B000210E6FEF70E06C1B7D0B1AC0C1E0DFEFE6
:1025C000F8018281882341F0BE0161507F4F8081F4
:1025D0000E947C1161E0DDCFF8018381882381F0C6
:1025E00060E080810E94210E662777276C1B7D0B9F
:1025F000F8018181DF91CF911F910F910C947C1193
:10260000DF91CF911F910F910895CF93DF93EC014C
:1026100061E088810E94D80E61E089810E94D80E15
:1026200060E070E0CE01DF91CF910C94A5121F9273
:102630000F920FB60F9211242F933F934F935F93F6
:102640006F937F938F939F93AF93BF93CF93DF93BA
:10265000EF93FF9381EA8093B20080916F029CEE2A
:10266000980F923040F40E94DB1131E020E081307D
:10267000924014F520C0282F30E0F901EC56FF4FAE
:102680008491F901E855FF4FD491F901EA53FF4FC6
:10269000C491CC23A1F081110E948F0DEC2FF0E0AA
:1026A000EE0FFF1FE058FF4FA591B491EC91ED2381
:1026B00031E020E009F430E0832F922F02C080E067
:1026C00090E020917102309172022F5F3F4F309362
:1026D00072022093710220910B032C3418F025E034
:1026E00020937002209170022330C1F018F4223040
:1026F00039F058C0243061F1253009F44DC052C082
:10270000892B09F04FC0809171029091720284363A
:10271000910508F443C010920B031CC0019709F007
:1027200041C0E0910B0381E08E0F80930B03F0E03A
:102730008091710290917202EE0FFF1FED58FD4FD4
:1027400091838083109272021092710284E021C002
:10275000892BB9F4E0910B0381E08E0F80930B037A
:10276000F0E08091710290917202EE0FFF1FED5820
:10277000FD4F91838083109272021092710283E068
:1027800008C080917102909172028536910550F0D7
:1027900085E08093700206C0892B21F410927202AA
:1027A00010927102FF91EF91DF91CF91BF91AF91A4
:1027B0009F918F917F916F915F914F913F912F9159
:1027C0000F900FBE0F901F9018951092B000E1EB84
:1027D000F0E080818B7F8083808182608083808134
:1027E0008E7F8083E0E7F0E080818160808381EAF2
:1027F0008093B2007894EFE6F2E082E08183109259
:102800000B03808160E00C94D80E2F923F925F9270
:102810006F927F928F929F92AF92BF92CF92DF92F0
:10282000EF92FF920F931F93CF93DF937C013901B7
:10283000DA015C90232B19F466246A94762C8A01C1
:102840001A01260E371EC0E0D0E0812C912C87E0C3
:10285000C82ED12C0215130509F444C08614970420
:1028600008F068C05801F70180819181FC01A081C6
:10287000B181F80121918F01E22F0C2E01C0EE0FE2
:102880000A94EAF7652D6E2B6F77ED91FC9109950F
:102890008FEF881A980AD5016C9170E0C6018C1BE5
:1028A0009D0B02C0759567958A95E2F7562E219685
:1028B000C730D10578F28614970461F2F701808160
:1028C0009181DC01ED91FC91652D6F770190F08194
:1028D000E02D0995BFEF8B1A9B0A551C5524551CFA
:1028E0002797E6CF209731F18614970418F5F70162
:1028F00080819181DC01ED91FC9161E070E001C08B
:10290000660FCA95EAF7615065210190F081E02DCC
:10291000DF91CF911F910F91FF90EF90DF90CF90BB
:10292000BF90AF909F908F907F906F905F903F90FF
:102930002F900994DF91CF911F910F91FF90EF900D
:10294000DF90CF90BF90AF909F908F907F906F90CF
:102950005F903F902F900895DF92EF92FF920F9338
:102960001F93CF93DF93FC01E058FF4FD080DD2011
:1029700009F45CC0319600811181D8011196FC9058
:102980001197EC90EC01C05CDF4F88819981009732
:1029900009F44CC0DC01ED91FC910190F081E02D37
:1029A00060EF099588819981DC01ED91FC9101909E
:1029B000F081E02D69E7099588819981DC01ED912D
:1029C000FC910190F081E02D6E2D0995888199810F
:1029D000DC01ED91FC910190F081E02D6F2D0995C6
:1029E0007801B2E0EB0EF11C0D0D111DE016F106A1
:1029F00061F020E030E0A70161E070E0CE010E94CC
:102A00000514EFEFEE1AFE0AF1CF88819981DC01FF
:102A1000ED91FC910190F081E02D67EFDF91CF9176
:102A20001F910F91FF90EF90DF900994DF91CF916C
:102A30001F910F91FF90EF90DF900895862F642FE4
:102A4000E0914A02F0914B02309711F0A9010994EC
:102A500008950895862FE0914202F0914302309745
:102A600011F0BA0109940895862FE0914402F09183
:102A70004502309711F0BA0109940895862FE0912C
:102A80003E02F0913F02309711F0BA010994089587
:102A9000862FE0914002F0914102309711F0BA0187
:102AA00009940895862FE0914602F09147023097ED
:102AB00011F0BA0109940895862FE0914802F0912F
:102AC0004902309711F0BA01099408950895DC0184
:102AD0001696ED91FC91179712968C91481B4770B2
:102AE00081E090E001C0880F4A95EAF7E60FF11DFA
:102AF0003081222311F0832B02C0809583238083B1
:102B00000895FB014181DC0112962C911297421726
:102B100068F013962C911397241740F06081159656
:102B20002C91621718F424810C9467150895FC0108
:102B300080819281980F92832181921760F4948111
:102B40009F5F94839381890F821710F08FEF820F1C
:102B5000838381E0089580E00895FC0112828081E2
:102B6000815083831482089580E00895FC01E60F6C
:102B7000F11D849190E0982F88273196E4918E0F73
:102B8000911D08952EE93FE0009729F0F901319752
:102B9000F1F70197F9CF08951092AB031092AA03B1
:102BA000089580937D071092B90088E48093B8005F
:102BB0000C94CC15DB011496ED91FC91159720E057
:102BC00030E065E00994CF92DF92EF92FF920F938D
:102BD0001F93CF93DF938C017B016A0180E0F601A4
:102BE000C49181110BC0CF3F09F457C04C2FB701DE
:102BF000C8010E94DA1581114EC054C0CF3F11F4B4
:102C00004FEFF5CFCE3F09F44FC0C03F08F043C0AF
:102C1000C03E58F04C2F4F70D7011496ED91FC91A7
:102C2000159720E030E062E00CC0C03D68F04C2F0A
:102C30004F70D7011496ED91FC91159720E030E08C
:102C400063E0C801099527C0C03CF8F0D70114968D
:102C5000ED91FC91159720E030E040E064E0C80180
:102C60000995C295C07FCE5FD0E0CE010E94C2150B
:102C7000D7011496ED91FC91159720E030E041E0EA
:102C800064E0C8010995CE0104C0C7FD04C08C2FC3
:102C900090E00E94C21580E001C081E0BFEFCB1A36
:102CA000DB0A9DCF80E001C081E0DF91CF911F91D1
:102CB0000F91FF90EF90DF90CF9008958F929F92A9
:102CC000AF92BF92CF92DF92FF920F931F93CF9359
:102CD000DF9300D0CDB7DEB76C018B01F42E490134
:102CE00020E1421709F456C02417A0F03AE043133C
:102CF0005BC0DB011496ED91FC91159720E030E06C
:102D000042E061E0099547EF50E0B801C6010E943A
:102D1000E3154AC081E1481709F43FC0A5E14A1311
:102D200043C0FB01A280B3804FEE50E0C6010E9479
:102D3000E315D50114964C91406BB801C6010E9471
:102D4000DA15D8011496ED91FC91159720E030E04A
:102D500041E062E0C6010995F50126813781D8017D
:102D60001496ED91FC911597D50115964C9166E05E
:102D7000C6010995811102C080E0D3C0D801149624
:102D8000ED91FC91159720E030E040E063E0C60152
:102D900009950AC046EE50E002C04BED50E0B80184
:102DA000C6010E94E315BCC0F80102811381F2E361
:102DB000FF1609F479C0FF15B8F025E1F21609F401
:102DC00080C037E1F31609F492C084E1F812A8C07C
:102DD000D8011696ED91FC91179715968C919F014D
:102DE000280F311DC90165C0A6E4FA1609F48FC089
:102DF000B7E4FB1609F48FC0EBE3FE1291C0D401D7
:102E000011968C91119713969C91913029F09330E3
:102E100031F4482F885004C048E0480F01C0482FC3
:102E200021E0F8013381381708F420E031E0D801BF
:102E300012965C91451708F430E051E0481708F00D
:102E400050E0822F852B382319F4252309F468C01C
:102E5000F401F280913051F030F0923049F093302B
:102E600051F42FEF09C020E031E007C021E004C099
:102E700020E03FEF02C020E030E0F7FE08C0B401E0
:102E8000C8012A8339830E94811539812A81D4019E
:102E90008C91830F8C9311968C911197820F1196C0
:102EA0008C93FF0C51F73CC0B401C8010E948115FE
:102EB00037C01192E817F907E1F7C8010E94AD1574
:102EC0002FC0C8010E949715882309F455CFD80157
:102ED0001696ED91FC91179715968C919F01280FEE
:102EE000311DC9011192E817F907E1F719C0D401A2
:102EF0001C92F801828111968C93119785818150E3
:102F000012968C931297838113968C9309C0D801E3
:102F100015968C9103C0D80111968C91F401808391
:102F200081E00F900F90DF91CF911F910F91FF9053
:102F3000DF90CF90BF90AF909F908F9008950097B3
:102F400011F00C94AC140895DB01ED91FC910994FF
:102F5000EF92FF920F931F93CF93DF931F92CDB702
:102F6000DEB78C01DC011296ED90FC901397D196A0
:102F7000ED91FC91D29782E0099520E030E04AE0A3
:102F8000B701C8010E94A417F82ED801D196ED917F
:102F9000FC91D29783E00995D801D196ED91FC91EF
:102FA000D29780E00995FF20A1F1F8016281738139
:102FB0009E012F5F3F4F46E4C8010E94A4178981FC
:102FC000D8018C9312966D917C9113979E012F5F7F
:102FD0003F4F47E4C8010E94A4178981F80181830B
:102FE0006281738120E030E048E4C8010E94A417A8
:102FF000D8011B968C931B9798012D5C3F4F12961E
:103000006D917C91139747E1C8010E94A41781E05C
:1030100001C080E00F90DF91CF911F910F91FF9041
:10302000EF9008950B96FC01849108950A96FC0197
:103030008491089568E00C94B61566E00C94B6157A
:10304000FC01849108950E942018882321F0823089
:1030500011F083E0089586E008959091AB039111FB
:1030600004C08093AB036093AA0308951F93CF938A
:10307000DF9300D0CDB7DEB720ED37E03A83298368
:103080009091BC00982399F429813A81232B51F423
:1030900080917D07182F127081FD09C081E00E9488
:1030A0002D1806C029813A8121503109E7CF11E05E
:1030B000812F0F900F90DF91CF911F91089584E998
:1030C0008093BC0064E080E10C943618CF93809329
:1030D000BB0084E88093BC0063E080E80E9436185F
:1030E000C82F882389F080917D07C82FC27081FD89
:1030F0000AC08091B900887F883229F063E082E0BD
:103100000E942D1801C0C1E08C2FCF910895CF935C
:10311000DF93FC0123A5222379F0EC010E947029A2
:10312000811102C080E009C08EA1811180E40E945B
:1031300066188823B9F31BA681E0DF91CF9108952B
:103140000F931F93CF93C42F89016330C1F050F4C4
:10315000613081F0623009F048C0FC0146A321E0F3
:1031600023A743C0663011F1673079F1653009F06B
:103170003CC00EC0FC0186A50E94D11536C0FC01E2
:1031800016A221E023A7411130C00E945F182DC074
:103190000E948718811104C00E945F1880E026C039
:1031A0008C2F0E946618811120C0F6CF0E948718CC
:1031B000882391F3CC23C9F0F80181918F010E94FB
:1031C0006618882349F3C150F5CF0E9487188823D9
:1031D00019F3CC2351F0F80184910E9466188823DA
:1031E00029F00F5F1F4FC150F4CF81E0CF911F91A5
:1031F0000F9108950F93FC010150040F84A996A923
:10320000941718F0081728F402C0081750F0041794
:1032100040F42150260F83A995A9961720F428176A
:1032200020F480E007C0281720F481E0261710F072
:10323000F8CF81E00F9108951F920F920FB60F9271
:1032400011242F933F934F935F936F937F938F93AB
:103250009F93AF93BF93EF93FF938091B900887FC3
:10326000803609F49CC068F5883209F45BC090F49C
:10327000803109F454C038F4882309F4F6C088304A
:1032800009F44DC0F6C0883109F44CC0803209F40D
:103290005DC0EFC0803409F468C048F4803309F49D
:1032A00055C0883309F0E5C080931C04D8C0803530
:1032B00009F44FC0883509F45DC0883409F0D9C0DD
:1032C000D6C0883909F4C7C0A8F4883709F467C0A4
:1032D00038F4883609F463C0803709F460C0C9C087
:1032E000883809F4B8C0803909F45FC0803809F023
:1032F000C0C05BC0803B09F486C038F4803A09F452
:1033000066C0883A09F47FC0B4C0803C09F4A7C005
:10331000883C09F4A4C0883B09F48AC0AAC0809103
:10332000F90310C090911B0480911A04981770F54E
:10333000E0911B0481E08E0F80931B04F0E0E650C7
:10334000FC4F80818093BB0085EC86C080931C0479
:103350008EC0E0911B0481E08E0F80931B0480914E
:10336000BB00F0E0E650FC4F808390911B048091FD
:103370001A046EC0E0911B0481E08E0F80931B0441
:103380008091BB00F0E0E650FC4F808380911D04EB
:1033900081116DC081E08093F80384EA61C083E00D
:1033A00080931E041092A903CFCF8091A90380328D
:1033B00008F051C0E091A90381E08E0F8093A9032A
:1033C0008091BB00F0E0E757FC4F8083BDCF85ECD8
:1033D0008093BC0010921E048091A903803230F4C7
:1033E000E091A903F0E0E757FC4F10826091A90338
:1033F00070E0E0918703F091880389E893E00995F4
:103400001092A90336C084E080931E0410928603B4
:1034100010928303E0918403F091850309958091D4
:103420008303811105C081E08093830310926303BD
:10343000E091860381E08E0F80938603F0E0ED59E2
:10344000FC4F80818093BB00909186038091830321
:10345000981708F479CF85E88093BC000AC085EC02
:103460008093BC0010921E0404C010921C040E94A1
:103470005B24FF91EF91BF91AF919F918F917F91CD
:103480006F915F914F913F912F910F900FBE0F90D1
:103490001F901895089580E090E008958F929F9274
:1034A000AF92BF92CF92DF92EF92FF920F931F9352
:1034B000CF93DF937B01863108F0C1C0C82FD0E0E5
:1034C000FE01E65FF94F9081933009F4A5C0943076
:1034D00009F0B5C08250823108F0ABC08E01025BAA
:1034E0001D4FF801808190E09C01220F331F820F55
:1034F000931F20E639E040E252E0BE018454994F28
:103500000E940325F801008110E06801CC0CDD1C4D
:10351000F0E2EF16F2E0FF060CF043C0F7FC06C045
:1035200085EBE816F10424F4D70104C0A0E001C043
:10353000A4EBB0E0F601E00FF11FE454F94F8181F4
:1035400028E830E04901881A910887FD9394880C97
:10355000991C880C991C092C000CAA08BB088281B4
:1035600028E532E0281B310987FD3395220F331FF0
:10357000220F331FA901330F660B770B9A01AB01A2
:10358000281939094A095B090E94493224EB30E0C5
:1035900040E050E00E941F32820E931EA41EB51E12
:1035A00001C047010C0D1D1DF801E454F94F308195
:1035B0003C3008F03EC0218188E890E0821B9109F0
:1035C00027FD9395880F991F880F991F88169906D4
:1035D00084F0828148E552E0481B510987FD5395EC
:1035E000440F551F440F551FC401481559050CF4CD
:1035F000CA014FB7F894232F30E0F901EE0FFF1FF7
:103600002E0F3F1FF901E75AF94F0297880F991FB4
:10361000928381834FBF0DC0833041F09BEF980FA1
:10362000923020F097EF980F933018F4B7010E9472
:103630007C11CC0FDD1FC05ED94FF982E882DF918B
:10364000CF911F910F91FF90EF90DF90CF90BF909F
:10365000AF909F908F9008959EEF980F923180F4D5
:10366000E82FF0E0DF01A65FB94F9C91913041F463
:10367000EE0FFF1FE05EF94F608371830C94210E03
:1036800008953F924F925F926F927F928F929F9296
:10369000AF92BF92CF92DF92EF92FF920F931F9360
:1036A000CF93DF93EC01062FDCACCBAC5C0184E064
:1036B000A80EB11CE98DFA8DC5010995182FE88473
:1036C000F984C7010E942018982E888599850E9448
:1036D0002318682EE1E09E1203C02FE0922E02C054
:1036E00099249A94888599850E941618882E888531
:1036F00099850E941218782E888599850E941A183B
:10370000013638F0009729F0E80EF91E91E6892E6F
:1037100010C0888599850E941D18013438F00097E3
:1037200029F0E80EF91E81E4882E03C0F1E1EF0EC6
:10373000F11C701630F41C8A1F8A188E1D8A1E8A8E
:103740009AC07814C0F3262D30E0F70184918F3FA2
:1037500021F4FFEFEF1AFF0A43C0801238C08885BA
:1037600099850E94201897012F5F3F4FF70188230A
:1037700011F0823091F484918F8BF9012491288F7C
:10378000F7013396E491EC8BF7013496E491ED8BDD
:10379000F7013596E491EE8B16C08491982F9F70B7
:1037A00092509E8B82958F708D8BF9012491822F80
:1037B0008F70888F22952F702F8BF7013296E491AE
:1037C000E295EF70EC8BE114F10479F454C0F70149
:1037D0003296E491E921C9018E0F911DE80EF91E80
:1037E000871409F4A8CF8394B0CF888599850E9467
:1037F0002318882E4F88988C5D885C0CD9188E8988
:10380000D81A1D0D092D242D412F652DC5010E94AB
:10381000FA18882371F1E80CF11C87E0840D482E1A
:10382000469446944694312E390C4E01F0E28F0EA8
:10383000911C642C712C1315E1F0052D67018C2D62
:103840008E19841590F4F60184916E817F8108A30E
:1038500019A31BA28AA394014BE3C5010E94A417DC
:10386000FFEFCF1ADF0A085FEACFE60CF71C1F5FF5
:10387000E2CF8C8901C080E02BAD082E000C990BA3
:10388000820F911D8BAF81E090E0DF91CF911F916E
:103890000F91FF90EF90DF90CF90BF90AF909F90EF
:1038A0008F907F906F905F904F903F900895FF9220
:1038B0000F931F93CF93DF9300D0CDB7DEB7082FC0
:1038C00010E0F801EB59FD4F9081F62EF9220A5BCA
:1038D0001B4F411104C0F80190819F1511F12F2D4C
:1038E00030E03A832983A091C705B091C8051097AD
:1038F000B1F0682FED91FC9111976F7060690190A4
:10390000F081E02DCD01099522E030E0AE014F5F5E
:103910005F4F62E070E087EC95E00E940514F801CB
:10392000F0820F900F90DF91CF911F910F91FF9038
:103930000895CF92DF92EF92FF920F931F93CF9350
:10394000DF931F92CDB7DEB7E82E6B01F42E6F3FE9
:103950008FEF780709F181E080931F04E092410422
:1039600010922004109242048DE496E029830E9474
:103970002C242981822F0E944823E0914503F09155
:103980004603E230F10550F0EE0FFF1FEE0FFF1F70
:1039900035973197F1F702C0C12CD12C80911E04CC
:1039A0008111FCCF2F2D80E28F1508F420E281E0F9
:1039B00080931E0480931D049FEF90931C0410922B
:1039C0001B04920F90931A048093F9038091F903DA
:1039D0009E2D990F892B8093F9038091F8038130F4
:1039E00061F41092F8038091F9038093BB008091F9
:1039F000BC0083FDF8CF85EC01C085EE8093BC0050
:103A000080911E048130E1F380911B04821710F431
:103A100020911B04AAEFB3E047EC54E0FA018E2F8B
:103A2000841B821718F48D918193F9CF1092E804CA
:103A30002093E7040F2D10E030E0021713071CF469
:103A40008BED91E005C02017310724F488EF91E059
:103A50000E943D20E092B803C092B903C12CD12C42
:103A6000C016D10634F49091E7048091E8049813CD
:103A700012C0F394F3946F2D70E048EB53E087E7A6
:103A80000F90DF91CF911F910F91FF90EF90DF90FA
:103A9000CF900C94F01F8DE496E00E94E023F60195
:103AA000E854FC4F82838FEFC81AD80AD9CFA82FC9
:103AB000B0E0A25BBD4F9C91292F30E0F901EE0FE1
:103AC000FF1F2E0F3F1FF901E454F94FE081F0E092
:103AD0009F01220F331FE20FF31FE75AF94F808136
:103AE0008F7B808380916402981306C0992379F0BC
:103AF0009150909364020BC0882349F0E0914504F3
:103B0000EF5FE0934504F0E0E555FC4F90838FEFC5
:103B10008C930895DB01909164029C30A8F530915C
:103B20004504682F70E0332369F0E32FF0E0E5559A
:103B3000FC4F8081FB01E25BFD4F8083315030936D
:103B4000450407C0FB01E25BFD4F90839F5F9093AC
:103B50006402FB01E25BFD4F808190E09C01220F3B
:103B6000331F820F931F1A161B0634F41416150602
:103B70001CF49A01AD0104C020E639E040E252E0B5
:103B80008454994F0C94032584E192E00C943D20D9
:103B90008F929F92AF92BF92CF92DF92EF92FF925D
:103BA0000F931F93CF93DF931F92CDB7DEB7C82E2D
:103BB000D12C960129573A4F4901F901ED57FF4F92
:103BC00090819F3709F44AC1963041F4909149049D
:103BD000992321F06630710509F022C17B01182F6D
:103BE0000EEF080F0231F8F464307105E1F0F601D0
:103BF000E25BFD4F80818C30B0F490E0FC01EE0F71
:103C0000FF1F8E0F9F1FFC01E454F94F808190E04D
:103C1000FC01EE0FFF1F8E0F9F1FFC01E75AF94FAB
:103C2000808186FD03C192EF910F983068F461E0C6
:103C300070E082E0E816F10411F060E070E0892F96
:103C400099830E94B80B9981023118F5E12FE6950E
:103C5000E695E695812F8770F0E0EB59FD4FE11472
:103C6000F10421F02BE0E216F10449F421E030E008
:103C700001C0220F8A95EAF78081282B09C021E034
:103C800030E001C0220F8A95EAF720958081282331
:103C900020835601AA0CBB1CF501E05EF94F11828E
:103CA00010823CE0E316F10408F0A9C0F701EC5CD7
:103CB000FF4F0C949E34983008F0D0C0023120F4AD
:103CC00060E0812F0E94D80EF401ED57FF4F8081F4
:103CD0008F3709F4C3C082E090C0023108F0BEC043
:103CE00060E0812F0E94D80EF401ED57FF4F8081D4
:103CF0008F3709F4B3C01082B1C0023108F0AEC0F2
:103D000062E0812F0E94D80EF401ED57FF4F8081B1
:103D10008F3711F08BE08083F501E05EF94F81E091
:103D200090E0918380839AC0023108F097C0F4013B
:103D3000ED57FF4F8081833021F460E0812F0E9496
:103D4000210E61E0812F0E94D80EF401ED57FF4F44
:103D500080818F3709F482C081E04FC0133049F071
:103D60008BEF810F823028F087EF810F833008F0CE
:103D700075C061E0812F0E94D80E60E070E0812F55
:103D80000E947C11F401ED57FF4F80818F3709F4B9
:103D900065C083E032C0023108F060C0F401ED5725
:103DA000FF4F80818F3711F084E08083F601E25B62
:103DB000FD4F80818F3FF1F190E0FC01EE0FFF1F7E
:103DC0008E0F9F1FFC01E454F94F808190E0FC01AD
:103DD000EE0FFF1F8E0F9F1FFC01E75AF94F8081E6
:103DE00086FD3CC027C012511230C0F5F401ED57DA
:103DF000FF4F80818F3791F186E080832FC088E26A
:103E000092E00F90DF91CF911F910F91FF90EF9073
:103E1000DF90CF90BF90AF909F908F900C943D20FB
:103E2000109249049FEF90930001D8CE812F0E94F9
:103E3000571DF9CE4FEF5FEF6FEF7FEF812F0F90A0
:103E4000DF91CF911F910F91FF90EF90DF90CF9076
:103E5000BF90AF909F908F900C948A1D0F90DF9130
:103E6000CF911F910F91FF90EF90DF90CF90BF9077
:103E7000AF909F908F900895EF92FF920F931F93B2
:103E8000CF93DF93D82F062FC42F142FF82EF40EC4
:103E9000EE24EA948F2D811B1830A8F060918406DF
:103EA0007091850680939E0600939F061092A1064E
:103EB000E092A0062EE936E04BE382E896E00E940D
:103EC000A4171850E7CF8C2F887FD80F4C2F47703E
:103ED00019F197E049276091840670918506D09387
:103EE0009E0600939F061092A1064F5F47708FEFCA
:103EF00090E001C0880F4A95EAF78093A0062EE96A
:103F000036E04BE382E896E0DF91CF911F910F916D
:103F1000FF90EF900C94A417DF91CF911F910F9118
:103F2000FF90EF900895DF92EF92FF920F931F930F
:103F3000CF93DF93082FD62FC42F142FF62EF40E15
:103F4000EE24E394DD24DA948F2D811B1830A8F041
:103F5000609184067091850600939E0680939F066B
:103F6000E092A106D092A0062EE936E04BE382E86B
:103F700096E00E94A4171850E7CF8C2F887FD80FA7
:103F80004C2F477029F197E0492760918406709182
:103F9000850600939E06D0939F0681E08093A1063C
:103FA0004F5F47708FEF90E001C0880F4A95EAF7A6
:103FB0008093A0062EE936E04BE382E896E0DF919D
:103FC000CF911F910F91FF90EF90DF900C94A41769
:103FD000DF91CF911F910F91FF90EF90DF900895A7
:103FE000EF92FF920F931F93CF93DF93C82F80918F
:103FF000C7059091C8050097C9F17A018B01DC01D2
:10400000ED91FC910190F081E02D60EF0995809198
:10401000C7059091C805DC01ED91FC910190F081FC
:10402000E02D6C2F0995E7010E0D1F1DC017D1075C
:1040300059F020E030E0AE0161E070E087EC95E0FF
:104040000E9405142196F2CF8091C7059091C80572
:10405000DC01ED91FC910190F081E02D67EFDF91A3
:10406000CF911F910F91FF90EF900994DF91CF9125
:104070001F910F91FF90EF900895FC010190002097
:10408000E9F73197BF01681B790BAC0181E70C940C
:10409000F01F682F8DE496E00C942C240F931F934F
:1040A000CF93DF938C01CEE7D6E0EDA9FEA982E0A5
:1040B0000995EDA9FEA981E0099520E030E044E1F1
:1040C000B80182E896E00E94A41725EB36E047E1AC
:1040D000B80182E896E00E94A417EDA9FEA980E04D
:1040E000DF91CF911F910F910994CF93DF93FC0142
:1040F000A081B181109701F1EC01ED91FC91119734
:104100000190F081E02D69EFCD01099588819981B9
:10411000DC01ED91FC910190F081E02D62E00995C8
:1041200088819981DC01ED91FC910190F081E02D75
:1041300065E0DF91CF910994DF91CF910895EF92DF
:10414000FF920F931F93CF93DF93EC01E62EF42E93
:1041500069E372E00E94F7358C016FE270E0CE01F6
:104160000E94EC35009739F46CE570E0CE010E94B6
:10417000EC35009711F0EC0121960115110549F479
:10418000FE0101900020E9F7EC1BEF5FE0930706CA
:1041900005C00C1B1D0B0E5F0093070680910806DF
:1041A000909109060E9439350091070610E0C80178
:1041B00001960E94A4349093090680930806FC019E
:1041C000E00FF11F1082FC01E082F182A801425051
:1041D0005109BE010296DF91CF911F910F91FF907F
:1041E000EF900C94DD358091E60687FD08C061E014
:1041F0000E94D80E60E08091E6060E94210E81E0C8
:104200008093E1060895A0910506B0910606ED9110
:10421000FC9111970190F081E02D682FCD01099458
:104220000F931F93CF93E0919006F09191063097F2
:1042300019F082E896E009950091840610918506B0
:10424000E091B306F091B40682E00995E091B306DF
:10425000F091B40681E0099520E030E045E1B80135
:1042600082E896E00E94A417C82F882341F025EB2E
:1042700036E047E1B80182E896E00E94A417E09199
:10428000B306F091B40680E009958C2FCF911F9171
:104290000F910895962FEEE7F6E06681778180A36F
:1042A00091A32EE936E042E382E896E00C94A4174D
:1042B000BF92CF92DF92EF92FF920F931F93CF9313
:1042C000DF93D82F162FC42F022FB22EB61AD42E5A
:1042D000D80E6B2D8D2D0E944A21C02ECD1AE12EB5
:1042E000EC0E6C2D8E2D0E944A21FC2EFD1A6B2D9A
:1042F0008F2D0E944A21C11B6C2D8C2F0E944A21B8
:10430000100F612F8D2D0E944A21D00F6D2F8E2D01
:104310000E944A21612F8F2D0E944A216D2F8C2FE0
:10432000DF91CF911F910F91FF90EF90DF90CF9091
:10433000BF900C944A21EF92FF920F931F93CF935B
:10434000DF93F82EE62EC42FD1E0D41B042F019565
:10435000000F262F482F6C2F80E00E94582110E07C
:104360001C1788F4D7FD03C0C1500E5FD00F1F5F2C
:10437000912F990F9F5FD90F2E2D4F2D6C2F812FCD
:104380000E945821EDCFDF91CF911F910F91FF90A7
:10439000EF900895FF920F931F93CF93DF93182F01
:1043A000C62FF42ED22F022F242F462F682F82E8FB
:1043B00096E00E94FA188823E9F04F2D6C2F812F88
:1043C0000E943C1F4D2F6C2F812F0E94931F8FEF57
:1043D0008F0D4D2F6C2F810F0E94931FD1506D2F89
:1043E0006C0F4F2D812FDF91CF911F910F91FF9077
:1043F0000C943C1FDF91CF911F910F91FF90089576
:1044000080918606909187068D51914009F445C0B0
:104410008DE191E0909387068093860680919906BE
:10442000811108C0E2E2F1E0E491E0939A06E9E24A
:10443000F1E011C0813041F4ECE2F1E0E491E0936D
:104440009A06EDE2F1E007C0EAE2F1E0E491E093E0
:104450009A06EBE2F1E0E491E0939B0680919A06E4
:10446000082E000C990B20919B06821B910927FDB9
:10447000939520919C06203441F0829FC001112425
:1044800026E0969587952A95E1F780939D0684EB23
:1044900095E1909398068093970608950F931F9344
:1044A000CF93DF93CDB7DEB729970FB6F894DEBF71
:1044B0000FBECDBF0E94F2110091EE061091EF06E3
:1044C0002091F0063091F106DC01CB01801B910BAD
:1044D000A20BB30B8C329140A105B10558F3F894AF
:1044E0008091E4069091E5069A838983E091E8063D
:1044F000F091E906DF011196808189879091E006AD
:10450000E091F206F091F3068091F406992309F404
:104510002EC09081982B98879081809589238F83D6
:104520008F818C8388E08B8358856F8149853B819F
:104530002C8189819A81508347FD252F3A952083CC
:10454000262F39F0441F00C000006083000000C027
:10455000F2CF38E04D9160830000019761F7F0934E
:10456000F306E093F20649873B832C8338C09081A1
:10457000982B98879081809589238F838F818E8354
:1045800088E08D8358856F8149853D812E818981A1
:104590009A81508347FD252F00C000C0208300C0B2
:1045A00000C000C000C000C060830000262F3A9504
:1045B00041F0441F000000C000C000C000C000C0A7
:1045C000E8CF38E04D9100C0608300C0019709F743
:1045D000F093F306E093F20649873D832E839A8396
:1045E000898378940E94F2116093EE067093EF062F
:1045F0008093F0069093F10629960FB6F894DEBFEB
:104600000FBECDBFDF91CF911F910F910895DC01B7
:104610009091E706992361F0699FB0011124672FFB
:10462000499FA0011124452F299F90011124232F78
:104630003091ED068091EA06E091E806F091E906F6
:10464000381308C0CD01880F991F8A0F9B1F8E0F4A
:104650009F1F0BC0CD01880F991F880F991F8E0FC8
:104660009F1FFC01E30FF11D10823091EA06FC014F
:10467000E30FF11D60833091EB06FC01E30FF11DA8
:1046800040833091EC06FC01E30FF11D2083089577
:10469000382F2091420490914104213208F049C002
:1046A00080911E048111FCCF42E040931E043093A0
:1046B0001D043FEF30931C0410921B0420931A0436
:1046C000A1E2B4E04AEF53E0FA013E2F341B321767
:1046D00018F43D913193F9CF1092F9032091F90329
:1046E000990F922B9093F9039091F803913061F414
:1046F0001092F8039091F9039093BB009091BC0045
:1047000093FDF8CF95EC01C095EE9093BC0090918D
:104710001E049230E1F390911C049F3F79F0809148
:104720001C04803241F080911C04803331F084E01D
:1047300005C081E003C082E001C083E01092200444
:104740001092420410921F04089581E00C944823B3
:1047500040918303262F30E0240F311D2132310593
:10476000DCF420911E042430C9F4FC0180E090E0C8
:10477000861758F4309183032191DC01AD59BC4F69
:10478000A30FB11D2C930196F3CF80918303680F83
:104790006093830380E0089581E0089582E00895A6
:1047A0000895E091E8048091E704E81730F4F0E020
:1047B000E953FB4F808190E008958FEF9FEF0895BC
:1047C0009091E8048091E704981750F4E92FF0E005
:1047D000E953FB4F208130E09F5F9093E80402C0D3
:1047E0002FEF3FEFC90108958091E70490E02091F9
:1047F000E804821B91090895CF92DF92EF92FF9215
:104800000F931F93CF93DF937C01262F972F8A015D
:1048100080911F04882391F0C62FD72F6E01C40EFC
:10482000D51ECC15DD0571F06991D701ED91FC9194
:104830000190F081E02DC7010995F3CF642F822FFD
:104840000E94A823C801DF91CF911F910F91FF9083
:10485000EF90DF90CF900895CF93DF931F92CDB765
:10486000DEB7698320911F042223D1F020914204F6
:10487000203240F021E030E0FC013383228380E0ED
:1048800090E015C080912004E82FF0E0EF5DFB4F31
:10489000998190838F5F809320048093420405C0A8
:1048A00061E0CE0101960E94A82381E090E00F9084
:1048B000DF91CF91089585ED8093BC008091BC007D
:1048C00084FDFCCF10921E04089510921E0481E016
:1048D00080931D041092F80361E082E10E94210E92
:1048E00061E083E10E94210EE9EBF0E080818E7FA0
:1048F000808380818D7F808388E48093B80085E405
:104900008093BC0008951F93CF93DF93EC01162F83
:104910008981882331F08E8187FD03C060E00E9489
:10492000D80E1E838981882341F061E0812F0E9487
:10493000D80E60E0812F0E94210E812F90E0FC01B3
:10494000EA53FF4FE491F0E0EE0FFF1FE454FF4FF6
:10495000259134913B8B2A8BFC01E855FF4FE49164
:10496000EC8BDF91CF911F910895EF92FF920F93FF
:104970001F93CF93DF93EC017B0188859985009786
:1049800011F00E9439359D858A85981719F084E0C9
:1049900090E002C083E090E08E9D80018F9D100D1D
:1049A0009E9D100D11241D830C83C8010E94A43408
:1049B00099878887009741F0A80160E070E00E9425
:1049C000D635FB82EA8204C01D821C821B821A82B9
:1049D000DF91CF911F910F91FF90EF900895CF93AA
:1049E000DF93EC0188859985009711F00E94393595
:1049F0008E8187FD05C060E0DF91CF910C94D80EC9
:104A0000DF91CF910895DF92EF92FF920F931F9362
:104A1000CF93DF93EC01D62E7A01890188818C3007
:104A200008F06AC061E08D2D0E94D80E8881E82FC1
:104A3000F0E09F01220F331FE20FF31FE75AF94FF7
:104A40009D2D9F732081207CD22ED92AD08260E2B6
:104A500072E0AB014E195F0957FF02C04D5F5F4F17
:104A60005595479555954795498340E659E09A01F4
:104A7000201B310B37FF02C02D5F3F4F3595279527
:104A8000359527952A836CE00E9492349CE0899F9B
:104A9000B001112440E050E09A01260F371FF901C0
:104AA000EE0FFF1F2E0F3F1FF901E75AF94F9081BC
:104AB00096FD16C04F5F5F4F4C30510569F781116D
:104AC0000FC01092800082E08093810010928500D8
:104AD00010928400B19A80916F00826080936F0081
:104AE000E881F0E0CF01880F991FE80FF91FE75A1E
:104AF000F94F8081806480838881DF91CF911F91FD
:104B00000F91FF90EF90DF9008951F920F920FB6D4
:104B10000F9211242F933F934F935F936F937F9343
:104B20008F939F93AF93BF93EF93FF938091E9048B
:104B300087FF05C010928500109284001BC0209151
:104B4000E904022E000C330B80917D0690E02817BB
:104B5000390784F48091E904082E000C990BFC01BC
:104B6000EE0FFF1F8E0F9F1FFC01E75AF94F808148
:104B700086FD15C08091E9048F5F8093E904209140
:104B8000E904022E000C330B80917D0690E028177B
:104B90003907C4F48091E9048C3064F113C080912A
:104BA000E904082E000C990BFC01EE0FFF1F8E0F7D
:104BB0009F1FFC01E75AF94F808160E08F730E94CC
:104BC000210ED8CF80918400909185000496803486
:104BD0009C4918F480E49CE905C080918400909180
:104BE0008500049690938900809388008FEF8093CE
:104BF000E9043BC020918400309185008091E90454
:104C0000082E000C990BFC01EE0FFF1F8E0F9F1F4B
:104C1000FC01E75AF94F81819281820F931F909393
:104C20008900809388008091E904082E000C990B7C
:104C3000FC01EE0FFF1F8E0F9F1FFC01E75AF94F7B
:104C4000808186FF12C08091E904082E000C990B28
:104C5000FC01EE0FFF1F8E0F9F1FFC01E75AF94F5B
:104C6000808161E08F730E94210EFF91EF91BF91CF
:104C7000AF919F918F917F916F915F914F913F91F4
:104C80002F910F900FBE0F901F9018958091C60422
:104C9000882381F080E090E0FC01EA58FB4F10820D
:104CA0001182128213821482059680359105A1F734
:104CB0001092C604809175048823A1F04BE454E05F
:104CC00023E080E090E0FA01E80FF91F10820196DE
:104CD0008E309105C1F72150425F5F4F2111F1CF16
:104CE000109275040E9400228091BB06811107C0BA
:104CF00081E08093BB0682E896E00E94A81780912D
:104D00008406909185060E944E201092B90610925A
:104D1000BA0640E050E069EA71E08EE796E00E9452
:104D2000890C0E9410218111F0CF0895CF92DF925B
:104D3000EF92FF920F931F93CF93DF93CDB7DEB720
:104D400060970FB6F894DEBF0FBECDBFF09044045D
:104D5000F0FE04C0809143040E94510EF3FE21C076
:104D6000C090E206D090E30600E010E00C151D05AF
:104D700081F08091E2069091E3060817190730F45C
:104D800020E040E060E0C8010E9407230F5F1F4F52
:104D9000EDCF8091E8069091E906892B11F00E94F1
:104DA0004E22F5FE20C088E0E8E1F1E0DE01199630
:104DB00001900D928A95E1F788E0E0E2F1E0DE01F2
:104DC000119601900D928A95E1F7AE01475F5F4F12
:104DD00068E086E70E948206AE014F5F5F4F68E0A1
:104DE00086E70E9482061091440416FF10C081E0FD
:104DF00080931F0480E48093410410922004109259
:104E0000420480E690E00E9449200E94A52317FDFD
:104E10000E9446262091440480E090E061E070E02A
:104E2000AB01082E01C0440F0A94EAF740952423F1
:104E3000019688309105A1F72093440410920E0347
:104E40001092E8041092E704109220041092420499
:104E50000E94652411E010931F0406E500934104AD
:104E6000109220041092420480E290E00E944920B7
:104E70008EEF90E00E9449200E94A52362E070E03E
:104E800080E090E00E94171210931F0400934104E9
:104E900010922004109242048CE290E00E9449207B
:104EA00082E390E00E9449200E94A52310934A04C7
:104EB00080914904882329F0109249048FEF809350
:104EC000000110926802109265021092460410923E
:104ED0006902109266021092470410926A021092C0
:104EE0006702109248048EE4E82E82E0F82E10E06B
:104EF0000FEF82EF810F883018F462E070E006C097
:104F00008EEF810F823128F461E070E0812F0E94E2
:104F1000C81DF70101937F011F5F163151F71092F1
:104F200038031092370310924504109264021092D5
:104F30004A049CE088E10FB6F894A895809360003D
:104F40000FBE9093600060E971E080E090E00E9405
:104F5000171260960FB6F894DEBF0FBECDBFDF917B
:104F6000CF911F910F91FF90EF90DF90CF90089518
:104F70001F93CF93DF9300D0CDB7DEB7182F7A837E
:104F800069838091C7059091C805009709F44EC0C8
:104F9000DC01ED91FC911031A8F46115704490F49E
:104FA000612F606E0190F081E02D099522E030E0E4
:104FB000AE014F5F5F4F62E070E087EC95E00E94CA
:104FC000051434C00190F081E02D60EF09958091C7
:104FD000C7059091C805DC01ED91FC910190F0812D
:104FE000E02D6FE609958091C7059091C805DC0119
:104FF000ED91FC910190F081E02D612F099522E067
:1050000030E0AE014F5F5F4F62E070E087EC95E00B
:105010000E9405148091C7059091C805DC01ED91AF
:10502000FC910190F081E02D67EF09950F900F90B2
:10503000DF91CF911F9108954F925F926F927F926F
:105040008F929F92AF92BF92CF92DF92EF92FF9298
:105050000F931F93CF93DF93FC01C081D1812091E7
:10506000880730918907C217D3070CF0D4C09E017E
:10507000220F331FE0918607F0918707E20FF31F9D
:10508000C080D180C170DD27F1E0CF27209719F4CF
:1050900024E630E002C02CE93FEF8A015B014C01BD
:1050A0007A01E20EF31EB7010F2C000C880B990B4E
:1050B0000E9499332B013C0120E030E040E45FE3A3
:1050C0000E94253420E030E048E452E40E94EF32B0
:1050D0000E946133C616D706D4F020E030E040EAE3
:1050E0005FE3C301B2010E94253420E030E048E4D0
:1050F00052E40E94EF3220E030E040E85FE30E949B
:1051000083320E9461336C157D050CF06DC0E00E9A
:10511000F11EB7010F2C000C880B990B0E949933DC
:105120002B013C0120E030E040E45FE30E942534A5
:1051300020E030E048E452E40E94EF320E94613304
:10514000C616D706CCF020E030E040EA5FE3C301AA
:10515000B2010E94253420E030E048E452E40E948D
:10516000EF3220E030E040E85FE30E9483320E94AB
:1051700061336C157D05DCF5B701600F711F072EDB
:10518000000C880B990B0E9499332B013C0120E005
:1051900030E040E45FE30E94253420E030E048E462
:1051A00052E40E94EF320E946133C616D706B4F172
:1051B00020E030E040EA5FE3C301B2010E94253401
:1051C00020E030E048E452E40E94EF3220E030E09A
:1051D00040E85FE30E9483320E9461336C157D05D5
:1051E000ECF023E030E005C021E030E002C022E036
:1051F00030E0F501808191810196821793073CF0A0
:10520000F50111821082F4018081918101969183D0
:105210008083CE0105C081E090E002C08FEF9FEF58
:10522000DF91CF911F910F91FF90EF90DF90CF9082
:10523000BF90AF909F908F907F906F905F904F90B6
:1052400008951F93CF93DF93182FEB018091CC0526
:105250009091CD056817790748F46091CA0570915F
:10526000CB05C60FD71F188380E018C0E091F90561
:10527000F091FA05309711F481E010C081E080933D
:10528000C9058091E5059091E60509958091CC05C9
:105290009091CD05C817D90778F7DFCFDF91CF916F
:1052A0001F910895CF93DF93EC01FB0120E030E0E4
:1052B000CF01861B970B2C173D0778F4DB01A20F5B
:1052C000B31F9C91908311964C9147954427479525
:1052D000942B91932E5F3F4FEBCFDF91CF910895A9
:1052E000CF9384EA8093BC0061E080E80E94361886
:1052F000882359F08091B900887F883041F080314F
:1053000031F061E082E00E942D18C0E01DC088E706
:105310008093BB0084E88093BC0062E080E80E9438
:105320003618882391F380917D07C82FC27081FDC4
:105330000AC08091B900887F883129F062E082E05C
:105340000E942D1801C0C1E08C2FCF910895CF93FA
:10535000DF93CDB7DEB72C970FB6F894DEBF0FBE44
:10536000CDBF789484B5826084BD84B5816084BDEE
:1053700085B5826085BD85B5816085BD80916E00F3
:10538000816080936E001092810080918100826024
:105390008093810080918100816080938100809161
:1053A00080008160809380008091B1008460809350
:1053B000B1008091B00081608093B00080917A004C
:1053C000846080937A0080917A00826080937A0072
:1053D00080917A00816080937A0080917A00806861
:1053E00080937A001092C10045E062E084E691E08B
:1053F0000E949F208EE49AE1909349028093480294
:105400008DEE9BE0909347028093460288EB9BE0F1
:10541000909345028093440281E99BE0909343027C
:105420008093420288EC9DE1909341028093400278
:105430008CE29BE190933F0280933E0282E896E0EB
:1054400090934B0280934A0286E996E290934D0234
:1054500080934C020E94F32081E080934C0641E04F
:1054600061E080EA91E00E949F20E091FA04F091CF
:10547000FB0482E08083E091FA04F091FB04108247
:10548000E091F604F091F7041082E091F804F091B5
:10549000F90480E1808310920205E091FE04F0910E
:1054A000FF0486E08083E091FC04F091FD0480819C
:1054B00080618083E091FC04F091FD04808188602C
:1054C0008083E091FC04F091FD04808180688083FA
:1054D000E091FC04F091FD0480818F7D80838091B8
:1054E0004C06811150C061E08DE00E94D80E62ED43
:1054F00070E080E090E00E94171261E08DE00E9471
:10550000210E68E270E080E090E00E94171260E0F7
:105510008DE00E94210E62ED70E080E090E00E943C
:10552000171261E08DE00E94210E68E270E080E0D9
:1055300090E00E94171260E08DE00E94210E6AEF59
:1055400070E080E090E00E94171210E062ED70E0E1
:1055500080E090E00E94171261E08DE00E94210E31
:1055600068E270E080E090E00E94171260E08DE059
:105570000E94210E1F5F153049F76DE770E080E053
:1055800090E00E9417128AEE94E0909306068093B2
:1055900005069093C8058093C70587EC95E00E94A7
:1055A000752087E895E00E94AC148091640220E0A9
:1055B00030E08C3028F4F901E25BFD4F84838F5F8B
:1055C0002F5F3F4F29303105A1F78093640289EFA7
:1055D00096E00E94051385EF96E00E94051312E005
:1055E000812E912C01E010E080916802882349F01F
:1055F00069B18091650268236C7F40E080E00E9481
:10560000571C80916902882379F063B196B120E438
:10561000929FC00111246F73862B609166026823EC
:1056200040E081E00E94571C80916A02882359F073
:1056300066B16C736695669580916702682340E059
:1056400082E00E94571CFF24F394809105069091FC
:105650000606DC01ED91FC910084F185E02D0995B1
:10566000892B09F4CEC18091050690910606DC01D4
:10567000ED91FC910284F385E02D09959C018F3F0B
:10568000BFEF9B0711F3982F8091D205882309F46F
:1056900092C0973F09F07EC01092D205A091CA0532
:1056A000B091CB056C916137C1F1693709F05CC0ED
:1056B000E091FF05F0910006309739F28091D30513
:1056C0009091D4058330910538F420E030E040E03B
:1056D00050E060E070E01BC0BD016D5F7F4F03973D
:1056E0000E945229BC016D5F7F4F80E00E942129FA
:1056F000E091CA05F091CB059F012D5F3F4F42819C
:1057000050E0618170E0E091FF05F091000680912A
:10571000E1059091E205099598CF8091FB05909164
:10572000FC05892B09F491CFBD016F5F7F4F8091FC
:10573000D3059091D40501970E945229BC016F5F57
:105740007F4F80E00E9421296091CA057091CB05AE
:105750006F5F7F4FE091FB05F091FC058091E705BD
:105760009091E805099571CFE091FD05F091FE0556
:10577000309709F46ACF9D012F5F3F4F4091D305C9
:105780005091D405415051098091E9059091EA0565
:1057900009955BCF6091D3057091D405822F0E944B
:1057A00021298091D3059091D40501969093D40539
:1057B0008093D3054ACF6091D0057091D1056115D2
:1057C000710509F4AFC027FDADC061507109709338
:1057D000D1056093D005822F0E9421298091D005A8
:1057E0009091D105892B09F030CF8091CE05882387
:1057F00009F42BCF803D09F47FC030F4803939F1B2
:10580000803C09F466C08BC0843FE1F1853F09F418
:105810004DC0803E09F083C0E091ED05F091EE05AA
:10582000309709F47CC0A091CA05B091CB058C914A
:1058300011964C9150E020E8829F400D511D11249B
:105840006091CF058091D5059091D60567C0E09114
:10585000EF05F091F005309709F461C0A091CA05F9
:10586000B091CB058C9111964C9150E090E8899FB6
:10587000400D511D11246091CF058091D705909165
:10588000D8054CC0E091F505F091F605309709F484
:1058900046C0A091CA05B091CB054C9150E011963D
:1058A0006C918091DD059091DE0538C0E091F7059F
:1058B000F091F805309799F1A091CA05B091CB0508
:1058C0004C9150E011966C918091DF059091E0052C
:1058D00025C0E091F105F091F205309701F1A0911A
:1058E000CA05B091CB054C9150E06091CF058091F5
:1058F000D9059091DA0512C0E091F305F091F40515
:10590000309769F0A091CA05B091CB054C9150E059
:105910006091CF058091DB059091DC05099510928F
:10592000CE0593CE903F30F4822F8F708093CF05B9
:10593000922F907F903F79F158F4903C29F118F420
:105940009039E9F082CE903DF9F0903EC1F07DCEE5
:10595000993F09F449C028F48CE0890F823078F02F
:1059600074CE9F3F09F071CE1092D1051092D005F0
:105970001092CE051092CF0580E090E013C0909277
:10598000D1058092D00504C01093D1050093D005B5
:105990009093CE055ACEF092D2051092D405109273
:1059A000D30553CE2091CC053091CD0582179307B6
:1059B00048F4E091CA05F091CB05E80FF91F108279
:1059C0000196F0CF1092D2051092D4051092D30513
:1059D000E0910306F0910406309709F436CE8091E9
:1059E000EB059091EC050BC0E0910106F0910206E9
:1059F000309709F42ACE8091E3059091E40509954A
:105A000024CE8FB7F894C0906B02D0906C02E090D7
:105A10006D02F0906E028FBFC0924103D09242039C
:105A2000E0924303F092440380913D0390913E0342
:105A3000A0913F03B09140034091010150910201B8
:105A400060E070E0C81AD90AEA0AFB0A4C155D0545
:105A50006E057F0530F080910E03882309F498C20B
:105A600055C0840F951FA61FB71F80933D039093C9
:105A70003E03A0933F03B0934003AAE0CA2EA6E0E2
:105A8000DA2EB2EFFB2EB7E0BF15B8F0F601808139
:105A9000823099F480913703909138030F2C02C023
:105AA000959587950A94E2F780FF07C08F2D0E9495
:105AB000DB11BC018F2D0E94B827F394FFEFCF1AA2
:105AC000DF0A28E0F212DFCF8091000187FDC3CF0B
:105AD000F12CF5E0EF2E2F2D30E080910001082E03
